:020000040800F2
:1000000000500020091D0008451B00084B1B00087C
:10001000511B0008571B00085D1B00080000000072
:10002000000000000000000000000000631B00084A
:100030006F1B0008000000007B1B0008871B0008E6
:10004000511D0008511D0008511D0008511D0008D8
:10005000511D0008511D0008511D0008511D0008C8
:10006000931B0008511D0008511D0008511D000878
:10007000511D0008511D0008511D0008511D0008A8
:10008000511D0008511D0008511D0008511D000898
:10009000511D0008511D0008511D0008511D000888
:1000A000511D0008511D0008511D0008511D000878
:1000B000511D0008511D0008511D0008511D000868
:1000C000511D0008511D0008511D0008511D000858
:1000D000511D0008A11B0008511D0008511D0008FA
:1000E000511D0008511D0008511D000800000000AE
:1000F0000000000000000000000000000000000000
:0C01000000000000000000005FF808F1A3
:1001100010B5054C237833B9044B13B10448AFF341
:1001200000800123237010BDD401002000000000D6
:100130003491000808B5034B1BB103490348AFF3E2
:10014000008008BD00000000D801002034910008A4
:10015000034613F8012B002AFBD1181A0138704707
:1001600081F0004102E000BF83F0004330B54FEA68
:1001700041044FEA430594EA050F08BF90EA020FD5
:100180001FBF54EA000C55EA020C7FEA645C7FEA68
:10019000655C00F0E2804FEA5454D4EB5555B8BF8B
:1001A0006D420CDD2C4480EA020281EA030382EAFC
:1001B000000083EA010180EA020281EA0303362D8E
:1001C00088BF30BD11F0004F4FEA01314FF4801C61
:1001D0004CEA113102D0404261EB410113F0004F73
:1001E0004FEA03334CEA133302D0524263EB43032A
:1001F00094EA050F00F0A780A4F10104D5F1200EC8
:100200000DDB02FA0EFC22FA05F2801841F1000122
:1002100003FA0EF2801843FA05F359410EE0A5F1F6
:1002200020050EF1200E012A03FA0EFC28BF4CF027
:10023000020C43FA05F3C01851EBE37101F00045DD
:1002400007D54FF0000EDCF1000C7EEB00006EEBEA
:100250000101B1F5801F1BD3B1F5001F0CD3490874
:100260005FEA30004FEA3C0C04F101044FEA4452CB
:1002700012F5800F80F09A80BCF1004F08BF5FEA52
:10028000500C50F1000041EB045141EA050130BD32
:100290005FEA4C0C404141EB0101013C28BFB1F544
:1002A000801FE9D291F0000F04BF01460020B1FA8F
:1002B00081F308BF2033A3F10B03B3F120020CDA62
:1002C0000C3208DD02F1140CC2F10C0201FA0CF040
:1002D00021FA02F10CE002F11402D8BFC2F1200CA5
:1002E00001FA02F120FA0CFCDCBF41EA0C0190405B
:1002F000E41AA2BF01EB0451294330BD6FEA0404A4
:100300001F3C1CDA0C340EDC04F11404C4F120028E
:1003100020FA04F001FA02F340EA030021FA04F3A0
:1003200045EA030130BDC4F10C04C4F1200220FAF7
:1003300002F001FA04F340EA0300294630BD21FA35
:1003400004F0294630BD94F0000F83F4801306BFFB
:1003500081F480110134013D4EE77FEA645C18BFEF
:100360007FEA655C29D094EA050F08BF90EA020F86
:1003700005D054EA000C04BF1946104630BD91EA7E
:10038000030F1EBF0021002030BD5FEA545C05D181
:100390004000494128BF41F0004130BD14F58004C0
:1003A0003CBF01F5801130BD01F0004545F0FE4134
:1003B00041F470014FF0000030BD7FEA645C1ABF69
:1003C000194610467FEA655C1CBF0B46024650EAA0
:1003D000013406BF52EA033591EA030F41F40021CC
:1003E00030BD00BF90F0000F04BF0021704730B552
:1003F0004FF4806404F132044FF000054FF0000127
:1004000050E700BF90F0000F04BF0021704730B5E7
:100410004FF4806404F1320410F0004548BF4042BC
:100420004FF000013EE700BF42004FEAE2014FEA11
:1004300031014FEA02701FBF12F07F4393F07F4FEC
:1004400081F06051704732F07F4208BF704793F0EF
:100450007F4F04BF41F40021704730B54FF4607402
:1004600001F0004521F000411CE700BF50EA010205
:1004700008BF704730B54FF000050AE050EA0102AE
:1004800008BF704730B511F0004502D5404261EB1E
:1004900041014FF4806404F132045FEA915C3FF45F
:1004A000D8AE4FF003025FEADC0C18BF03325FEAFC
:1004B000DC0C18BF033202EBDC02C2F1200300FAAD
:1004C00003FC20FA02F001FA03FE40EA0E0021FAD2
:1004D00002F11444BDE600BF70B54FF0FF0C4CF4C0
:1004E000E06C1CEA11541DBF1CEA135594EA0C0F72
:1004F00095EA0C0F00F0DEF82C4481EA030621EAAD
:100500004C5123EA4C5350EA013518BF52EA0335E7
:1005100041F4801143F4801338D0A0FB02CE4FF099
:100520000005E1FB02E506F00042E0FB03E54FF0C9
:100530000006E1FB03569CF0000F18BF4EF0010EC1
:10054000A4F1FF04B6F5007F64F5407404D25FEABD
:100550004E0E6D4146EB060642EAC62141EA555170
:100560004FEAC52040EA5E504FEACE2EB4F1FD0CB2
:1005700088BFBCF5E06F1ED8BEF1004F08BF5FEA30
:10058000500E50F1000041EB045170BD06F00046E2
:1005900046EA010140EA020081EA0301B4EB5C048F
:1005A000C2BFD4EB0C0541EA045170BD41F4801187
:1005B0004FF0000E013C00F3AB8014F1360FDEBFAC
:1005C000002001F0004170BDC4F10004203C35DA88
:1005D0000C341BDC04F11404C4F1200500FA05F30B
:1005E00020FA04F001FA05F240EA020001F00042AC
:1005F00021F0004110EBD37021FA04F642EB060122
:100600005EEA430E08BF20EAD37070BDC4F10C044B
:10061000C4F1200500FA04F320FA05F001FA04F20F
:1006200040EA020001F0004110EBD37041F10001FB
:100630005EEA430E08BF20EAD37070BDC4F1200506
:1006400000FA05F24EEA020E20FA04F301FA05F26E
:1006500043EA020321FA04F001F0004121FA04F216
:1006600020EA020000EBD3705EEA430E08BF20EAE6
:10067000D37070BD94F0000F0FD101F00046400020
:1006800041EB010111F4801F08BF013CF7D041EAA2
:10069000060195F0000F18BF704703F000465200A6
:1006A00043EB030313F4801F08BF013DF7D043EA77
:1006B0000603704794EA0C0F0CEA135518BF95EA2D
:1006C0000C0F0CD050EA410618BF52EA4306D1D1B4
:1006D00081EA030101F000414FF0000070BD50EAD3
:1006E000410606BF1046194652EA430619D094EA5D
:1006F0000C0F02D150EA013613D195EA0C0F05D147
:1007000052EA03361CBF104619460AD181EA03019A
:1007100001F0004141F0FE4141F470014FF0000052
:1007200070BD41F0FE4141F4780170BD70B54FF0ED
:10073000FF0C4CF4E06C1CEA11541DBF1CEA13556D
:1007400094EA0C0F95EA0C0F00F0A7F8A4EB05044F
:1007500081EA030E52EA03354FEA013100F0888046
:100760004FEA03334FF0805545EA131343EA12630F
:100770004FEA022245EA111545EA10654FEA0026C4
:100780000EF000419D4208BF964244F1FD0404F57D
:10079000407402D25B084FEA3202B61A65EB0305D9
:1007A0005B084FEA32024FF480104FF4002CB6EB96
:1007B000020E75EB030E22BFB61A754640EA0C0016
:1007C0005B084FEA3202B6EB020E75EB030E22BF56
:1007D000B61A754640EA5C005B084FEA3202B6EB97
:1007E000020E75EB030E22BFB61A754640EA9C0056
:1007F0005B084FEA3202B6EB020E75EB030E22BF26
:10080000B61A754640EADC0055EA060E18D04FEAE3
:10081000051545EA16754FEA06164FEAC30343EA83
:1008200052734FEAC2025FEA1C1CC0D111F4801F50
:100830000BD141EA00014FF000004FF0004CB6E749
:1008400011F4801F04BF01430020B4F1FD0C88BFE8
:10085000BCF5E06F3FF6AFAEB5EB030C04BFB6EBF3
:10086000020C5FEA500C50F1000041EB045170BDE6
:100870000EF0004E4EEA113114EB5C04C2BFD4EB13
:100880000C0541EA045170BD41F480114FF0000E97
:10089000013C90E645EA060E8DE60CEA135594EA13
:1008A0000C0F08BF95EA0C0F3FF43BAF94EA0C0F16
:1008B0000AD150EA01347FF434AF95EA0C0F7FF48B
:1008C00025AF104619462CE795EA0C0F06D152EADF
:1008D00003353FF4FDAE1046194622E750EA4106C3
:1008E00018BF52EA43067FF4C5AE50EA41047FF4D4
:1008F0000DAF52EA43057FF4EBAE12E74FF0FF3C39
:1009000006E000BF4FF0010C02E000BF4FF0010C09
:100910004DF804CD4FEA410C7FEA6C5C4FEA430C82
:1009200018BF7FEA6C5C1BD001B050EA410C0CBFD1
:1009300052EA430C91EA030F02BF90EA020F002033
:10094000704710F1000F91EA030F58BF994208BF9A
:1009500090422CBFD8176FEAE37040F00100704757
:100960004FEA410C7FEA6C5C02D150EA013C07D1AE
:100970004FEA430C7FEA6C5CD6D152EA033CD3D0F9
:100980005DF8040B704700BF8446104662468C46F3
:100990001946634600E000BF01B5FFF7B7FF002826
:1009A00048BF10F1000F01BD4DF808EDFFF7F4FF4F
:1009B0000CBF012000205DF808FB00BF4DF808EDDA
:1009C000FFF7EAFF34BF012000205DF808FB00BFFD
:1009D0004DF808EDFFF7E0FF94BF012000205DF81F
:1009E00008FB00BF4DF808EDFFF7CEFF94BF0120D4
:1009F00000205DF808FB00BF4DF808EDFFF7C4FFCD
:100A000034BF012000205DF808FB00BF4FEA410C15
:100A10007FEA6C5C02D150EA013C0AD14FEA430CF8
:100A20007FEA6C5C02D152EA033C02D14FF0000035
:100A300070474FF0010070474FEA410212F5001273
:100A400015D211D56FF47873B3EB625212D94FEA15
:100A5000C12343F0004343EA505311F0004F23FAFF
:100A600002F018BF404270474FF00000704750EA54
:100A7000013005D111F0004008BF6FF00040704711
:100A80004FF00000704700BF4A0011D212F500126B
:100A900011D20DD56FF47873B3EB62520ED44FEAD6
:100AA000C12343F0004343EA505323FA02F0704756
:100AB0004FF00000704750EA013002D14FF0FF3094
:100AC00070474FF0000070474FEA4102B2F1E04337
:100AD00024BFB3F5001CDCF1FE5C0DD901F0004C25
:100AE0004FEAC0024CEA5070B2F1004F40EB830075
:100AF00008BF20F00100704711F0804F21D113F1A1
:100B00003872BCBF01F00040704741F480114FEAD9
:100B10005252C2F11802C2F1200C10FA0CF320FA62
:100B200002F018BF40F001004FEAC1234FEAD3237F
:100B300003FA0CFC40EA0C0023FA02F34FEA4303E9
:100B4000CCE77FEA625307D150EA01331EBF4FF072
:100B5000FE4040F44000704701F0004040F0FE408D
:100B600040F40000704700BF4FF0FF3C06E000BFBC
:100B70004FF0010C02E000BF4FF0010C4DF804CD26
:100B80004FEA40024FEA41037FEA226C18BF7FEA36
:100B9000236C11D001B052EA530C18BF90EA010F38
:100BA00058BFB2EB030088BFC81738BF6FEAE170C7
:100BB00018BF40F0010070477FEA226C02D15FEA63
:100BC000402C05D17FEA236CE4D15FEA412CE1D0CF
:100BD0005DF8040B704700BF844608466146FFE796
:100BE0000FB5FFF7C9FF002848BF10F1000F0FBD78
:100BF0004DF808EDFFF7F4FF0CBF012000205DF871
:100C000008FB00BF4DF808EDFFF7EAFF34BF0120F5
:100C100000205DF808FB00BF4DF808EDFFF7E0FF8E
:100C200094BF012000205DF808FB00BF4DF808EDDF
:100C3000FFF7D2FF94BF012000205DF808FB00BF42
:100C40004DF808EDFFF7C8FF34BF012000205DF824
:100C500008FB00BF38B505460C4600220023284695
:100C60002146FFF7ABFE28B928462146BDE83840AB
:100C700000F00AB8284604F1004100F005F84042AF
:100C800061EB410138BD00BFD0B500220B4B0646D9
:100C90000F46FFF721FCFFF7F7FE0446FFF7A2FB24
:100CA0000022074BFFF718FC02460B463046394638
:100CB000FFF75AFAFFF7E8FE2146D0BD0000F03DED
:100CC0000000F04180B582B002AF4FF48063009322
:100CD000084B00220849094800F0A8F94FF40063C6
:100CE0000093044B04220449054800F09FF900BF1B
:100CF000BD4680BD00080140E8020020F001002050
:100D00000002002080B582B000AF03460A46FB71A6
:100D10001346BB71FB79013B032B49D801A252F862
:100D200023F000BF350D0008550D0008750D0008B3
:100D3000930D0008214804F06FFDBB791A4602218B
:100D40001F4800F095F9BB791A4602211D4800F0B2
:100D50008FF92EE01C4804F05FFDBB791A46012193
:100D6000174800F085F9BB791A460121154800F0B3
:100D70007FF91EE0154804F04FFDBB791A460221A9
:100D80000F4800F075F9002202210E4800F070F9BA
:100D90000FE00F4804F040FD00220221084800F057
:100DA00067F9BB791A460221064800F061F900E0B4
:100DB00000BF00BF0837BD4680BD00BF509100088E
:100DC000F0010020000200206491000878910008E2
:100DD0008891000880B582B000AF78600B46FB7048
:100DE0007B681B781946274804F0B0FC7B681B78A9
:100DF000013B042B40D801A252F823F0110E000849
:100E0000210E0008370E00084D0E0008630E000882
:100E10001D4804F001FD00210120FFF773FF2CE0C5
:100E20001A4804F0F9FC7B6801331B78194601204D
:100E3000FFF768FF21E0164804F0EEFC7B68013301
:100E40001B7819460220FFF75DFF16E0114804F0F9
:100E5000E3FC7B6801331B7819460320FFF752FF40
:100E60000BE00D4804F0D8FC7B6801331B78194671
:100E70000420FFF747FF00E000BF00BF0837BD4672
:100E800080BD00BF98910008AC910008D091000887
:100E9000F8910008209200084492000880B582B0C2
:100EA00000AF786039607B683A681A607B681B68BD
:100EB00080220449184602F051FF00BF0837BD46A2
:100EC00080BD00BF1002002080B582B000AF786006
:100ED0000B46FB70FB781A4609490A4804F036FCB9
:100EE000FB781946064800F0B1F97B681B68802240
:100EF0000349184602F032FF00BF0837BD4680BDE7
:100F0000100200206892000880B582B000AF7860BF
:100F10000B467B807B681B7E022B3AD17B681B8A49
:100F20007A889A4235D17B68DA687B681B8A1946D1
:100F3000104601F0B5FA0346012B0AD17B681B6805
:100F40001B6800225A627B681B68184601F0ECFFA0
:100F50001FE07B681B681B685B6A1846FFF742FA54
:100F60000FA3D3E90023FFF7B7FA02460B4610465A
:100F70001946FFF7A9FD02467B685A617B681B682A
:100F8000184602F01BF87B6803221A76786800F096
:100F900001F900BF0837BD4680BD00BFAFF3008038
:100FA0009CC420B07268913F80B485B000AFF860F7
:100FB000B9607A607B80FB68BA681A60FB687A68FF
:100FC0005A60FB687A881A81FB68BA69DA60FB6844
:100FD000BA8B1A82FB684FF000025A61FB6800224C
:100FE000DA61FB6800221A62FB6800221A76FB684D
:100FF00000225A7600BF1437BD4680BC70470000FF
:1010000080B584B000AFF860B9607A607B689AB24E
:101010004FF0FF33B968044802F01DFE7B681846A4
:101020001037BD4680BD00BFC003002080B584B02E
:1010300000AFF860B9607A603B60FB68BA681A601C
:10104000FB687A685A60FB683A8B9A81FB683A6859
:101050009A60FB6800229A73FB680122DA73796850
:10106000B86802F029F800BF1037BD4680BD000007
:1010700080B584B000AF78600B46FB701346BB7040
:101080007B68BA789A737B68FA78DA73BB787A6887
:1010900012681268D26A02FB03F33D4AA2FB0323E3
:1010A0005B09FB81FB78012B02D0022B2CD06BE07B
:1010B0007B685B68002B05D17B681B681B68FA891D
:1010C0005A6318E07B685B68042B05D17B681B685A
:1010D0001A68FB8993630EE07B685B68082B05D177
:1010E0007B681B681A68FB89D36304E07B681B6814
:1010F0001A68FB8913647B6898687B689B89002267
:10110000194601F0E4F93FE07B685B68002B0AD1E7
:101110007B681B681B68D96AFA897B681B681B6837
:101120008A1A5A6327E07B685B68042B0AD17B68C4
:101130001B681B68D96AFB897A6812681268CB1A27
:10114000936318E07B685B68082B0AD17B681B6897
:101150001B68D96AFB897A6812681268CB1AD36354
:1011600009E07B681B681B68D96AFB897A6812688A
:101170001268CB1A13647B6898687B689B8901228C
:10118000194601F0A4F900BF00BF1037BD4680BD6D
:101190001F85EB5180B582B000AF78607B681B8AF9
:1011A000042B32D17B685B691846FFF73DF9024694
:1011B0000B46184804F0CAFA7B685B691649184662
:1011C000FFF720FD0346002B04D01E210220FFF76D
:1011D00099FD1AE07B685B690F491846FFF730FDFF
:1011E0000346002B0DD07B685B690C491846FFF75E
:1011F00009FD0346002B04D01E210320FFF782FDCA
:1012000003E01E210120FFF77DFD00BF0837BD462A
:1012100080BD00BF909200080000A0410000C841BE
:1012200080B582B000AF0346FB80074B1B8AFA886B
:101230009A4204D1FB8819460348FFF765FE00BFB8
:101240000837BD4680BD00BF0804002080B582B0CD
:1012500000AF78600B46FB70FB7819467868FFF7A3
:10126000B9FD00BF0837BD4680BD000080B582B023
:1012700000AF78600B467B80084B1B681A687B6860
:101280001B689A4205D17B88DBB219460348FFF7F9
:101290001BFE00BF0837BD4680BD00BF2C040020E8
:1012A00080B582B002AF00F055FD00F043F800F0C9
:1012B00055FA00F085F800F0B9F800F025FA00F0D2
:1012C00061F900F0ABF9FFF7FDFC13491348FFF794
:1012D000E5FD04230193124B00930223104A1149A8
:1012E0001148FFF761FE104B5B7E002BFBD000F036
:1012F00089FD02460D4B1B68D31AB3F5FA7FF2D372
:101300004FF400510A4801F0FAF800F07BFD034663
:10131000064A1360E7E700BFC00300202C0400204A
:1013200000080140300300200804002030040020A1
:101330000010014080B590B000AF07F118032822DB
:101340000021184604F068FB3B1D00221A605A6019
:101350009A60DA601A610123BB614FF48033FB614C
:1013600000233B620123BB6202237B634FF4803383
:10137000BB634FF4E013FB6307F11803184601F059
:10138000EFF80346002B01D000F04AFA0F237B60F0
:101390000223BB600023FB604FF480633B610023AA
:1013A0007B613B1D0221184601F05CFB0346002BCC
:1013B00001D000F035FA00BF4037BD4680BD0000C7
:1013C00080B500AF174B184A1A60164B4FF4827263
:1013D0005A60144B00229A60124B0022DA60114BC3
:1013E00000221A610F4B00225A610E4B4FF400721B
:1013F0009A610C4B2022DA610A4B00221A62094BD7
:1014000000225A62074B00229A62064B0A22DA62D5
:10141000044801F0B5FC0346002B01D000F000FAAF
:1014200000BF80BD900200200030014080B596B022
:1014300000AF07F1480300221A605A609A60DA6030
:1014400007F1400300221A605A6007F124030022CA
:101450001A605A609A60DA601A615A619A613B1D9B
:1014600020220021184604F0D7FA444B444A1A605F
:10147000424B47225A60414B00229A603F4B40F258
:10148000E732DA603D4B00221A613C4B00225A6180
:101490003A4B00229A61394801F0F6FC0346002BD2
:1014A00001D000F0BDF94FF48053BB6407F148034D
:1014B0001946324801F064FF0346002B01D000F0CA
:1014C000AFF92E4801F0A0FD0346002B01D000F03B
:1014D000A7F900233B6400237B6407F1400319460E
:1014E000264802F0B9FA0346002B01D000F098F923
:1014F00060237B620023BB620023FB6200233B630B
:1015000000237B630023BB630023FB6307F12403F9
:1015100000221946194801F071FE0346002B01D044
:1015200000F07EF907F1240304221946134801F064
:1015300065FE0346002B01D000F072F900237B60AA
:101540000023BB600023FB6000233B6100237B6121
:101550004FF40053BB6100233B623B1D1946074813
:1015600002F0D8FA0346002B01D000F059F90348E5
:1015700000F01CFA00BF5837BD4680BDE8020020CD
:10158000002C014080B586B000AF07F108030022AF
:101590001A605A609A60DA603B4600221A605A600C
:1015A0001D4B4FF080421A601B4B47225A601A4B6A
:1015B00000229A60184B4FF6FF72DA60164B002239
:1015C0001A61154B00229A61134801F05DFC034635
:1015D000002B01D000F024F94FF48053BB6007F1D9
:1015E000080319460C4801F0CBFE0346002B01D03E
:1015F00000F016F900233B6000237B603B46194650
:10160000054802F029FA0346002B01D000F008F942
:1016100000BF1837BD4680BD3003002080B58EB0B6
:1016200000AF07F1280300221A605A609A60DA605E
:1016300007F1200300221A605A603B1D00221A6045
:101640005A609A60DA601A615A619A612C4B2D4A8D
:101650001A602B4B00225A60294B00229A60284BBB
:101660004FF6FF72DA60264B00221A61244B0022EB
:101670009A61234801F008FC0346002B01D000F0DA
:10168000CFF84FF48053BB6207F1280319461C487A
:1016900001F076FE0346002B01D000F0C1F8184897
:1016A00001F0B2FC0346002B01D000F0B9F8002392
:1016B0003B6200237B6207F120031946104802F0C9
:1016C000CBF90346002B01D000F0AAF860237B6021
:1016D0000023BB600023FB6000237B613B1D0022D5
:1016E0001946074801F08AFD0346002B01D000F09F
:1016F00097F8034800F05AF900BF3837BD4680BD5F
:10170000780300200004004080B500AF114B124A5E
:101710001A60104B4FF416525A600E4B00229A601A
:101720000C4B0022DA600B4B00221A61094B0C2291
:101730005A61084B00229A61064B0022DA61054883
:1017400002F039FA0346002B01D000F069F800BF1F
:1017500080BD00BFC00300200038014080B588B0C4
:1017600000AF07F1100300221A605A609A60DA6035
:10177000284B9B69274A43F020039361254B9B69C3
:1017800003F02003FB60FB68224B9B69214A43F076
:10179000040393611F4B9B6903F00403BB60BB68A8
:1017A0001C4B9B691B4A43F008039361194B9B69CF
:1017B00003F008037B607B68002240F61A4116485C
:1017C00000F085FE40F61A433B6101237B61002354
:1017D000BB610223FB6107F1100319460E4800F0BC
:1017E000DBFC04233B610D4B7B610023BB6107F1F4
:1017F00010031946084800F0CFFC00220121082000
:1018000000F0E1FB082000F0FAFB00BF2037BD46E6
:1018100080BD00BF001002400008014000003110F0
:1018200080B400AF72B600BFFEE7000080B485B0A0
:1018300000AF154B9B69144A43F001039361124BAF
:101840009B6903F00103BB60BB680F4BDB690E4A69
:1018500043F08053D3610C4BDB6903F080537B6012
:101860007B680A4B5B68FB60FB6823F0E063FB600E
:10187000FB6843F00073FB60044AFB68536000BFE1
:101880001437BD4680BC7047001002400000014084
:1018900080B588B000AF786007F1100300221A60AD
:1018A0005A609A60DA607B681B681B4A93422FD1AA
:1018B0001A4B9B69194A43F480539361174B9B69F8
:1018C00003F48053FB60FB68144B9B69134A43F09D
:1018D00004039361114B9B6903F00403BB60BB6875
:1018E000A0233B6102237B610323FB6107F110030B
:1018F00019460B4800F050FC40233B6100237B61FC
:101900000023BB6107F110031946054800F044FCB1
:1019100000BF2037BD4680BD0030014000100240AE
:101920000008014080B487B000AF78607B681B6816
:101930001B4A93420CD11B4B9B691A4A43F4006328
:101940009361184B9B6903F400637B617B6922E020
:101950007B681B68B3F1804F0CD1124BDB69114AD5
:1019600043F00103D3610F4BDB6903F001033B61DB
:101970003B6910E07B681B680B4A93420BD1094B13
:10198000DB69084A43F00203D361064BDB6903F0CD
:101990000203FB60FB6800BF1C37BD4680BC70477C
:1019A000002C0140001002400004004080B58AB0C5
:1019B00000AF786007F1140300221A605A609A6041
:1019C000DA607B681B68284A934219D1274B9B69D0
:1019D000264A43F004039361244B9B6903F00403FC
:1019E0003B613B694FF440737B610223BB6102237F
:1019F0003B6207F1140319461D4800F0CDFB2EE0B1
:101A00007B681B681B4A934229D1184B9B69174A74
:101A100043F008039361154B9B6903F00803FB60D7
:101A2000FB6810237B610223BB6102233B6207F149
:101A300014031946104800F0AFFB104B5B687B6243
:101A40007B6A23F440637B627B6A43F0E0637B62E2
:101A50007B6A43F400637B62084A7B6A536000BF81
:101A60002837BD4680BD00BF002C01400010024059
:101A70000008014000040040000C0140000001404B
:101A800080B58AB000AF786007F1140300221A60B5
:101A90005A609A60DA607B681B68264A934245D197
:101AA000254B9B69244A43F480439361224B9B69F5
:101AB00003F480433B613B691F4B9B691E4A43F023
:101AC000080393611C4B9B6903F00803FB60FB68F0
:101AD00040237B610223BB6103233B6207F11403B4
:101AE0001946164800F058FB80237B610023BB6138
:101AF0000023FB6107F114031946104800F04CFB6A
:101B00000F4B5B687B627B6A43F0E0637B627B6ABE
:101B100043F004037B620A4A7B6A5360002201217E
:101B2000252000F050FA252000F069FA00BF283780
:101B3000BD4680BD0038014000100240000C01404D
:101B40000000014080B400AFFEE780B400AFFEE7C4
:101B500080B400AFFEE780B400AFFEE780B400AF12
:101B6000FEE780B400AF00BFBD4680BC704780B4C4
:101B700000AF00BFBD4680BC704780B400AF00BF5F
:101B8000BD4680BC704780B500AF00F029F900BFAA
:101B900080BD80B500AF042000F0CAFC00BF80BD4E
:101BA00080B500AF024802F037F900BF80BD00BF2A
:101BB000C003002080B400AF01231846BD4680BC9E
:101BC000704780B582B000AF7860396003F076FF6F
:101BD000034616221A604FF0FF3318460837BD46F9
:101BE00080BD80B582B000AF78604FF0FF3178687B
:101BF000FFF7E7FFFEE780B586B000AFF860B96099
:101C00007A6000237B610AE0AFF300800146BB6885
:101C10005A1CBA60CAB21A707B6901337B617A6957
:101C20007B689A42F0DB7B6818461837BD4680BD5A
:101C300080B483B000AF78604FF0FF3318460C37A4
:101C4000BD4680BC704780B483B000AF7860396017
:101C50003B684FF400525A60002318460C37BD46CB
:101C600080BC704780B483B000AF78600123184611
:101C70000C37BD4680BC704780B485B000AFF860BB
:101C8000B9607A60002318461437BD4680BC70479F
:101C900080B586B000AF7860144A154BD31A7B61CB
:101CA0007B693B61134B1B68002B02D1114B124A1D
:101CB0001A60104B1A687B6813443A699A4207D23B
:101CC00003F0FCFE03460C221A604FF0FF3309E0DC
:101CD000084B1B68FB60074B1A687B681344054A76
:101CE0001360FB6818461837BD4680BD00500020C1
:101CF00000040000340400208805002080B400AFF8
:101D000000BFBD4680BC7047FFF7F8FF0B480C4989
:101D10000C4A002302E0D458C4500433C4188C4247
:101D2000F9D3094A094C002301E013600432A242AE
:101D3000FBD303F0C9FEFFF7B3FA704700000020A1
:101D4000D401002010970008D4010020880500204D
:101D5000FEE7000080B500AF084B1B68074A43F060
:101D600010031360032000F023F90F2000F008F89F
:101D7000FFF75CFD0023184680BD00BF0020024035
:101D800080B582B000AF7860124B1A68124B1B7896
:101D900019464FF47A73B3FBF1F3B2FBF3F3184631
:101DA00000F03BF90346002B01D001230EE07B68D5
:101DB0000F2B0AD8002279684FF0FF3000F003F9AA
:101DC000064A7B681360002300E0012318460837A9
:101DD000BD4680BD00000020080000200400002057
:101DE00080B400AF054B1B781A46054B1B681344A3
:101DF000034A136000BFBD4680BC70470800002046
:101E00003804002080B400AF024B1B681846BD4662
:101E100080BC70473804002080B485B000AF786083
:101E20007B6803F00703FB600C4BDB68BB60BA68A0
:101E30004FF6FF031340BB60FB681A02BB681343F5
:101E400043F0BF6343F40033BB60044ABB68D36014
:101E500000BF1437BD4680BC704700BF00ED00E0F6
:101E600080B400AF044BDB681B0A03F0070318467D
:101E7000BD4680BC704700BF00ED00E080B483B079
:101E800000AF0346FB7197F90730002B0BDBFB79A2
:101E900003F01F02064997F907305B09012000FA99
:101EA00002F241F8232000BF0C37BD4680BC7047CA
:101EB00000E100E080B483B000AF03463960FB71FD
:101EC00097F90730002B0ADB3B68DAB20C4997F927
:101ED00007301201D2B20B4483F800230AE03B68BA
:101EE000DAB20849FB7903F00F03043B1201D2B2C6
:101EF0000B441A7600BF0C37BD4680BC704700BF4C
:101F000000E100E000ED00E080B489B000AFF860CF
:101F1000B9607A60FB6803F00703FB61FB69C3F1FA
:101F20000703042B28BF0423BB61FB690433062B82
:101F300002D9FB69033B00E000237B614FF0FF32D5
:101F4000BB6902FA03F3DA43BB681A407B699A4023
:101F50004FF0FF317B6901FA03F3D9437B680B40F3
:101F6000134318462437BD4680BC704780B582B005
:101F700000AF78607B68013BB3F1807F01D3012320
:101F80000FE00A4A7B68013B53600F214FF0FF309E
:101F9000FFF790FF054B00229A60044B07221A605E
:101FA000002318460837BD4680BD00BF10E000E0A2
:101FB00080B582B000AF78607868FFF72DFF00BF72
:101FC0000837BD4680BD80B586B000AF0346B96016
:101FD0007A60FB7300237B61FFF742FF78617A68C8
:101FE000B9687869FFF790FF024697F90F301146FC
:101FF0001846FFF75FFF00BF1837BD4680BD80B5AC
:1020000082B000AF0346FB7197F907301846FFF71F
:1020100035FF00BF0837BD4680BD80B582B000AF38
:1020200078607868FFF7A2FF034618460837BD4678
:1020300080BD80B485B000AF78600023FB737B68FF
:1020400093F82130DBB2022B08D07B6804229A631C
:102050007B68002283F82020012320E07B681B6836
:102060001A687B681B6822F00E021A607B681B6886
:102070001A687B681B6822F001021A607B681A6C80
:102080007B68DB6B012101FA02F25A607B68012256
:1020900083F821207B68002283F82020FB7B1846F0
:1020A0001437BD4680BC704780B584B000AF7860FF
:1020B0000023FB737B6893F82130DBB2022B05D041
:1020C0007B6804229A630123FB7351E07B681B68E1
:1020D0001A687B681B6822F00E021A607B681B6816
:1020E0001A687B681B6822F001021A607B681B6813
:1020F000224A934229D07B681B68214A934222D00E
:102100007B681B681F4A93421AD07B681B681E4A73
:10211000934212D07B681B681C4A93420AD07B68AA
:102120001B681B4A934202D14FF480130EE04FF01C
:1021300080730BE04FF4803308E04FF4805305E0E8
:102140004FF4807302E0102300E00123114A536032
:102150007B68012283F821207B68002283F82020FD
:102160007B685B6B002B03D07B685B6B7868984760
:10217000FB7B18461037BD4680BD00BF08000240FB
:102180001C0002403000024044000240580002405F
:102190006C0002400000024080B48BB000AF786059
:1021A000396000237B6200233B6269E101227B6A84
:1021B00002FA03F3FB613B681B68FA691340BB61D9
:1021C000BA69FB699A4240F058813B685B689A4A59
:1021D00093425ED0984A934275D8984A934258D019
:1021E000964A93426FD8964A934252D0944A934269
:1021F00069D8944A93424CD0924A934263D8924A07
:10220000934246D0904A93425DD8122B2AD8122B83
:1022100059D801A252F823F0932200086D22000839
:102220007F220008C1220008C7220008C722000838
:10223000C7220008C7220008C7220008C7220008DA
:10224000C7220008C7220008C7220008C7220008CA
:10225000C7220008C7220008C7220008752200080C
:1022600089220008794A934213D02CE03B68DB684E
:102270003B6229E03B68DB6804333B6224E03B6857
:10228000DB6808333B621FE03B68DB680C333B6272
:102290001AE03B689B68002B02D104233B6213E0E9
:1022A0003B689B68012B05D108233B627B68FA6978
:1022B0001A6109E008233B627B68FA695A6103E00E
:1022C00000233B6200E000BFBB69FF2B01D87B68A5
:1022D00001E07B6804337B61BB69FF2B02D87B6A1A
:1022E0009B0002E07B6A083B9B003B617B691A68AC
:1022F0000F213B6901FA03F3DB431A40396A3B695A
:1023000001FA03F31A437B691A603B685B6803F0C8
:102310008053002B00F0B1804D4B9B694C4A43F039
:10232000010393614A4B9B6903F00103BB60BB68E7
:10233000484A7B6A9B08023352F82330FB607B6A71
:1023400003F003039B000F2202FA03F3DB43FA6856
:102350001340FB607B68404A934213D07B683F4A3E
:1023600093420DD07B683E4A934207D07B683D4A3A
:10237000934201D1032306E0042304E0022302E098
:10238000012300E000237A6A02F0030292009340E6
:10239000FA681343FB602F497B6A9B080233FA6893
:1023A00041F823203B685B6803F48013002B06D0C0
:1023B0002D4B9A682C49BB6913438B6006E02A4B6E
:1023C0009A68BB69DB43284913408B603B685B68B4
:1023D00003F40013002B06D0234BDA682249BB69B3
:1023E0001343CB6006E0204BDA68BB69DB431E4930
:1023F0001340CB603B685B6803F40033002B06D0CE
:10240000194B5A681849BB6913434B6006E0164BD9
:102410005A68BB69DB43144913404B603B685B68F7
:1024200003F48033002B21D00F4B1A680E49BB698F
:1024300013430B6021E000BF000032100000311098
:1024400000002210000021100000121000001110E6
:10245000001002400000014000080140000C014053
:102460000010014000140140000401400B4B1A68A9
:10247000BB69DB43094913400B607B6A01337B6214
:102480003B681A687B6A22FA03F3002B7FF48EAE56
:1024900000BF00BF2C37BD4680BC70470004014020
:1024A00080B485B000AF78600B467B807B689A680B
:1024B0007B881340002B02D00123FB7301E0002333
:1024C000FB73FB7B18461437BD4680BC704780B455
:1024D00083B000AF78600B467B8013467B707B78BF
:1024E000002B03D07A887B681A6103E07B881A048A
:1024F0007B681A6100BF0C37BD4680BC704780B452
:1025000085B000AF78600B467B807B68DB68FB6042
:102510007A88FB6813401A04FB68D9437B880B4018
:102520001A437B681A6100BF1437BD4680BC7047F0
:1025300080B582B000AF0346FB80084B5A69FB8828
:102540001340002B06D0054AFB885361FB881846D0
:10255000FEF766FE00BF0837BD4680BD000401409F
:1025600080B586B000AF78607B68002B01D1012375
:1025700072E27B681B6803F00103002B00F0878088
:10258000924B5B6803F00C03042B0CD08F4B5B6801
:1025900003F00C03082B12D18C4B5B6803F48033DF
:1025A000B3F5803F0BD1894B1B6803F40033002B3C
:1025B0006CD07B685B68002B68D101234CE27B68A0
:1025C0005B68B3F5803F06D1804B1B687F4A43F4BC
:1025D000803313602EE07B685B68002B0CD17B4B53
:1025E0001B687A4A23F480331360784B1B68774A60
:1025F00023F4802313601DE07B685B68B3F5A02F94
:102600000CD1724B1B68714A43F4802313606F4BEB
:102610001B686E4A43F4803313600BE06B4B1B68FE
:102620006A4A23F480331360684B1B68674A23F4BB
:10263000802313607B685B68002B13D0FFF7E2FBFD
:10264000386108E0FFF7DEFB02463B69D31A642BD2
:1026500001D9032300E25D4B1B6803F40033002B18
:10266000F0D014E0FFF7CEFB386108E0FFF7CAFBBB
:1026700002463B69D31A642B01D90323ECE1534B87
:102680001B6803F40033002BF0D100E000BF7B682F
:102690001B6803F00203002B63D04C4B5B6803F014
:1026A0000C03002B0BD0494B5B6803F00C03082B89
:1026B0001CD1464B5B6803F48033002B16D1434B8F
:1026C0001B6803F00203002B05D07B681B69012BFC
:1026D00001D00123C0E13D4B1B6823F0F8027B6869
:1026E0005B69DB00394913430B603AE07B681B6987
:1026F000002B20D0364B01221A60FFF783FB386194
:1027000008E0FFF77FFB02463B69D31A022B01D991
:102710000323A1E12D4B1B6803F00203002BF0D033
:102720002A4B1B6823F0F8027B685B69DB002749B2
:1027300013430B6015E0264B00221A60FFF762FB83
:10274000386108E0FFF75EFB02463B69D31A022BB3
:1027500001D9032380E11D4B1B6803F00203002B0A
:10276000F0D17B681B6803F00803002B3AD07B682C
:102770009B69002B19D0174B01221A60FFF742FB0F
:10278000386108E0FFF73EFB02463B69D31A022B93
:1027900001D9032360E10D4B5B6A03F00203002BB8
:1027A000F0D0012000F0CEFA1CE00A4B00221A60A3
:1027B000FFF728FB38610FE0FFF724FB02463B6977
:1027C000D31A022B08D9032346E100BF00100240B0
:1027D0000000424280044242924B5B6A03F00203D3
:1027E000002BE9D17B681B6803F00403002B00F089
:1027F000A6800023FB758B4BDB6903F08053002B15
:102800000DD1884BDB69874A43F08053D361854BF8
:10281000DB6903F08053BB60BB680123FB75824B0F
:102820001B6803F48073002B18D17F4B1B687E4A12
:1028300043F480731360FFF7E5FA386108E0FFF7AF
:10284000E1FA02463B69D31A642B01D9032303E161
:10285000754B1B6803F48073002BF0D07B68DB683A
:10286000012B06D16F4B1B6A6E4A43F001031362C2
:102870002DE07B68DB68002B0CD16A4B1B6A694A30
:1028800023F001031362674B1B6A664A23F00403BB
:1028900013621CE07B68DB68052B0CD1614B1B6A63
:1028A000604A43F0040313625E4B1B6A5D4A43F0C7
:1028B000010313620BE05B4B1B6A5A4A23F00103CE
:1028C0001362584B1B6A574A23F0040313627B6858
:1028D000DB68002B15D0FFF795FA38610AE0FFF7A7
:1028E00091FA02463B69D31A41F28832934201D9E8
:1028F0000323B1E04B4B1B6A03F00203002BEED025
:1029000014E0FFF77FFA38610AE0FFF77BFA02462E
:102910003B69D31A41F28832934201D903239BE0E9
:10292000404B1B6A03F00203002BEED1FB7D012B11
:1029300005D13C4BDB693B4A23F08053D3617B6874
:10294000DB69002B00F08780364B5B6803F00C03DB
:10295000082B61D07B68DB69022B46D1334B002208
:102960001A60FFF74FFA386108E0FFF74BFA0246AA
:102970003B69D31A022B01D903236DE0294B1B6855
:1029800003F00073002BF0D17B681B6AB3F5803F26
:1029900008D1244B5B6823F400327B689B68214993
:1029A00013434B601F4B5B6823F474127B68196AF6
:1029B0007B685B6A0B431B4913434B601B4B012233
:1029C0001A60FFF71FFA386108E0FFF71BFA0246AA
:1029D0003B69D31A022B01D903233DE0114B1B683D
:1029E00003F00073002BF0D035E0104B00221A608A
:1029F000FFF708FA386108E0FFF704FA02463B697E
:102A0000D31A022B01D9032326E0064B1B6803F0DF
:102A10000073002BF0D11EE07B68DB69012B07D12E
:102A2000012319E0001002400070004060004242A3
:102A30000B4B5B68FB60FB6803F480327B681B6AAE
:102A40009A4206D1FB6803F470127B685B6A9A4273
:102A500001D0012300E0002318461837BD4680BD91
:102A60000010024080B584B000AF786039607B68A8
:102A7000002B01D10123D0E06A4B1B6803F0070350
:102A80003A689A4210D9674B1B6823F007026549E0
:102A90003B6813430B60634B1B6803F007033A6802
:102AA0009A4201D00123B8E07B681B6803F002035F
:102AB000002B20D07B681B6803F00403002B05D09B
:102AC000594B5B68584A43F4E06353607B681B686A
:102AD00003F00803002B05D0534B5B68524A43F4C4
:102AE00060535360504B5B6823F0F0027B689B6837
:102AF0004D4913434B607B681B6803F00103002BB7
:102B000040D07B685B68012B07D1474B1B6803F4FF
:102B10000033002B15D101237FE07B685B68022B1B
:102B200007D1414B1B6803F00073002B09D101232F
:102B300073E03D4B1B6803F00203002B01D101231E
:102B40006BE0394B5B6823F003027B685B683649B6
:102B500013434B60FFF756F9F8600AE0FFF752F9AC
:102B60000246FB68D31A41F28832934201D903230B
:102B700053E02D4B5B6803F00C027B685B689B00A5
:102B80009A42EBD1274B1B6803F007033A689A423D
:102B900010D2244B1B6823F0070222493B681343E1
:102BA0000B60204B1B6803F007033A689A4201D080
:102BB000012332E07B681B6803F00403002B08D07C
:102BC000194B5B6823F4E0627B68DB6816491343AA
:102BD0004B607B681B6803F00803002B09D0124B85
:102BE0005B6823F460527B681B69DB000E4913436A
:102BF0004B6000F021F802460B4B5B681B0903F0A9
:102C00000F030A49CB5C22FA03F3094A1360094B0C
:102C10001B681846FFF7B4F8002318461037BD4666
:102C200080BD00BF0020024000100240B4920008A6
:102C3000000000200400002080B487B000AF002313
:102C4000FB600023BB6000237B6100237B600023CB
:102C50003B611E4B5B68FB60FB6803F00C03042BBD
:102C600002D0082B03D027E0194B3B6127E0FB681B
:102C70009B0C03F00F03174AD35C7B60FB6803F4E3
:102C80008033002B10D0114B5B685B0C03F0010309
:102C9000114AD35CBB607B680D4A03FB02F2BB6840
:102CA000B2FBF3F37B6104E07B680C4A02FB03F3A5
:102CB0007B617B693B6102E0054B3B6100BF3B6987
:102CC00018461C37BD4680BC704700BF001002404C
:102CD00000127A00CC920008DC92000800093D0046
:102CE00080B400AF024B1B681846BD4680BC7047DD
:102CF0000000002080B500AFFFF7F2FF0246054B51
:102D00005B681B0A03F007030349CB5C22FA03F359
:102D1000184680BD00100240C492000880B500AF84
:102D2000FFF7DEFF0246054B5B68DB0A03F0070393
:102D30000349CB5C22FA03F3184680BD0010024021
:102D4000C492000880B485B000AF78600A4B1B685D
:102D50000A4AA2FB03235B0A7A6802FB03F3FB60C7
:102D600000BFFB685A1EFA60002BF9D100BF00BFFC
:102D70001437BD4680BC704700000020D34D621060
:102D800080B582B000AF78607B68002B01D1012351
:102D900076E07B685B6A002B08D17B685B68B3F5E3
:102DA000827F09D07B680022DA6105E07B6800221F
:102DB0001A617B6800225A617B6800229A627B68F4
:102DC00093F85130DBB2002B06D17B68002283F8E8
:102DD00050207868FEF75CFD7B68022283F8512062
:102DE0007B681B681A687B681B6822F040021A60C7
:102DF0007B685B6803F482727B689B6803F404431E
:102E00001A437B68DB6803F400631A437B681B6921
:102E100003F002031A437B685B6903F001031A4362
:102E20007B689B6903F400731A437B68DB6903F0DA
:102E300038031A437B681B6A03F0800342EA0301EC
:102E40007B689B6A03F400527B681B680A431A6024
:102E50007B689B691A0C7B681B6802F004025A604D
:102E60007B681B68DA697B681B6822F40062DA61A0
:102E70007B6800225A657B68012283F85120002379
:102E800018460837BD4680BD80B582B000AF786077
:102E90007B68002B01D1012341E07B6893F83D3032
:102EA000DBB2002B06D17B68002283F83C207868D7
:102EB000FEF738FD7B68022283F83D207B681A68A4
:102EC0007B6804331946104600F022FB7B68012220
:102ED00083F846207B68012283F83E207B6801222C
:102EE00083F83F207B68012283F840207B68012221
:102EF00083F841207B68012283F842207B6801220D
:102F000083F843207B68012283F844207B680122F8
:102F100083F845207B68012283F83D200023184672
:102F20000837BD4680BD000080B485B000AF786032
:102F30007B6893F83D30DBB2012B01D0012332E0F6
:102F40007B68022283F83D207B681B68184A934205
:102F50000ED07B681B68B3F1804F09D07B681B687B
:102F6000144A934204D07B681B68134A934211D1E0
:102F70007B681B689B6803F00703FB60FB68062BFC
:102F800010D07B681B681A687B681B6842F00102DE
:102F90001A6007E07B681B681A687B681B6842F050
:102FA00001021A60002318461437BD4680BC7047E2
:102FB000002C0140000400400008004080B483B0B1
:102FC00000AF78607B681B681A6A41F211131340E6
:102FD000002B0FD17B681B681A6A40F244431340F0
:102FE000002B07D17B681B681A687B681B6822F07E
:102FF00001021A607B68012283F83D2000231846F5
:103000000C37BD4680BC704780B582B000AF786099
:103010007B68002B01D1012341E07B6893F83D30B0
:10302000DBB2002B06D17B68002283F83C20786855
:1030300000F039F87B68022283F83D207B681A682B
:103040007B6804331946104600F062FA7B6801225F
:1030500083F846207B68012283F83E207B680122AA
:1030600083F83F207B68012283F840207B6801229F
:1030700083F841207B68012283F842207B6801228B
:1030800083F843207B68012283F844207B68012277
:1030900083F845207B68012283F83D2000231846F1
:1030A0000837BD4680BD80B483B000AF786000BFF4
:1030B0000C37BD4680BC704780B584B000AF7860E7
:1030C00039603B68002B09D17B6893F83E30DBB256
:1030D000012B14BF01230023DBB222E03B68042B49
:1030E00009D17B6893F83F30DBB2012B14BF012379
:1030F0000023DBB215E03B68082B09D17B6893F80D
:103100004030DBB2012B14BF01230023DBB208E007
:103110007B6893F84130DBB2012B14BF01230023FD
:10312000DBB2002B01D001235EE03B68002B04D111
:103130007B68022283F83E2013E03B68042B04D115
:103140007B68022283F83F200BE03B68082B04D108
:103150007B68022283F8402003E07B68022283F828
:1031600041207B681B6801223968184600F050FC3A
:103170007B681B681E4A934207D17B681B685A6CA8
:103180007B681B6842F400425A647B681B68184ADB
:1031900093420ED07B681B68B3F1804F09D07B68E7
:1031A0001B68144A934204D07B681B68124A9342FE
:1031B00011D17B681B689B6803F00703FB60FB6809
:1031C000062B10D07B681B681A687B681B6842F06E
:1031D00001021A6007E07B681B681A687B681B683D
:1031E00042F001021A60002318461037BD4680BD28
:1031F000002C0140000400400008004080B586B06B
:1032000000AFF860B9607A600023FB75FB6893F843
:103210003C30012B01D10223AEE0FB68012283F890
:103220003C207B680C2B00F29F8001A252F823F017
:103230006532000869330008693300086933000803
:10324000A5320008693300086933000869330008B3
:10325000E732000869330008693300086933000861
:1032600027330008FB681B68B968184600F0B2F9FC
:10327000FB681B689A69FB681B6842F008029A6148
:10328000FB681B689A69FB681B6822F004029A615C
:10329000FB681B689969BB681A69FB681B680A436D
:1032A0009A6164E0FB681B68B968184600F0F8F999
:1032B000FB681B689A69FB681B6842F400629A61AC
:1032C000FB681B689A69FB681B6822F480629A613C
:1032D000FB681B689969BB681B691A02FB681B685D
:1032E0000A439A6143E0FB681B68B968184600F01E
:1032F00041FAFB681B68DA69FB681B6842F0080248
:10330000DA61FB681B68DA69FB681B6822F004025B
:10331000DA61FB681B68D969BB681A69FB681B68BE
:103320000A43DA6123E0FB681B68B968184600F0BD
:103330008BFAFB681B68DA69FB681B6842F4006261
:10334000DA61FB681B68DA69FB681B6822F480623B
:10335000DA61FB681B68D969BB681B691A02FB68E4
:103360001B680A43DA6102E00123FB7500BFFB68BA
:10337000002283F83C20FB7D18461837BD4680BDEF
:1033800080B584B000AF786039600023FB737B6840
:1033900093F83C30012B01D10223B4E07B68012279
:1033A00083F83C207B68022283F83D207B681B6801
:1033B0009B68BB60BB6823F07703BB60BB6823F4EA
:1033C0007F43BB607B681B68BA689A603B681B6878
:1033D000B3F5005F3ED0B3F5005F00F28780B3F530
:1033E000805F00F08680B3F5805F7FD8702B1AD0A5
:1033F000702B7BD8602B50D0602B77D8502B3CD0D3
:10340000502B73D8402B58D0402B6FD8302B64D022
:10341000302B6BD8202B60D0202B67D8002B5CD0B2
:10342000102B5AD062E07B6818683B6899683B684B
:103430005A683B68DB6800F0CCFA7B681B689B68C5
:10344000BB60BB6843F07703BB607B681B68BA68EE
:103450009A604FE07B6818683B6899683B685A68D7
:103460003B68DB6800F0B5FA7B681B689A687B688C
:103470001B6842F480429A603CE07B6818683B68B5
:1034800059683B68DB681A4600F02CFA7B681B68B9
:103490005021184600F083FA2CE07B6818683B68DE
:1034A00059683B68DB681A4600F04AFA7B681B687B
:1034B0006021184600F073FA1CE07B6818683B68CE
:1034C00059683B68DB681A4600F00CFA7B681B6899
:1034D0004021184600F063FA0CE07B681A683B68EC
:1034E0001B681946104600F05AFA03E00123FB73EB
:1034F00000E000BF7B68012283F83D207B6800224A
:1035000083F83C20FB7B18461037BD4680BD000089
:1035100080B485B000AF786039607B681B68FB6061
:103520007B68294A93420BD07B68B3F1804F07D068
:103530007B68264A934203D07B68254A934208D190
:10354000FB6823F07003FB603B685B68FA68134319
:10355000FB607B681C4A93420BD07B68B3F1804FC1
:1035600007D07B68194A934203D07B68184A93427C
:1035700008D1FB6823F44073FB603B68DB68FA68A2
:103580001343FB60FB6823F080023B685B691343D5
:10359000FB607B68FA681A603B689A687B68DA624D
:1035A0003B681A687B689A627B68074A934203D13A
:1035B0003B681A697B681A637B6801225A6100BF05
:1035C0001437BD4680BC7047002C01400004004009
:1035D0000008004080B487B000AF786039607B6835
:1035E0001B6A7B617B681B6A23F001027B681A629D
:1035F0007B685B683B617B689B69FB60FB6823F0D1
:103600007003FB60FB6823F00303FB603B681B68EF
:10361000FA681343FB607B6923F002037B613B681C
:103620009B687A6913437B617B681C4A93420CD187
:103630007B6923F008037B613B68DB687A6913438D
:103640007B617B6923F004037B617B68134A9342AF
:1036500011D13B6923F480733B613B6923F4007310
:103660003B613B685B693A6913433B613B689B691B
:103670003A6913433B617B683A695A607B68FA6830
:103680009A613B685A687B685A637B687A691A62F8
:1036900000BF1C37BD4680BC704700BF002C0140F6
:1036A00080B487B000AF786039607B681B6A7B614B
:1036B0007B681B6A23F010027B681A627B685B6878
:1036C0003B617B689B69FB60FB6823F4E043FB6024
:1036D000FB6823F44073FB603B681B681B02FA68BD
:1036E0001343FB607B6923F020037B613B689B688D
:1036F0001B017A6913437B617B681D4A93420DD19C
:103700007B6923F080037B613B68DB681B017A697E
:1037100013437B617B6923F040037B617B68144A20
:10372000934213D13B6923F480633B613B6923F4EB
:1037300000633B613B685B699B003A6913433B61F3
:103740003B689B699B003A6913433B617B683A691C
:103750005A607B68FA689A613B685A687B689A632A
:103760007B687A691A6200BF1C37BD4680BC70470F
:10377000002C014080B487B000AF786039607B686E
:103780001B6A7B617B681B6A23F480727B681A6208
:103790007B685B683B617B68DB69FB60FB6823F0EF
:1037A0007003FB60FB6823F00303FB603B681B684E
:1037B000FA681343FB607B6923F400737B613B6809
:1037C0009B681B027A6913437B617B681D4A9342A5
:1037D0000DD17B6923F400637B613B68DB681B02CE
:1037E0007A6913437B617B6923F480637B617B6827
:1037F000144A934213D13B6923F480533B613B69E4
:1038000023F400533B613B685B691B013A69134336
:103810003B613B689B691B013A6913433B617B68D1
:103820003A695A607B68FA68DA613B685A687B6873
:10383000DA637B687A691A6200BF1C37BD4680BCB8
:10384000704700BF002C014080B487B000AF7860A3
:1038500039607B681B6A3B617B681B6A23F480527A
:103860007B681A627B685B687B617B68DB69FB60F5
:10387000FB6823F4E043FB60FB6823F44073FB60C8
:103880003B681B681B02FA681343FB603B6923F427
:1038900000533B613B689B681B033A6913433B61E0
:1038A0007B680F4A934209D17B6923F480437B6193
:1038B0003B685B699B017A6913437B617B687A692A
:1038C0005A607B68FA68DA613B685A687B681A64F8
:1038D0007B683A691A6200BF1C37BD4680BC7047DE
:1038E000002C014080B487B000AFF860B9607A6006
:1038F000FB681B6A7B61FB681B6A23F00102FB68A3
:103900001A62FB689B693B613B6923F0F0033B61F2
:103910007B681B013A6913433B617B6923F00A030F
:103920007B617A69BB6813437B61FB683A699A6182
:10393000FB687A691A6200BF1C37BD4680BC7047BD
:1039400080B487B000AFF860B9607A60FB681B6A2A
:103950007B61FB681B6A23F01002FB681A62FB683C
:103960009B693B613B6923F470433B617B681B03AC
:103970003A6913433B617B6923F0A0037B61BB6819
:103980001B017A6913437B61FB683A699A61FB68A2
:103990007A691A6200BF1C37BD4680BC704780B48C
:1039A00085B000AF786039607B689B68FB60FB681E
:1039B00023F07003FB603A68FB68134343F007038E
:1039C000FB607B68FA689A6000BF1437BD4680BC14
:1039D000704780B487B000AFF860B9607A603B6030
:1039E000FB689B687B617B6923F47F437B613B6859
:1039F0001A027B681A43BB6813437A6913437B61DD
:103A0000FB687A699A6000BF1C37BD4680BC70476E
:103A100080B487B000AFF860B9607A60BB6803F02B
:103A20001F03012202FA03F37B61FB681A6A7B69B8
:103A3000DB431A40FB681A62FB681A6ABB6803F032
:103A40001F03796801FA03F31A43FB681A6200BF87
:103A50001C37BD4680BC704780B485B000AF78602D
:103A600039607B6893F83C30012B01D1022346E09A
:103A70007B68012283F83C207B68022283F83D208A
:103A80007B681B685B68FB607B681B689B68BB602E
:103A9000FB6823F07003FB603B681B68FA68134304
:103AA000FB607B681B68FA685A607B681B68164A73
:103AB00093420ED07B681B68B3F1804F09D07B68BE
:103AC0001B68124A934204D07B681B68104A9342D9
:103AD0000CD1BB6823F08003BB603B685B68BA68AD
:103AE0001343BB607B681B68BA689A607B680122DD
:103AF00083F83D207B68002283F83C200023184691
:103B00001437BD4680BC7047002C014000040040C3
:103B10000008004080B485B000AF786039600023B1
:103B2000FB607B6893F83C30012B01D102233DE020
:103B30007B68012283F83C20FB6823F0FF023B688E
:103B4000DB681343FB60FB6823F440723B689B68AF
:103B50001343FB60FB6823F480623B685B6813439C
:103B6000FB60FB6823F400623B681B681343FB6047
:103B7000FB6823F480523B681B691343FB60FB68BE
:103B800023F400523B685B691343FB60FB6823F43A
:103B900080423B68DB691343FB607B681B68FA6803
:103BA0005A647B68002283F83C20002318461437AF
:103BB000BD4680BC704780B582B000AF78607B683E
:103BC000002B01D1012342E07B6893F84130DBB246
:103BD000002B06D17B68002283F840207868FDF72F
:103BE0004FFF7B68242283F841207B681B68DA68DA
:103BF0007B681B6822F40052DA60786800F0FCFDF4
:103C00007B681B681A697B681B6822F490421A6102
:103C10007B681B685A697B681B6822F02A025A611C
:103C20007B681B68DA687B681B6842F40052DA60C4
:103C30007B6800225A647B68202283F841207B68DD
:103C4000202283F842207B6800225A630023184612
:103C50000837BD4680BD80B58AB002AFF860B96054
:103C60003B601346FB8000237B61FB6893F8413087
:103C7000DBB2202B6DD1BB68002B02D0FB88002B60
:103C800001D1012366E0FB6800225A64FB6821220F
:103C900083F84120FEF7B6F87861FB68FA889A84C9
:103CA000FB68FA88DA84FB689B68B3F5805F08D10B
:103CB000FB681B69002B04D10023FB61BB68BB615F
:103CC00003E0BB68FB610023BB612AE03B68009313
:103CD0007B6900228021F86800F04BFB0346002B33
:103CE00001D0032336E0FB69002B0BD1BB691B8895
:103CF0001A46FB681B68C2F308025A60BB690233AC
:103D0000BB6107E0FB691A78FB681B685A60FB69B6
:103D10000133FB61FB68DB8C9BB2013B9AB2FB6811
:103D2000DA84FB68DB8C9BB2002BCFD13B6800931D
:103D30007B6900224021F86800F01BFB0346002B42
:103D400001D0032306E0FB68202283F841200023F2
:103D500000E0022318462037BD4680BD80B58CB0F8
:103D600000AFF860B9601346FB80FB6893F84230FF
:103D7000DBB2202B4AD1BB68002B02D0FB88002B82
:103D800001D1012343E0FB6801221A63FB68002292
:103D90005A63FB881A46B968F86800F058FB034676
:103DA00087F82F3097F82F30002B2CD1FB681B6B36
:103DB000012B25D100233B61FB681B681B683B611D
:103DC000FB681B685B683B613B69FB681B680C33E5
:103DD000BB61BB6953E8003F7B617B6943F0100323
:103DE000BB62FB681B680C33BA6A7A623B62396A51
:103DF0007A6A41E80023FB61FB69002BE5D102E010
:103E0000012387F82F3097F82F3000E0022318465F
:103E10003037BD4680BD000080B5BAB000AF7860D5
:103E20007B681B681B68C7F8E4307B681B68DB682D
:103E3000C7F8E0307B681B685B69C7F8DC3000239B
:103E4000C7F8D8300023C7F8D430D7F8E43003F0EF
:103E50000F03C7F8D830D7F8D830002B0FD1D7F8D8
:103E6000E43003F02003002B09D0D7F8E03003F052
:103E70002003002B03D0786800F0FFFB5BE2D7F84B
:103E8000D830002B00F0DE80D7F8DC3003F00103DF
:103E9000002B06D1D7F8E03003F49073002B00F02C
:103EA000D180D7F8E43003F00103002B0BD0D7F812
:103EB000E03003F48073002B05D07B685B6C43F02B
:103EC00001027B685A64D7F8E43003F00403002B46
:103ED0000BD0D7F8DC3003F00103002B05D07B6852
:103EE0005B6C43F002027B685A64D7F8E43003F05D
:103EF0000203002B0BD0D7F8DC3003F00103002BBA
:103F000005D07B685B6C43F004027B685A64D7F889
:103F1000E43003F00803002B11D0D7F8E03003F0B1
:103F20002003002B05D1D7F8DC3003F00103002B70
:103F300005D07B685B6C43F008027B685A647B6841
:103F40005B6C002B00F0F281D7F8E43003F0200323
:103F5000002B08D0D7F8E03003F02003002B02D06C
:103F6000786800F08AFB7B681B685B6903F040039C
:103F7000002B14BF01230023DBB2C7F8D4307B68C9
:103F80005B6C03F00803002B03D1D7F8D430002B6F
:103F90004FD0786800F094FA7B681B685B6903F087
:103FA0004003002B41D07B681B681433C7F89C305A
:103FB000D7F89C3053E8003FC7F89830D7F89830CE
:103FC00023F04003C7F8D0307B681B681433D7F860
:103FD000D020C7F8A820C7F8A430D7F8A410D7F885
:103FE000A82041E80023C7F8A030D7F8A030002B64
:103FF000D9D17B68DB6B002B13D07B68DB6B7E4AEF
:104000005A637B68DB6B1846FEF74EF80346002BBD
:1040100016D07B68DB6B5B6B7A68D26B1046984777
:104020000EE0786800F09CF90AE0786800F098F9F2
:1040300006E0786800F094F97B6800225A6475E124
:1040400000BF73E17B681B6B012B40F04F81D7F8F9
:10405000E43003F01003002B00F04881D7F8E03083
:1040600003F01003002B00F041810023BB607B684C
:104070001B681B68BB607B681B685B68BB60BB68B8
:104080007B681B685B6903F04003002B00F0B6807F
:104090007B68DB6B1B685B68A7F8BE30B7F8BE3087
:1040A000002B00F045817B689B8DB7F8BE209A42BB
:1040B00080F03E817B68B7F8BE20DA857B68DB6BD9
:1040C0009B69202B00F088807B681B680C33C7F845
:1040D0008830D7F8883053E8003FC7F88430D7F8E5
:1040E000843023F48073C7F8B8307B681B680C33C6
:1040F000D7F8B820C7F89420C7F89030D7F89010B8
:10410000D7F8942041E80023C7F88C30D7F88C30DA
:10411000002BD9D17B681B6814337B677B6F53E816
:10412000003F3B673B6F23F00103C7F8B4307B6867
:104130001B681433D7F8B420C7F88020FB67F96FE9
:10414000D7F8802041E80023BB67BB6F002BE1D18B
:104150007B681B6814333B663B6E53E8003FFB658E
:10416000FB6D23F04003C7F8B0307B681B68143345
:10417000D7F8B020FA66BB66B96EFA6E41E8002344
:104180007B667B6E002BE3D17B68202283F8422084
:104190007B6800221A637B681B680C33FB64FB6C32
:1041A00053E8003FBB64BB6C23F01003C7F8AC308E
:1041B0007B681B680C33D7F8AC20BA657B65796DDA
:1041C000BA6D41E800233B653B6D002BE3D17B6872
:1041D000DB6B1846FDF72DFF7B6802225A637B6874
:1041E0009A8D7B68DB8D9BB2D31A9BB21946786897
:1041F000FDF73CF89CE000BF854500087B689A8D80
:104200007B68DB8D9BB2D31AA7F8CE307B68DB8D41
:104210009BB2002B00F08E80B7F8CE30002B00F060
:1042200089807B681B680C33BB63BB6B53E8003F22
:104230007B637B6B23F49073C7F8C8307B681B6883
:104240000C33D7F8C8207A643B64396C7A6C41E847
:104250000023FB63FB6B002BE3D17B681B681433EB
:104260007B627B6A53E8003F3B623B6A23F00103B9
:10427000C7F8C4307B681B681433D7F8C4203A638E
:10428000FB62F96A3A6B41E80023BB62BB6A002B10
:10429000E3D17B68202283F842207B6800221A63E6
:1042A0007B681B680C333B613B6953E8003FFB6054
:1042B000FB6823F01003C7F8C0307B681B680C3321
:1042C000D7F8C020FA61BB61B969FA6941E80023F7
:1042D0007B617B69002BE3D17B6802225A63B7F8CC
:1042E000CE3019467868FCF7C1FF23E0D7F8E430F8
:1042F00003F08003002B09D0D7F8E03003F08003EF
:10430000002B03D0786800F051F914E0D7F8E430BE
:1043100003F04003002B0ED0D7F8E03003F0400349
:10432000002B08D0786800F090F904E000BF02E0AC
:1043300000BF00E000BFE837BD4680BD80B483B059
:1043400000AF786000BF0C37BD4680BC704780B4BA
:1043500083B000AF786000BF0C37BD4680BC7047AB
:1043600080B483B000AF786000BF0C37BD4680BC1E
:10437000704780B590B000AFF860B9603B601346FD
:10438000FB7150E0BB6CB3F1FF3F4CD0BB6C002B1A
:1043900007D0FDF737FD02463B68D31ABA6C9A4244
:1043A00041D2FB681B680C33BB62BB6A53E8003F19
:1043B0007B627B6A23F4D073FB63FB681B680C335E
:1043C000FA6B7A633B63396B7A6B41E80023FB62DB
:1043D000FB6A002BE5D1FB681B6814337B617B69AA
:1043E00053E8003F3B613B6923F00103BB63FB687B
:1043F0001B681433BA6B3A62FB61F9693A6A41E8A7
:104400000023BB61BB69002BE5D1FB68202283F848
:104410004120FB68202283F84220FB68002283F8B9
:10442000402003230FE0FB681B681A68BB68134039
:10443000BA689A420CBF01230023DBB21A46FB790B
:104440009A429FD0002318464037BD4680BD80B4B5
:1044500085B000AFF860B9601346FB80FB68BA68AE
:104460009A62FB68FA889A85FB68FA88DA85FB68A5
:1044700000225A64FB68222283F84220FB681B69F1
:10448000002B07D0FB681B68DA68FB681B6842F4E6
:104490008072DA60FB681B685A69FB681B6842F02F
:1044A00001025A61FB681B68DA68FB681B6842F00E
:1044B0002002DA60002318461437BD4680BC7047DE
:1044C00080B495B000AF78607B681B680C337B6369
:1044D0007B6B53E8003F3B633B6B23F49073FB64BF
:1044E0007B681B680C33FA6C3A64FB63F96B3A6CBB
:1044F00041E80023BB63BB6B002BE5D17B681B68E5
:1045000014333B623B6A53E8003FFB61FB6923F0D5
:104510000103BB647B681B681433BA6CFA62BB622C
:10452000B96AFA6A41E800237B627B6A002BE5D115
:104530007B681B6B012B19D17B681B680C33FB60FC
:10454000FB6853E8003FBB60BB6823F010037B644B
:104550007B681B680C337A6CBA617B617969BA69D4
:1045600041E800233B613B69002BE5D17B682022B9
:1045700083F842207B6800221A6300BF5437BD468F
:1045800080BC704780B584B000AF78607B685B6AA0
:10459000FB60FB680022DA85FB680022DA84F86899
:1045A000FFF7DEFE00BF1037BD4680BD80B485B08A
:1045B00000AF78607B6893F84130DBB2212B3ED1AD
:1045C0007B689B68B3F5805F14D17B681B69002B07
:1045D00010D17B681B6AFB60FB681B881A467B68EE
:1045E0001B68C2F308025A607B681B6A9A1C7B68CE
:1045F0001A6208E07B681B6A591C7A6811621A7893
:104600007B681B685A607B68DB8C9BB2013B9BB26A
:104610007A681946D184002B0FD17B681B68DA6851
:104620007B681B6822F08002DA607B681B68DA68AE
:104630007B681B6842F04002DA60002300E002233E
:1046400018461437BD4680BC704780B582B000AFB5
:1046500078607B681B68DA687B681B6822F0400220
:10466000DA607B68202283F841207868FFF766FED5
:10467000002318460837BD4680BD80B58CB000AF1A
:1046800078607B6893F84230DBB2222B40F0AE803A
:104690007B689B68B3F5805F17D17B681B69002B33
:1046A00013D10023FB627B689B6ABB627B681B683B
:1046B0005B689BB2C3F308039AB2BB6A1A807B683B
:1046C0009B6A9A1C7B689A6226E07B689B6AFB6205
:1046D0000023BB627B689B68B3F5805F07D07B6873
:1046E0009B68002B0AD17B681B69002B06D17B6875
:1046F0001B685B68DAB2FB6A1A7008E07B681B68AB
:104700005B68DBB203F07F03DAB2FB6A1A707B6886
:104710009B6A5A1C7B689A627B68DB8D9BB2013B6B
:104720009BB27A681946D185002B5DD17B681B68E6
:10473000DA687B681B6822F02002DA607B681B68FD
:10474000DA687B681B6822F48072DA607B681B6819
:104750005A697B681B6822F001025A617B6820223B
:1047600083F842207B6800225A637B681B6B012B15
:1047700035D17B6800221A637B681B680C337B6130
:104780007B6953E8003F3B613B6923F010037B6288
:104790007B681B680C337A6A3A62FB61F9693A6A92
:1047A00041E80023BB61BB69002BE5D17B681B6836
:1047B0001B6803F01003102B0AD10023FB607B68F9
:1047C0001B681B68FB607B681B685B68FB60FB68A1
:1047D0007B689B8D19467868FCF748FD02E0786895
:1047E000FFF7B5FD002302E0002300E00223184696
:1047F0003037BD4680BD000080B584B000AF786022
:104800007B681B681B6923F440517B68DA687B680E
:104810001B680A431A617B689A687B681B691A43A4
:104820007B685B691343BB607B681B68DB6823F4B0
:10483000B05323F00C037A681268B9680B43D36055
:104840007B681B685B6923F440717B689A697B68AD
:104850001B680A435A617B681B682C4A934203D148
:10486000FEF75CFAF86002E0FEF744FAF860FA68D6
:1048700013469B0013449A001A447B685B689B00B4
:10488000B2FBF3F3224AA2FB03235B091901FA6886
:1048900013469B0013449A001A447B685B689B0094
:1048A000B2FBF3F21A4BA3FB02035B09642000FB8B
:1048B00003F3D31A1B013233154AA2FB03235B090E
:1048C00003F0F0031944FA6813469B0013449A005E
:1048D0001A447B685B689B00B2FBF3F20C4BA3FBB2
:1048E00002035B09642000FB03F3D31A1B0132337C
:1048F000074AA2FB03235B0903F00F027B681B68D6
:104900000A449A6000BF1037BD4680BD00380140A0
:104910001F85EB51002B2DE9F0471F46BBBF03F16C
:1049200000431F4600232D2388B01446129A109D81
:104930001370149BDDF84CA023F02008B8F1460F4B
:1049400005D0B8F1450F00D10135022300E0032363
:1049500007AA049206AACDE902A2CDE900352246B3
:104960003B4601F075F9B8F1470F064602D1119B9D
:10497000DB0722D5B8F1460F06EB050910D13378D5
:10498000302B0AD10022002320463946FCF70CF8D0
:1049900018B9C5F10105CAF80050DAF80030994499
:1049A0000022002320463946FBF7FEFF08B1CDF870
:1049B0001C903022079B4B4507D33046079B159A26
:1049C0009B1B136008B0BDE8F087591C07911A7053
:1049D000F0E70346F7B5002903F8022BB6BF2D22F6
:1049E0002B224942092942702ADD0DF107021746A0
:1049F0000A2691FBF6F5944606FB151430340CF8A4
:104A0000014C0C46632C294602F1FF32F1DC3031B7
:104A1000ACF1020402F8011C2246411CBA420AD33E
:104A20000DF10902A2EB0C02BC4288BF0022134424
:104A3000181A03B0F0BD12F8015B01F8015FEDE751
:104A4000302330318370C170031DF1E72DE9F04F41
:104A500091B00C46DDF8688016461F46054600F00A
:104A6000E3FF036818460993FBF772FB00230E93DC
:104A7000D8F800300A90073323F0070303F1080247
:104A800094F81890D4F800B0C8F80020D3E900A832
:104A900052464346C4E9122328F000430B934FF0DB
:104AA000FF3250469C4B0B99FBF7B0FF70BB4FF0A9
:104AB000FF325046984B0B99FBF78AFF30BB002220
:104AC000002350464146FBF779FF10B12D2384F8AF
:104AD0004330924A924BB9F1470F94BF90469846A3
:104AE00003234FF0000A23612BF0040323603346B5
:104AF0002146284600970FAA00F0D6F9013040F071
:104B000090804FF0FF3011B0BDE8F08F5246434621
:104B100050464146FBF77AFF48B1B8F1000FB8BFE5
:104B20002D23804AB8BF84F843307F4BD3E76368B6
:104B300009F0DF015A1C42D106236360002206926D
:104B40000EAACDE904920DAA4BF4806303920DF1F5
:104B50003302CDE901322360636852460093284650
:104B600043460B91FFF7D6FE0B99804647290D99D6
:104B700008D1C81C02DB6368994240DDA9F1020933
:104B80005FFA89F9B9F1650F1FD84A46013904F176
:104B900050000D91FFF71DFF0E9A82461318012A4F
:104BA000236102DC2268D20701D5013323619DF81D
:104BB0003330002B9BD02D2384F8433097E74729CF
:104BC000BCD1002BBAD10123B7E7B9F1660F18D1D8
:104BD000002963680BDD216113B92268D00702D573
:104BE00001330B4423614FF0000AA165DFE713B9DD
:104BF0002268D20701D50233F4E70123F2E74FF030
:104C000067090E9B994205DB23682161D807EAD525
:104C10004B1CE7E70029CCBF0122C1F1020213447B
:104C2000E0E723685A0507D42369424631462846FF
:104C3000B84701302BD164E7B9F1650F40F2DD8050
:104C4000D4E9120100220023FBF7AEFE002833D086
:104C5000012331462846354AB84701303FF451AF69
:104C6000DDE90D239A4202DB2368D8070FD5DDE981
:104C7000092331462846B84701303FF442AF4FF090
:104C8000000804F11A090E9B013B434509DC236827
:104C90009B0700F10481E0680F9B9842B8BF18465B
:104CA00031E701234A4631462846B84701303FF4F0
:104CB00028AF08F10108E6E70D9B002B38DC012343
:104CC00031462846194AB84701303FF41AAFDDE9AA
:104CD0000D32134302D12368D907D8D5DDE9092362
:104CE00031462846B84701303FF40BAF4FF000097A
:104CF00004F11A0A0D9B5B424B4501DC0E9B94E7C5
:104D00000123524631462846B84701303FF4F9AEF8
:104D100009F10109EEE700BFFFFFEF7FDE92000817
:104D2000E2920008E6920008EA920008EE9200087B
:104D30000E9AA36D9A42A8BF1A46002A914637DC04
:104D40004FF0000B29EAE97904F11A02D4F858A0CF
:104D5000AAEB09035B4533DCDDE90D239A423BDB1B
:104D60002368DA0738D4DDE90D32A2EB0309A2EBA0
:104D70000A029145A8BF9146B9F1000F34DC4FF00B
:104D8000000829EAE97904F11A0ADDE90D239B1AE2
:104D9000A3EB090343457FF77AAF0123524631461F
:104DA0002846B84701303FF4ACAE08F10108ECE703
:104DB0001346314642462846B8470130C0D1A0E6E6
:104DC0000123314628460B92B84701303FF499AE93
:104DD0000B9A0BF1010BB9E73146DDE909232846AF
:104DE000B8470130BFD18CE64B463146284608EB28
:104DF0000A02B8470130C2D183E60E9A012A01DCCB
:104E0000DB0739D50123424631462846B8470130F1
:104E10003FF477AEDDE9092331462846B847013033
:104E20003FF46FAED4E9120100220023DDF8389080
:104E3000FBF7BAFDD8B909F1FF3308F10102314699
:104E40002846B84701300ED15BE601234A46314679
:104E50002846B84701303FF454AE08F101080E9BD4
:104E6000013B4345F1DC534604F15002DEE64FF0CE
:104E7000000804F11A09F2E701234246DFE70123A3
:104E80004A4631462846B84701303FF43AAE08F169
:104E90000108E3680F995B1A4345F0DCFBE64FF02D
:104EA000000804F11909F4E72DE9F0471646994680
:104EB0008A680B6907469342B8BF1346336091F87E
:104EC00043200C46DDF820800AB1013333602368AB
:104ED000990642BF336802333360256815F0060532
:104EE00006D104F1190AE36832689B1AAB422BDC45
:104EF00094F84320131E226818BF0123920630D471
:104F00004946384604F14302C047013023D02368A4
:104F1000226903F00603042B14BF002533684FF009
:104F2000000608BFE56804F11A0408BFED1A54F83A
:104F3000123C08BF25EAE5759342C4BF9B1AED18E1
:104F4000B5421AD1002008E00123524649463846AE
:104F5000C047013003D14FF0FF30BDE8F087013585
:104F6000C1E73020E11881F843005A1C94F845103D
:104F70002244023382F84310C2E701232246494605
:104F80003846C0470130E6D00136D9E72DE9FF4762
:104F90000F7E9146782F80460C469A460C9D01F173
:104FA000430207D8622F0AD8002F00F0D580582F6F
:104FB00000F0C18004F1420584F842703AE0A7F1A4
:104FC0006303152BF6D801A151F823F025500008F2
:104FD00039500008B54F0008B54F0008B54F00081C
:104FE000B54F000839500008B54F0008B54F00080C
:104FF000B54F0008B54F00083F5100086550000844
:10500000F9500008B54F0008B54F0008615100087D
:10501000B54F000865500008B54F0008B54F0008AF
:10502000015100082B681A1D1B682A6004F1420513
:1050300084F842300123A0E020682B68070603F1C2
:105040000401296001D51E6803E04606FBD5B3F9CB
:105050000060002E03DA2D23764284F843300A23C1
:10506000594812E02B682068191D2960050601D5F2
:105070001E6802E04106FBD51E886F2F0CBF082377
:105080000A235148002184F843106568002DA8BF09
:105090002168A560A4BF21F0040121600EB9002D94
:1050A0004BD01546B6FBF3F103FB1167C75D05F85E
:1050B000017D3746BB420E46F4D9082B0BD123683D
:1050C000DE0708D5236961689942DEBF302305F801
:1050D000013C05F1FF35521B22614B4621464046FB
:1050E000CDF800A003AAFFF7DFFE01304AD14FF050
:1050F000FF3004B0BDE8F087236843F0200323604D
:105100007827324884F84570236829681F0651F8CB
:10511000046B02D45F0648BFB6B2DF0748BF43F056
:105120002003296048BF23601EB9236823F02003B1
:1051300023601023A6E72448E4E71546BDE72B6863
:105140002668181D6169286035061B6801D519603D
:1051500002E07006FBD51980002315462361BCE7E9
:105160002B6800211A1D2A601D686268284600F01D
:10517000D1FC08B1401B606063682361002384F8A0
:105180004330AAE72A46494640462369D0470130C2
:10519000ADD023689B0713D4E068039B9842B8BF47
:1051A0001846A6E70123324649464046D04701301B
:1051B0009DD00135E36803995B1AAB42F2DCEBE763
:1051C000002504F11906F5E7F092000801930008A4
:1051D0002DE9F04F87B003938B6817465A1EB2F53E
:1051E000AE7F85BF6FF4AE755B190023029388BF55
:1051F00040F25D138B464FF000058CBF8B6002932D
:105200000B68804643F4F0634BF81C3B0C465E464B
:10521000AA46A946CDE904550195A26852B13B685A
:105220001B784E2B64D8402B3CD8A3F12B01C8B27D
:105230000E283AD9B9F1000F03D0236823F4807304
:1052400023600AF1FF3ABAF1010F00F213815E45C3
:1052500000F205810125284607B0BDE8F08FA3F1D3
:1052600061020D2AE6D801A151F822F0AB530008E3
:105270003552000835520008355200080B5400081A
:10528000E35300083552000835520008B9530008AE
:1052900035520008355200083552000835520008D2
:1052A00071530008A3F14102DBE70E29C2D801A027
:1052B00050F821F06353000835520008635300088A
:1052C000F753000835520008115300084D530008E9
:1052D0004D5300084D5300084D5300084D5300082E
:1052E0004D5300084D5300084D5300084D5300081E
:1052F0006E2B09D8602BB2D8542B77D0592B99D16B
:10530000072D97D1082529E0742B6FD0792BF6E76C
:105310002168C8051AD5029B21F08001216009F19E
:1053200001091BB1013B01320293A260A368013B5A
:10533000A3602369013323617B68013B002B7B6001
:1053400040F384803B6801333B6066E71AEB050F4E
:105350007FF470AF226822F4C072226006F8013B2D
:10536000E4E7226810067FF565AF22F08002F4E7DB
:10537000BAF1000F0ED1B9F1000F0ED1226802F47C
:10538000E061B1F5E06F08D122F4F0624FF0010A5C
:105390002260E3E7BAF1020F55D0012D02D0042DAF
:1053A0007FF448AF0135EDB2D8E7BAF1010F7FF4D1
:1053B00041AF4FF0020AD1E77DB9B9F1000F7FF498
:1053C0003CAF226802F4E061B1F5E06F7FF439AFE1
:1053D00022F4F06201252260C0E7032DE2D0052D02
:1053E000DEE7022D7FF426AF0325B7E7062D7FF415
:1053F00021AF0725B2E7226891057FF51BAF22F4A4
:1054000020722260CDF80490A8E7226802F4A0611F
:10541000B1F5806F06D050057FF50CAFB9F1000FE4
:105420003FF40FAF910558BF019922F4F06258BFC5
:10543000A9EB010142F4C0724FF0000958BFCDE959
:10544000041622608AE74FF0030A87E73946404690
:10545000D4F88031984700283FF4DFAEEAE6D4F86C
:105460007C313A46404616F8011D98472369013BB6
:105470002361ECE66B1E062B25D8022D36D85E453F
:105480007FF6E8AED4F87C313A46404616F8011D66
:1054900098472369013B2361F1E70298D4F87C31F6
:1054A00010F8011D3A460290404698472369013B97
:1054B00023610AF1FF3A5FFA8AFABAF1020FECD1DE
:1054C000033DEDB2761B2368DA052FD55B0510D5B9
:1054D0005E457FF6BFAED4F87C313A46404616F8BA
:1054E000011D98472369013B2361F1E7AA46029613
:1054F000DFE716F8011C2369652903F1FF3306F184
:10550000FF3523610CD045290AD0D4F87C313A46C6
:1055100040469847236916F8021C013BB51E2361DB
:105520003A464046D4F87C3198472E46256815F017
:10553000100555D13570236803F4C063B3F5806F4F
:105540001DD1019B4B45A3EB090225D100225946F1
:10555000404602F011FD039BD4F800C01B681CF00C
:10556000020F06460F4603F1040220D003990A6099
:105570001B68C3E90067E3680133E3606BE6049BE3
:10558000002BE3D005990A232A464046013102F058
:1055900077FD049B059EC21A04F26F139E4228BF3A
:1055A00004F5B77630460F4900F03EF9CEE71CF01F
:1055B000040FDBD1DDF80CC0CCF80020D3F800805C
:1055C00002460B46FBF722FA28B1074800F0B0FA72
:1055D000C8F80000CFE730463946FBF775FAF7E721
:1055E000002538E612930008A5960008002310B5A0
:1055F0000446C0E90033C0E9043383608181436617
:10560000C2818361194608225C3000F005FA054B1F
:1056100024626362044BA362044BE362044B236382
:1056200010BD00BF695800088B580008C358000817
:10563000E7580008024A0349034800F069B800BF70
:105640000C000020BD8600081800002041680C4BAB
:1056500010B59942044601D003F030F8A168094B17
:10566000994202D0204603F029F8E168064B99429E
:1056700004D02046BDE8104003F020B810BD00BFA4
:105680003C040020A40400200C05002010B50B4BA6
:105690000B4C0C4A20461A6004210022FFF7A6FF9B
:1056A00004F1680001220921FFF7A0FF04F1D000F6
:1056B0000222BDE810401221FFF798BF74050020B8
:1056C0003C04002035560008014800F021BA00BF14
:1056D0007D050020014800F01CBA00BF7D050020B8
:1056E00010B50446FFF7F0FF236A1BB1BDE8104078
:1056F000FFF7F0BF044B2362044B1B68002BF5D16E
:10570000FFF7C4FFF2E700BF4D5600087405002004
:105710002DE9F8430746884614460026D4E901954A
:10572000B9F1010905D52468002CF7D13046BDE850
:10573000F883AB89012B07D9B5F90E30013303D0BB
:1057400029463846C04706436835E9E70FB407B530
:10575000064904AB086853F8042B8168019302F0F2
:1057600011FE03B05DF804EB04B070476400002044
:10577000036A70B505460E4684680BB9FFF7B0FFA3
:10578000636EDB0705D4A389980502D4A06D00F0F1
:10579000BFF9A389190713D523698BB1013EA3680B
:1057A00016F8011F013BA360E9B9002B2EDA22464F
:1057B0000A21284600F09BF8013007D00A2507E0AF
:1057C0002146284600F0D0F80028E7D04FF0FF35FA
:1057D000636EDA0705D4A3899B0502D4A06D00F09F
:1057E00098F9284670BD002B04DAA2699A4206DCBB
:1057F0000A2904D023685A1C22601970CFE7224678
:10580000284600F074F80130C9D1DFE70A25236883
:105810005A1C22601D70DBE7024B01461868FFF737
:10582000A7BF00BF640000200EB46FF0004100B5B8
:105830009CB01DAB0290069007910491084809495D
:1058400053F8042B0591006802A9019302F074FC3F
:105850000022029B1A701CB05DF804EB03B0704785
:10586000640000200802FFFF10B50C46B1F90E10CD
:1058700000F000F90028ABBF636DA3891B1823F467
:105880008053ACBF6365A38110BD2DE9F0411F4675
:105890008B890546DB050C46164605D502230022FA
:1058A000B1F90E1000F0D4F8A389324623F48053E6
:1058B000A38128463B46B4F90E10BDE8F04100F044
:1058C000EBB810B50C46B1F90E1000F0C1F8431C4E
:1058D000A38915BF606523F4805343F48053A381EB
:1058E00018BFA38110BDB1F90E1000F0A1B8F8B532
:1058F0000E461446054618B1036A0BB9FFF7F0FED1
:10590000A369A360A3891A0725D523691BB323685C
:105910002269F6B2981A63693746834204DC21464D
:10592000284602F0CBFEE0B9A368013BA3602368E0
:105930005A1C22601E706269431C9A4204D0A389DB
:10594000DB0706D50A2E04D12146284602F0B6FE12
:1059500038B93846F8BD2146284600F005F8002839
:10596000D5D04FF0FF37F4E738B52A4B0546186815
:105970000C4618B1036A0BB9FFF7B2FEA389B4F95C
:105980000C20180722D4D90607D409232B6042F033
:1059900040034FF0FF30A38134E0580712D5616B0C
:1059A00041B104F14403994202D0284600F034FF8B
:1059B00000236363A38923F02403A381002363608E
:1059C00023692360A38943F00803A38123694BB9AA
:1059D000A38903F42073B3F5007F03D02146284642
:1059E00002F0B9FEA089B4F90C2010F001030AD02E
:1059F0000023A36063695B42A361236943B910F08C
:105A00008000C4D138BD810758BF6369A360F4E743
:105A10000020F7E76400002003460244934200D1CF
:105A2000704703F8011BF9E7004870475801002050
:105A300038B50023054D044608462B60FCF7F8F8FE
:105A4000431C02D12B6803B1236038BD78050020C8
:105A500038B50446084611460022054D2A601A460C
:105A6000FCF70AF9431C02D12B6803B1236038BD4F
:105A70007805002038B50446084611460022054D39
:105A80002A601A46FCF7B7F8431C02D12B6803B111
:105A9000236038BD7805002038B504460846114615
:105AA0000022054D2A601A46FBF7AAFA431C02D1D0
:105AB0002B6803B1236038BD78050020014B1868BE
:105AC000704700BF6400002070B500260C4D0D4CDF
:105AD000641BA410A64209D103F02CFB00260A4D3A
