:020000040800F2
:1000000000500020651C0008B51A0008BB1A000843
:10001000C11A0008C71A0008CD1A00080000000025
:10002000000000000000000000000000D31A0008DB
:10003000DF1A000800000000EB1A0008F71A000899
:10004000AD1C0008AD1C0008AD1C0008AD1C00086C
:10005000AD1C0008AD1C0008AD1C0008AD1C00085C
:10006000031B0008AD1C0008AD1C0008AD1C0008F7
:10007000AD1C0008AD1C0008AD1C0008AD1C00083C
:10008000AD1C0008AD1C0008AD1C0008AD1C00082C
:10009000AD1C0008AD1C0008AD1C0008AD1C00081C
:1000A000AD1C0008AD1C0008AD1C0008AD1C00080C
:1000B000AD1C0008AD1C0008AD1C0008AD1C0008FC
:1000C000AD1C0008AD1C0008AD1C0008AD1C0008EC
:1000D000AD1C0008AD1C0008AD1C0008AD1C0008DC
:1000E000AD1C0008AD1C0008AD1C0008000000009D
:1000F0000000000000000000000000000000000000
:0C01000000000000000000005FF808F1A3
:1001100010B5054C237833B9044B13B10448AFF341
:1001200000800123237010BDD401002000000000D6
:100130006C85000808B5034B1BB103490348AFF3B6
:10014000008008BD00000000D80100206C85000878
:10015000034613F8012B002AFBD1181A0138704707
:1001600081F0004102E000BF83F0004330B54FEA68
:1001700041044FEA430594EA050F08BF90EA020FD5
:100180001FBF54EA000C55EA020C7FEA645C7FEA68
:10019000655C00F0E2804FEA5454D4EB5555B8BF8B
:1001A0006D420CDD2C4480EA020281EA030382EAFC
:1001B000000083EA010180EA020281EA0303362D8E
:1001C00088BF30BD11F0004F4FEA01314FF4801C61
:1001D0004CEA113102D0404261EB410113F0004F73
:1001E0004FEA03334CEA133302D0524263EB43032A
:1001F00094EA050F00F0A780A4F10104D5F1200EC8
:100200000DDB02FA0EFC22FA05F2801841F1000122
:1002100003FA0EF2801843FA05F359410EE0A5F1F6
:1002200020050EF1200E012A03FA0EFC28BF4CF027
:10023000020C43FA05F3C01851EBE37101F00045DD
:1002400007D54FF0000EDCF1000C7EEB00006EEBEA
:100250000101B1F5801F1BD3B1F5001F0CD3490874
:100260005FEA30004FEA3C0C04F101044FEA4452CB
:1002700012F5800F80F09A80BCF1004F08BF5FEA52
:10028000500C50F1000041EB045141EA050130BD32
:100290005FEA4C0C404141EB0101013C28BFB1F544
:1002A000801FE9D291F0000F04BF01460020B1FA8F
:1002B00081F308BF2033A3F10B03B3F120020CDA62
:1002C0000C3208DD02F1140CC2F10C0201FA0CF040
:1002D00021FA02F10CE002F11402D8BFC2F1200CA5
:1002E00001FA02F120FA0CFCDCBF41EA0C0190405B
:1002F000E41AA2BF01EB0451294330BD6FEA0404A4
:100300001F3C1CDA0C340EDC04F11404C4F120028E
:1003100020FA04F001FA02F340EA030021FA04F3A0
:1003200045EA030130BDC4F10C04C4F1200220FAF7
:1003300002F001FA04F340EA0300294630BD21FA35
:1003400004F0294630BD94F0000F83F4801306BFFB
:1003500081F480110134013D4EE77FEA645C18BFEF
:100360007FEA655C29D094EA050F08BF90EA020F86
:1003700005D054EA000C04BF1946104630BD91EA7E
:10038000030F1EBF0021002030BD5FEA545C05D181
:100390004000494128BF41F0004130BD14F58004C0
:1003A0003CBF01F5801130BD01F0004545F0FE4134
:1003B00041F470014FF0000030BD7FEA645C1ABF69
:1003C000194610467FEA655C1CBF0B46024650EAA0
:1003D000013406BF52EA033591EA030F41F40021CC
:1003E00030BD00BF90F0000F04BF0021704730B552
:1003F0004FF4806404F132044FF000054FF0000127
:1004000050E700BF90F0000F04BF0021704730B5E7
:100410004FF4806404F1320410F0004548BF4042BC
:100420004FF000013EE700BF42004FEAE2014FEA11
:1004300031014FEA02701FBF12F07F4393F07F4FEC
:1004400081F06051704732F07F4208BF704793F0EF
:100450007F4F04BF41F40021704730B54FF4607402
:1004600001F0004521F000411CE700BF50EA010205
:1004700008BF704730B54FF000050AE050EA0102AE
:1004800008BF704730B511F0004502D5404261EB1E
:1004900041014FF4806404F132045FEA915C3FF45F
:1004A000D8AE4FF003025FEADC0C18BF03325FEAFC
:1004B000DC0C18BF033202EBDC02C2F1200300FAAD
:1004C00003FC20FA02F001FA03FE40EA0E0021FAD2
:1004D00002F11444BDE600BF70B54FF0FF0C4CF4C0
:1004E000E06C1CEA11541DBF1CEA135594EA0C0F72
:1004F00095EA0C0F00F0DEF82C4481EA030621EAAD
:100500004C5123EA4C5350EA013518BF52EA0335E7
:1005100041F4801143F4801338D0A0FB02CE4FF099
:100520000005E1FB02E506F00042E0FB03E54FF0C9
:100530000006E1FB03569CF0000F18BF4EF0010EC1
:10054000A4F1FF04B6F5007F64F5407404D25FEABD
:100550004E0E6D4146EB060642EAC62141EA555170
:100560004FEAC52040EA5E504FEACE2EB4F1FD0CB2
:1005700088BFBCF5E06F1ED8BEF1004F08BF5FEA30
:10058000500E50F1000041EB045170BD06F00046E2
:1005900046EA010140EA020081EA0301B4EB5C048F
:1005A000C2BFD4EB0C0541EA045170BD41F4801187
:1005B0004FF0000E013C00F3AB8014F1360FDEBFAC
:1005C000002001F0004170BDC4F10004203C35DA88
:1005D0000C341BDC04F11404C4F1200500FA05F30B
:1005E00020FA04F001FA05F240EA020001F00042AC
:1005F00021F0004110EBD37021FA04F642EB060122
:100600005EEA430E08BF20EAD37070BDC4F10C044B
:10061000C4F1200500FA04F320FA05F001FA04F20F
:1006200040EA020001F0004110EBD37041F10001FB
:100630005EEA430E08BF20EAD37070BDC4F1200506
:1006400000FA05F24EEA020E20FA04F301FA05F26E
:1006500043EA020321FA04F001F0004121FA04F216
:1006600020EA020000EBD3705EEA430E08BF20EAE6
:10067000D37070BD94F0000F0FD101F00046400020
:1006800041EB010111F4801F08BF013CF7D041EAA2
:10069000060195F0000F18BF704703F000465200A6
:1006A00043EB030313F4801F08BF013DF7D043EA77
:1006B0000603704794EA0C0F0CEA135518BF95EA2D
:1006C0000C0F0CD050EA410618BF52EA4306D1D1B4
:1006D00081EA030101F000414FF0000070BD50EAD3
:1006E000410606BF1046194652EA430619D094EA5D
:1006F0000C0F02D150EA013613D195EA0C0F05D147
:1007000052EA03361CBF104619460AD181EA03019A
:1007100001F0004141F0FE4141F470014FF0000052
:1007200070BD41F0FE4141F4780170BD70B54FF0ED
:10073000FF0C4CF4E06C1CEA11541DBF1CEA13556D
:1007400094EA0C0F95EA0C0F00F0A7F8A4EB05044F
:1007500081EA030E52EA03354FEA013100F0888046
:100760004FEA03334FF0805545EA131343EA12630F
:100770004FEA022245EA111545EA10654FEA0026C4
:100780000EF000419D4208BF964244F1FD0404F57D
:10079000407402D25B084FEA3202B61A65EB0305D9
:1007A0005B084FEA32024FF480104FF4002CB6EB96
:1007B000020E75EB030E22BFB61A754640EA0C0016
:1007C0005B084FEA3202B6EB020E75EB030E22BF56
:1007D000B61A754640EA5C005B084FEA3202B6EB97
:1007E000020E75EB030E22BFB61A754640EA9C0056
:1007F0005B084FEA3202B6EB020E75EB030E22BF26
:10080000B61A754640EADC0055EA060E18D04FEAE3
:10081000051545EA16754FEA06164FEAC30343EA83
:1008200052734FEAC2025FEA1C1CC0D111F4801F50
:100830000BD141EA00014FF000004FF0004CB6E749
:1008400011F4801F04BF01430020B4F1FD0C88BFE8
:10085000BCF5E06F3FF6AFAEB5EB030C04BFB6EBF3
:10086000020C5FEA500C50F1000041EB045170BDE6
:100870000EF0004E4EEA113114EB5C04C2BFD4EB13
:100880000C0541EA045170BD41F480114FF0000E97
:10089000013C90E645EA060E8DE60CEA135594EA13
:1008A0000C0F08BF95EA0C0F3FF43BAF94EA0C0F16
:1008B0000AD150EA01347FF434AF95EA0C0F7FF48B
:1008C00025AF104619462CE795EA0C0F06D152EADF
:1008D00003353FF4FDAE1046194622E750EA4106C3
:1008E00018BF52EA43067FF4C5AE50EA41047FF4D4
:1008F0000DAF52EA43057FF4EBAE12E74FF0FF3C39
:1009000006E000BF4FF0010C02E000BF4FF0010C09
:100910004DF804CD4FEA410C7FEA6C5C4FEA430C82
:1009200018BF7FEA6C5C1BD001B050EA410C0CBFD1
:1009300052EA430C91EA030F02BF90EA020F002033
:10094000704710F1000F91EA030F58BF994208BF9A
:1009500090422CBFD8176FEAE37040F00100704757
:100960004FEA410C7FEA6C5C02D150EA013C07D1AE
:100970004FEA430C7FEA6C5CD6D152EA033CD3D0F9
:100980005DF8040B704700BF8446104662468C46F3
:100990001946634600E000BF01B5FFF7B7FF002826
:1009A00048BF10F1000F01BD4DF808EDFFF7F4FF4F
:1009B0000CBF012000205DF808FB00BF4DF808EDDA
:1009C000FFF7EAFF34BF012000205DF808FB00BFFD
:1009D0004DF808EDFFF7E0FF94BF012000205DF81F
:1009E00008FB00BF4DF808EDFFF7CEFF94BF0120D4
:1009F00000205DF808FB00BF4DF808EDFFF7C4FFCD
:100A000034BF012000205DF808FB00BF4FEA410C15
:100A10007FEA6C5C02D150EA013C0AD14FEA430CF8
:100A20007FEA6C5C02D152EA033C02D14FF0000035
:100A300070474FF0010070474FEA410212F5001273
:100A400015D211D56FF47873B3EB625212D94FEA15
:100A5000C12343F0004343EA505311F0004F23FAFF
:100A600002F018BF404270474FF00000704750EA54
:100A7000013005D111F0004008BF6FF00040704711
:100A80004FF00000704700BF4A0011D212F500126B
:100A900011D20DD56FF47873B3EB62520ED44FEAD6
:100AA000C12343F0004343EA505323FA02F0704756
:100AB0004FF00000704750EA013002D14FF0FF3094
:100AC00070474FF0000070474FEA4102B2F1E04337
:100AD00024BFB3F5001CDCF1FE5C0DD901F0004C25
:100AE0004FEAC0024CEA5070B2F1004F40EB830075
:100AF00008BF20F00100704711F0804F21D113F1A1
:100B00003872BCBF01F00040704741F480114FEAD9
:100B10005252C2F11802C2F1200C10FA0CF320FA62
:100B200002F018BF40F001004FEAC1234FEAD3237F
:100B300003FA0CFC40EA0C0023FA02F34FEA4303E9
:100B4000CCE77FEA625307D150EA01331EBF4FF072
:100B5000FE4040F44000704701F0004040F0FE408D
:100B600040F40000704700BF4FF0FF3C06E000BFBC
:100B70004FF0010C02E000BF4FF0010C4DF804CD26
:100B80004FEA40024FEA41037FEA226C18BF7FEA36
:100B9000236C11D001B052EA530C18BF90EA010F38
:100BA00058BFB2EB030088BFC81738BF6FEAE170C7
:100BB00018BF40F0010070477FEA226C02D15FEA63
:100BC000402C05D17FEA236CE4D15FEA412CE1D0CF
:100BD0005DF8040B704700BF844608466146FFE796
:100BE0000FB5FFF7C9FF002848BF10F1000F0FBD78
:100BF0004DF808EDFFF7F4FF0CBF012000205DF871
:100C000008FB00BF4DF808EDFFF7EAFF34BF0120F5
:100C100000205DF808FB00BF4DF808EDFFF7E0FF8E
:100C200094BF012000205DF808FB00BF4DF808EDDF
:100C3000FFF7D2FF94BF012000205DF808FB00BF42
:100C40004DF808EDFFF7C8FF34BF012000205DF824
:100C500008FB00BF38B505460C4600220023284695
:100C60002146FFF7ABFE28B928462146BDE83840AB
:100C700000F00AB8284604F1004100F005F84042AF
:100C800061EB410138BD00BFD0B500220B4B0646D9
:100C90000F46FFF721FCFFF7F7FE0446FFF7A2FB24
:100CA0000022074BFFF718FC02460B463046394638
:100CB000FFF75AFAFFF7E8FE2146D0BD0000F03DED
:100CC0000000F04180B582B002AF4FF48063009322
:100CD000084B00220849094800F07EF94FF40063F0
:100CE0000093044B04220449054800F075F900BF45
:100CF000BD4680BD0008014068020020F0010020D0
:100D00000002002080B582B000AF03460A46FB71A6
:100D10001346BB71FB79013B032B3DD801A252F86E
:100D200023F000BF350D00084F0D0008690D0008C5
:100D3000810D0008BB791A4602211A4800F06EF9AD
:100D4000BB791A460221184800F068F925E0BB7902
:100D50001A460121134800F061F9BB791A460121B6
:100D6000114800F05BF918E0BB791A4602210D48E2
:100D700000F054F9002202210B4800F04FF90CE07A
:100D800000220221074800F049F9BB791A460221E6
:100D9000054800F043F900E000BF00BF0837BD463A
:100DA00080BD00BFF00100200002002080B582B0AD
:100DB00000AF78607B681B7E002B0FD17B68586882
:100DC0007B681B890122194601F07DFA7B680122AC
:100DD0001A7600F0C5FF02467B68DA6100BF08376B
:100DE000BD4680BD0000000080B582B000AF7860D5
:100DF0000B467B807B681B7E022B3AD17B681B8A6B
:100E00007A889A4235D17B68DA687B681B8A1946F2
:100E1000104601F041FA0346012B0AD17B681B689A
:100E20001B6800225A627B681B68184601F078FF35
:100E30001FE07B681B681B685B6A1846FFF7D2FAE5
:100E40000FA3D3E90023FFF747FB02460B461046EA
:100E50001946FFF739FE02467B685A617B681B68BA
:100E6000184601F0A7FF7B6803221A76786800F025
:100E700067F900BF0837BD4680BD00BFAFF30080F3
:100E80009CC420B07268913F80B582B000AF78609A
:100E90007B681B7E032B4FD801A252F823F000BFC2
:100EA000B10E0008D30E0008050F00082B0F000834
:100EB00000F056FF02467B681B6AD31A632B3DD9AC
:100EC0007868FFF773FF00F04BFF02467B681A62F9
:100ED00034E000F045FF02467B68DB69D31A012B42
:100EE0002ED97B6858687B681B890022194601F05F
:100EF000EAF900F035FF02467B68DA617B6802227E
:100F00001A761DE000F02CFF02467B68DB69D31ADD
:100F1000B3F57A7F16D90E4803F09AFE7B6800225B
:100F20001A767B6801225A760CE07B6800225A769A
:100F30007B6800221A7606E000BF04E000BF02E0F2
:100F400000BF00E000BF00BF0837BD4680BD00BF46
:100F50008885000880B485B000AFF860B9607A6019
:100F60007B80FB68BA681A60FB687A685A60FB6825
:100F70007A881A81FB68BA69DA60FB68BA8B1A82D0
:100F8000FB684FF000025A61FB680022DA61FB68DF
:100F900000221A62FB6800221A76FB6800225A7649
:100FA00000BF1437BD4680BC7047000080B584B0D8
:100FB00000AFF860B9607A607B689AB24FF0FF3397
:100FC000B968044802F043FD7B6818461037BD46F7
:100FD00080BD00BF4003002080B584B000AFF86042
:100FE000B9607A603B60FB68BA681A60FB687A682F
:100FF0005A60FB683A8B9A81FB683A689A60FB6892
:1010000000229A73FB680122DA737968B86801F0EC
:101010004FFF00BF1037BD4680BD000080B584B0D3
:1010200000AF78600B46FB701346BB707B68BA78E4
:101030009A737B68FA78DA73BB787A6812681268F8
:10104000D26A02FB03F33D4AA2FB03235B09FB8147
:10105000FB78012B02D0022B2CD06BE07B685B6805
:10106000002B05D17B681B681B68FA895A6318E05E
:101070007B685B68042B05D17B681B681A68FB8959
:1010800093630EE07B685B68082B05D17B681B6867
:101090001A68FB89D36304E07B681B681A68FB89C4
:1010A00013647B6898687B689B890022194601F06D
:1010B0000AF93FE07B685B68002B0AD17B681B68FC
:1010C0001B68D96AFA897B681B681B688A1A5A638D
:1010D00027E07B685B68042B0AD17B681B681B6870
:1010E000D96AFB897A6812681268CB1A936318E090
:1010F0007B685B68082B0AD17B681B681B68D96A10
:10110000FB897A6812681268CB1AD36309E07B689E
:101110001B681B68D96AFB897A6812681268CB1A47
:1011200013647B6898687B689B890122194601F0EB
:10113000CAF800BF00BF1037BD4680BD1F85EB5108
:1011400080B582B000AF78607B681B8A042B4CD1DD
:101150007B685B691846FFF767F902460B4625482E
:1011600003F010FD7B685B6923491846FFF74AFDD1
:101170000346002B0ED07B685B694FF000011846D8
:10118000FFF75EFD0346002B04D01E210320FFF76E
:10119000B9FD2AE07B685B694FF000011846FFF754
:1011A00031FD0346002B04D000210320FFF7AAFDE8
:1011B0001BE07B685B6910491846FFF741FD034659
:1011C000002B0DD07B685B690C491846FFF71AFDB0
:1011D0000346002B04D01E210220FFF793FD04E0FC
:1011E0001E210120FFF78EFDFFE700BF0837BD4637
:1011F00080BD00BFA4850008000040400000A04062
:1012000080B582B000AF0346FB80074B1B8AFA888B
:101210009A4204D1FB8819460348FFF7E5FD00BF59
:101220000837BD4680BD00BF8803002080B582B06E
:1012300002AF00F03DFD00F03DF800F04FFA00F085
:101240007FF800F0B3F800F01FFA00F05BF900F04F
:10125000A5F9FFF737FD04230193114B00930223F7
:101260000F4A10491048FFF775FE0F48FFF70CFEB4
:101270000D4B5B7E002BF8D000F072FD02460B4B4D
:101280001B68D31AB3F5FA7FEFD34FF40051084827
:1012900001F031F800F064FD0346044A1360E4E70E
:1012A00000080140B002002088030020AC030020A9
:1012B0000010014080B590B000AF07F1180328225C
:1012C0000021184603F0C4FD3B1D00221A605A603D
:1012D0009A60DA601A610123BB614FF48033FB61CD
:1012E00000233B620123BB6202237B634FF4803304
:1012F000BB634FF4E013FB6307F11803184601F0DA
:101300002BF80346002B01D000F04AFA0F237B6034
:101310000223BB600023FB604FF480633B6100232A
:101320007B613B1D0221184601F098FA0346002B11
:1013300001D000F035FA00BF4037BD4680BD000047
:1013400080B500AF174B184A1A60164B4FF48272E3
:101350005A60144B00229A60124B0022DA60114B43
:1013600000221A610F4B00225A610E4B4FF400729B
:101370009A610C4B2022DA610A4B00221A62094B57
:1013800000225A62074B00229A62064B0A22DA6256
:10139000044801F0F1FB0346002B01D000F000FAF5
:1013A00000BF80BD100200200030014080B596B023
:1013B00000AF07F1480300221A605A609A60DA60B1
:1013C00007F1400300221A605A6007F1240300224B
:1013D0001A605A609A60DA601A615A619A613B1D1C
:1013E00020220021184603F033FD444B444A1A6082
:1013F000424B47225A60414B00229A603F4B40F2D9
:10140000E732DA603D4B00221A613C4B00225A6100
:101410003A4B00229A61394801F032FC0346002B16
:1014200001D000F0BDF94FF48053BB6407F14803CD
:101430001946324801F0A0FE0346002B01D000F00F
:10144000AFF92E4801F0DCFC0346002B01D000F080
:10145000A7F900233B6400237B6407F1400319468E
:10146000264802F0F5F90346002B01D000F098F968
:1014700060237B620023BB620023FB6200233B638B
:1014800000237B630023BB630023FB6307F124037A
:1014900000221946194801F0ADFD0346002B01D08A
:1014A00000F07EF907F1240304221946134801F0E5
:1014B000A1FD0346002B01D000F072F900237B60F0
:1014C0000023BB600023FB6000233B6100237B61A2
:1014D0004FF40053BB6100233B623B1D1946074894
:1014E00002F014FA0346002B01D000F059F903482A
:1014F00000F01CFA00BF5837BD4680BD68020020CE
:10150000002C014080B586B000AF07F1080300222F
:101510001A605A609A60DA603B4600221A605A608C
:101520001D4B4FF080421A601B4B47225A601A4BEA
:1015300000229A60184B4FF6FF72DA60164B0022B9
:101540001A61154B00229A61134801F099FB03467A
:10155000002B01D000F024F94FF48053BB6007F159
:10156000080319460C4801F007FE0346002B01D082
:1015700000F016F900233B6000237B603B461946D0
:10158000054802F065F90346002B01D000F008F988
:1015900000BF1837BD4680BDB002002080B58EB0B8
:1015A00000AF07F1280300221A605A609A60DA60DF
:1015B00007F1200300221A605A603B1D00221A60C6
:1015C0005A609A60DA601A615A619A612C4B2D4A0E
:1015D0001A602B4B00225A60294B00229A60284B3C
:1015E0004FF6FF72DA60264B00221A61244B00226C
:1015F0009A61234801F044FB0346002B01D000F020
:10160000CFF84FF48053BB6207F1280319461C48FA
:1016100001F0B2FD0346002B01D000F0C1F81848DC
:1016200001F0EEFB0346002B01D000F0B9F80023D7
:101630003B6200237B6207F120031946104802F049
:1016400007F90346002B01D000F0AAF860237B6065
:101650000023BB600023FB6000237B613B1D002255
:101660001946074801F0C6FC0346002B01D000F0E4
:1016700097F8034800F05AF900BF3837BD4680BDDF
:10168000F80200200004004080B500AF114B124A60
:101690001A60104B4FF4E1325A600E4B00229A60F0
:1016A0000C4B0022DA600B4B00221A61094B0C2212
:1016B0005A61084B00229A61064B0022DA61054804
:1016C00002F075F90346002B01D000F069F800BF65
:1016D00080BD00BF400300200038014080B588B0C5
:1016E00000AF07F1100300221A605A609A60DA60B6
:1016F000284B9B69274A43F020039361254B9B6944
:1017000003F02003FB60FB68224B9B69214A43F0F6
:10171000040393611F4B9B6903F00403BB60BB6828
:101720001C4B9B691B4A43F008039361194B9B694F
:1017300003F008037B607B68002240F61A411648DC
:1017400000F0C1FD40F61A433B6101237B61002399
:10175000BB610223FB6107F1100319460E4800F03C
:1017600017FC04233B610D4B7B610023BB6107F138
:1017700010031946084800F00BFC00220121082044
:1017800000F0CFFB082000F0E8FB00BF2037BD468B
:1017900080BD00BF00100240000801400000311071
:1017A00080B400AF72B600BFFEE7000080B485B021
:1017B00000AF154B9B69144A43F001039361124B30
:1017C0009B6903F00103BB60BB680F4BDB690E4AEA
:1017D00043F08053D3610C4BDB6903F080537B6093
:1017E0007B680A4B5B68FB60FB6823F0E063FB608F
:1017F000FB6843F00073FB60044AFB68536000BF62
:101800001437BD4680BC7047001002400000014004
:1018100080B588B000AF786007F1100300221A602D
:101820005A609A60DA607B681B681B4A93422FD12A
:101830001A4B9B69194A43F480539361174B9B6978
:1018400003F48053FB60FB68144B9B69134A43F01D
:1018500004039361114B9B6903F00403BB60BB68F5
:10186000A0233B6102237B610323FB6107F110038B
:1018700019460B4800F08CFB40233B6100237B6141
:101880000023BB6107F110031946054800F080FBF7
:1018900000BF2037BD4680BD00300140001002402F
:1018A0000008014080B487B000AF78607B681B6897
:1018B0001B4A93420CD11B4B9B691A4A43F40063A9
:1018C0009361184B9B6903F400637B617B6922E0A1
:1018D0007B681B68B3F1804F0CD1124BDB69114A56
:1018E00043F00103D3610F4BDB6903F001033B615C
:1018F0003B6910E07B681B680B4A93420BD1094B94
:10190000DB69084A43F00203D361064BDB6903F04D
:101910000203FB60FB6800BF1C37BD4680BC7047FC
:10192000002C0140001002400004004080B58AB045
:1019300000AF786007F1140300221A605A609A60C1
:10194000DA607B681B68284A934219D1274B9B6950
:10195000264A43F004039361244B9B6903F004037C
:101960003B613B694FF440737B610223BB610223FF
:101970003B6207F1140319461D4800F009FB2EE0F5
:101980007B681B681B4A934229D1184B9B69174AF5
:1019900043F008039361154B9B6903F00803FB6058
:1019A000FB6810237B610223BB6102233B6207F1CA
:1019B00014031946104800F0EBFA104B5B687B6289
:1019C0007B6A23F440637B627B6A43F0E0637B6263
:1019D0007B6A43F400637B62084A7B6A536000BF02
:1019E0002837BD4680BD00BF002C014000100240DA
:1019F0000008014000040040000C014000000140CC
:101A000080B58AB000AF786007F1140300221A6035
:101A10005A609A60DA607B681B68224A93423DD123
:101A2000214B9B69204A43F4804393611E4B9B6981
:101A300003F480433B613B691B4B9B691A4A43F0AB
:101A400008039361184B9B6903F00803FB60FB6874
:101A500040237B610223BB6103233B6207F1140334
:101A60001946124800F094FA80237B610023BB6181
:101A70000023FB6107F1140319460C4800F088FAB3
:101A80000B4B5B687B627B6A43F0E0637B627B6A43
:101A900043F004037B62064A7B6A536000BF283729
:101AA000BD4680BD0038014000100240000C0140DE
:101AB0000000014080B400AFFEE780B400AFFEE755
:101AC00080B400AFFEE780B400AFFEE780B400AFA3
:101AD000FEE780B400AF00BFBD4680BC704780B455
:101AE00000AF00BFBD4680BC704780B400AF00BFF0
:101AF000BD4680BC704780B500AF00F01FF900BF45
:101B000080BD80B500AF042000F00EFC00BF80BD9A
:101B100080B400AF01231846BD4680BC704780B535
:101B200082B000AF7860396003F0E4F90346162212
:101B30001A604FF0FF3318460837BD4680BD80B5A8
:101B400082B000AF78604FF0FF317868FFF7E7FFB1
:101B5000FEE780B586B000AFF860B9607A60002318
:101B60007B610AE0AFF300800146BB685A1CBA6093
:101B7000CAB21A707B6901337B617A697B689A42C9
:101B8000F0DB7B6818461837BD4680BD80B483B053
:101B900000AF78604FF0FF3318460C37BD4680BC6D
:101BA000704780B483B000AF786039603B684FF411
:101BB00000525A60002318460C37BD4680BC70475F
:101BC00080B483B000AF7860012318460C37BD465F
:101BD00080BC704780B485B000AFF860B9607A60AF
:101BE000002318461437BD4680BC704780B586B0C8
:101BF00000AF7860144A154BD31A7B617B693B6157
:101C0000134B1B68002B02D1114B124A1A60104B68
:101C10001A687B6813443A699A4207D203F06AF95A
:101C200003460C221A604FF0FF3309E0084B1B6893
:101C3000FB60074B1A687B681344054A1360FB6816
:101C400018461837BD4680BD005000200004000033
:101C5000B00300200805002080B400AF00BFBD46DF
:101C600080BC7047FFF7F8FF0B480C490C4A002373
:101C700002E0D458C4500433C4188C42F9D3094A42
:101C8000094C002301E013600432A242FBD303F0AD
:101C900037F9FFF7CBFA704700000020D40100208D
:101CA000288A0008D401002004050020FEE7000077
:101CB00080B500AF084B1B68074A43F01003136060
:101CC000032000F023F90F2000F008F8FFF76EFD65
:101CD0000023184680BD00BF0020024080B582B0BE
:101CE00000AF7860124B1A68124B1B7819464FF4FC
:101CF0007A73B3FBF1F3B2FBF3F3184600F03BF950
:101D00000346002B01D001230EE07B680F2B0AD87D
:101D1000002279684FF0FF3000F003F9064A7B6833
:101D20001360002300E0012318460837BD4680BD3C
:101D300000000020080000200400002080B400AF54
:101D4000054B1B781A46054B1B681344034A136066
:101D500000BFBD4680BC704708000020B4030020CF
:101D600080B400AF024B1B681846BD4680BC70476C
:101D7000B403002080B485B000AF78607B6803F0C6
:101D80000703FB600C4BDB68BB60BA684FF6FF03D0
:101D90001340BB60FB681A02BB68134343F0BF6388
:101DA00043F40033BB60044ABB68D36000BF143700
:101DB000BD4680BC704700BF00ED00E080B400AFBE
:101DC000044BDB681B0A03F007031846BD4680BCC2
:101DD000704700BF00ED00E080B483B000AF034661
:101DE000FB7197F90730002B0BDBFB7903F01F0227
:101DF000064997F907305B09012000FA02F241F821
:101E0000232000BF0C37BD4680BC704700E100E0D6
:101E100080B483B000AF03463960FB7197F9073097
:101E2000002B0ADB3B68DAB20C4997F90730120144
:101E3000D2B20B4483F800230AE03B68DAB20849C7
:101E4000FB7903F00F03043B1201D2B20B441A7664
:101E500000BF0C37BD4680BC704700BF00E100E00A
:101E600000ED00E080B489B000AFF860B9607A603E
:101E7000FB6803F00703FB61FB69C3F10703042B55
:101E800028BF0423BB61FB690433062B02D9FB691D
:101E9000033B00E000237B614FF0FF32BB6902FA95
:101EA00003F3DA43BB681A407B699A404FF0FF3175
:101EB0007B6901FA03F3D9437B680B40134318464F
:101EC0002437BD4680BC704780B582B000AF7860D3
:101ED0007B68013BB3F1807F01D301230FE00A4A05
:101EE0007B68013B53600F214FF0FF30FFF790FFFD
:101EF000054B00229A60044B07221A600023184603
:101F00000837BD4680BD00BF10E000E080B582B05C
:101F100000AF78607868FFF72DFF00BF0837BD4637
:101F200080BD80B586B000AF0346B9607A60FB73B0
:101F300000237B61FFF742FF78617A68B9687869AE
:101F4000FFF790FF024697F90F3011461846FFF74A
:101F50005FFF00BF1837BD4680BD80B582B000AFBF
:101F60000346FB7197F907301846FFF735FF00BFAE
:101F70000837BD4680BD80B582B000AF7860786814
:101F8000FFF7A2FF034618460837BD4680BD000094
:101F900080B48BB000AF7860396000237B6200238F
:101FA0003B6269E101227B6A02FA03F3FB613B6851
:101FB0001B68FA691340BB61BA69FB699A4240F039
:101FC00058813B685B689A4A93425ED0984A934234
:101FD00075D8984A934258D0964A93426FD8964AF9
:101FE000934252D0944A934269D8944A93424CD037
:101FF000924A934263D8924A934246D0904A93427F
:102000005DD8122B2AD8122B59D801A252F823F0EE
:102010008B2000086520000877200008B920000800
:10202000BF200008BF200008BF200008BF20000814
:10203000BF200008BF200008BF200008BF20000804
:10204000BF200008BF200008BF200008BF200008F4
:10205000BF2000086D20000881200008794A9342C3
:1020600013D02CE03B68DB683B6229E03B68DB680F
:1020700004333B6224E03B68DB6808333B621FE0CB
:102080003B68DB680C333B621AE03B689B68002BC3
:1020900002D104233B6213E03B689B68012B05D10E
:1020A00008233B627B68FA691A6109E008233B62F6
:1020B0007B68FA695A6103E000233B6200E000BFDD
:1020C000BB69FF2B01D87B6801E07B6804337B612F
:1020D000BB69FF2B02D87B6A9B0002E07B6A083B4E
:1020E0009B003B617B691A680F213B6901FA03F38E
:1020F000DB431A40396A3B6901FA03F31A437B69EF
:102100001A603B685B6803F08053002B00F0B180DD
:102110004D4B9B694C4A43F0010393614A4B9B69C9
:1021200003F00103BB60BB68484A7B6A9B0802332B
:1021300052F82330FB607B6A03F003039B000F22FD
:1021400002FA03F3DB43FA681340FB607B68404A02
:10215000934213D07B683F4A93420DD07B683E4A3E
:10216000934207D07B683D4A934201D1032306E0A6
:10217000042304E0022302E0012300E000237A6A42
:1021800002F0030292009340FA681343FB602F4968
:102190007B6A9B080233FA6841F823203B685B683E
:1021A00003F48013002B06D02D4B9A682C49BB6991
:1021B00013438B6006E02A4B9A68BB69DB432849CE
:1021C00013408B603B685B6803F40013002B06D060
:1021D000234BDA682249BB691343CB6006E0204BEE
:1021E000DA68BB69DB431E491340CB603B685B6820
:1021F00003F40033002B06D0194B5A681849BB6909
:1022000013434B6006E0164B5A68BB69DB43144925
:1022100013404B603B685B6803F48033002B21D094
:102220000F4B1A680E49BB6913430B6021E000BFD6
:1022300000003210000031100000221000002110B8
:1022400000001210000011100010024000000140B8
:1022500000080140000C0140001001400014014042
:10226000000401400B4B1A68BB69DB43094913406A
:102270000B607B6A01337B623B681A687B6A22FAD7
:1022800003F3002B7FF48EAE00BF00BF2C37BD469A
:1022900080BC70470004014080B485B000AF786016
:1022A0000B467B807B689A687B881340002B02D0AA
:1022B0000123FB7301E00023FB73FB7B18461437FB
:1022C000BD4680BC704780B483B000AF78600B46D9
:1022D0007B8013467B707B78002B03D07A887B68E9
:1022E0001A6103E07B881A047B681A6100BF0C370F
:1022F000BD4680BC704780B485B000AF78600B46A7
:102300007B807B68DB68FB607A88FB6813401A047B
:10231000FB68D9437B880B401A437B681A6100BF76
:102320001437BD4680BC704780B582B000AF03460D
:10233000FB80084B5A69FB881340002B06D0054AE6
:10234000FB885361FB881846FEF75AFF00BF083729
:10235000BD4680BD0004014080B586B000AF786006
:102360007B68002B01D1012372E27B681B6803F0BC
:102370000103002B00F08780924B5B6803F00C0395
:10238000042B0CD08F4B5B6803F00C03082B12D18D
:102390008C4B5B6803F48033B3F5803F0BD1894BE2
:1023A0001B6803F40033002B6CD07B685B68002B48
:1023B00068D101234CE27B685B68B3F5803F06D1AE
:1023C000804B1B687F4A43F4803313602EE07B68A8
:1023D0005B68002B0CD17B4B1B687A4A23F480335B
:1023E0001360784B1B68774A23F4802313601DE049
:1023F0007B685B68B3F5A02F0CD1724B1B68714AE8
:1024000043F4802313606F4B1B686E4A43F48033A0
:1024100013600BE06B4B1B686A4A23F48033136034
:10242000684B1B68674A23F4802313607B685B68F2
:10243000002B13D0FFF794FC386108E0FFF790FC05
:1024400002463B69D31A642B01D9032300E25D4B9A
:102450001B6803F40033002BF0D014E0FFF780FC7E
:10246000386108E0FFF77CFC02463B69D31A642B15
:1024700001D90323ECE1534B1B6803F40033002B19
:10248000F0D100E000BF7B681B6803F00203002B63
:1024900063D04C4B5B6803F00C03002B0BD0494B13
:1024A0005B6803F00C03082B1CD1464B5B6803F4FC
:1024B0008033002B16D1434B1B6803F00203002B23
:1024C00005D07B681B69012B01D00123C0E13D4B86
:1024D0001B6823F0F8027B685B69DB003949134312
:1024E0000B603AE07B681B69002B20D0364B012241
:1024F0001A60FFF735FC386108E0FFF731FC02464F
:102500003B69D31A022B01D90323A1E12D4B1B6890
:1025100003F00203002BF0D02A4B1B6823F0F802D3
:102520007B685B69DB00274913430B6015E0264B92
:1025300000221A60FFF714FC386108E0FFF710FC76
:1025400002463B69D31A022B01D9032380E11D4BBC
:102550001B6803F00203002BF0D17B681B6803F0BB
:102560000803002B3AD07B689B69002B19D0174BCE
:1025700001221A60FFF7F4FB386108E0FFF7F0FB77
:1025800002463B69D31A022B01D9032360E10D4BAC
:102590005B6A03F00203002BF0D0012000F0CEFABA
:1025A0001CE00A4B00221A60FFF7DAFB38610FE0EB
:1025B000FFF7D6FB02463B69D31A022B08D9032347
:1025C00046E100BF00100240000042428004424247
:1025D000924B5B6A03F00203002BE9D17B681B6816
:1025E00003F00403002B00F0A6800023FB758B4B47
:1025F000DB6903F08053002B0DD1884BDB69874AE0
:1026000043F08053D361854BDB6903F08053BB609B
:10261000BB680123FB75824B1B6803F48073002B9E
:1026200018D17F4B1B687E4A43F480731360FFF719
:1026300097FB386108E0FFF793FB02463B69D31A2A
:10264000642B01D9032303E1754B1B6803F48073EA
:10265000002BF0D07B68DB68012B06D16F4B1B6A27
:102660006E4A43F0010313622DE07B68DB68002BA8
:102670000CD16A4B1B6A694A23F001031362674B52
:102680001B6A664A23F0040313621CE07B68DB6864
:10269000052B0CD1614B1B6A604A43F004031362A3
:1026A0005E4B1B6A5D4A43F0010313620BE05B4B18
:1026B0001B6A5A4A23F001031362584B1B6A574A9C
:1026C00023F0040313627B68DB68002B15D0FFF74F
:1026D00047FB38610AE0FFF743FB02463B69D31A28
:1026E00041F28832934201D90323B1E04B4B1B6A7C
:1026F00003F00203002BEED014E0FFF731FB38614A
:102700000AE0FFF72DFB02463B69D31A41F28832FB
:10271000934201D903239BE0404B1B6A03F0020361
:10272000002BEED1FB7D012B05D13C4BDB693B4AF5
:1027300023F08053D3617B68DB69002B00F0878036
:10274000364B5B6803F00C03082B61D07B68DB69B8
:10275000022B46D1334B00221A60FFF701FB386190
:1027600008E0FFF7FDFA02463B69D31A022B01D9B4
:1027700003236DE0294B1B6803F00073002BF0D19D
:102780007B681B6AB3F5803F08D1244B5B6823F458
:1027900000327B689B68214913434B601F4B5B6889
:1027A00023F474127B68196A7B685B6A0B431B49CC
:1027B00013434B601B4B01221A60FFF7D1FA3861BB
:1027C00008E0FFF7CDFA02463B69D31A022B01D984
:1027D00003233DE0114B1B6803F00073002BF0D086
:1027E00035E0104B00221A60FFF7BAFA386108E0B2
:1027F000FFF7B6FA02463B69D31A022B01D903232D
:1028000026E0064B1B6803F00073002BF0D11EE09E
:102810007B68DB69012B07D1012319E0001002401E
:1028200000700040600042420B4B5B68FB60FB683D
:1028300003F480327B681B6A9A4206D1FB6803F47A
:1028400070127B685B6A9A4201D0012300E000238A
:1028500018461837BD4680BD0010024080B584B0D0
:1028600000AF786039607B68002B01D10123D0E094
:102870006A4B1B6803F007033A689A4210D9674B0A
:102880001B6823F0070265493B6813430B60634BE9
:102890001B6803F007033A689A4201D00123B8E0AD
:1028A0007B681B6803F00203002B20D07B681B6849
:1028B00003F00403002B05D0594B5B68584A43F4DE
:1028C000E06353607B681B6803F00803002B05D0AE
:1028D000534B5B68524A43F460535360504B5B6800
:1028E00023F0F0027B689B684D4913434B607B6883
:1028F0001B6803F00103002B40D07B685B68012B51
:1029000007D1474B1B6803F40033002B15D101237B
:102910007FE07B685B68022B07D1414B1B6803F0AB
:102920000073002B09D1012373E03D4B1B6803F0BA
:102930000203002B01D101236BE0394B5B6823F0CC
:1029400003027B685B68364913434B60FFF708FA64
:10295000F8600AE0FFF704FA0246FB68D31A41F276
:102960008832934201D9032353E02D4B5B6803F077
:102970000C027B685B689B009A42EBD1274B1B687B
:1029800003F007033A689A4210D2244B1B6823F0E5
:10299000070222493B6813430B60204B1B6803F07E
:1029A00007033A689A4201D0012332E07B681B6832
:1029B00003F00403002B08D0194B5B6823F4E0629A
:1029C0007B68DB68164913434B607B681B6803F028
:1029D0000803002B09D0124B5B6823F460527B681C
:1029E0001B69DB000E4913434B6000F021F80246DF
:1029F0000B4B5B681B0903F00F030A49CB5C22FAFF
:102A000003F3094A1360094B1B681846FFF766F980
:102A1000002318461037BD4680BD00BF002002408D
:102A200000100240C88500080000002004000020BB
:102A300080B487B000AF0023FB600023BB6000239D
:102A40007B6100237B6000233B611E4B5B68FB6066
:102A5000FB6803F00C03042B02D0082B03D027E003
:102A6000194B3B6127E0FB689B0C03F00F03174AEF
:102A7000D35C7B60FB6803F48033002B10D0114BD8
:102A80005B685B0C03F00103114AD35CBB607B689D
:102A90000D4A03FB02F2BB68B2FBF3F37B6104E077
:102AA0007B680C4A02FB03F37B617B693B6102E0BC
:102AB000054B3B6100BF3B6918461C37BD4680BCD7
:102AC000704700BF0010024000127A00E085000845
:102AD000F085000800093D0080B400AF024B1B6880
:102AE0001846BD4680BC70470000002080B500AF8E
:102AF000FFF7F2FF0246054B5B681B0A03F0070372
:102B00000349CB5C22FA03F3184680BD0010024053
:102B1000D885000880B500AFFFF7DEFF0246054B01
:102B20005B68DB0A03F007030349CB5C22FA03F37B
:102B3000184680BD00100240D885000880B485B0DA
:102B400000AF78600A4B1B680A4AA2FB03235B0AAA
:102B50007A6802FB03F3FB6000BFFB685A1EFA6051
:102B6000002BF9D100BF00BF1437BD4680BC7047B1
:102B700000000020D34D621080B582B000AF7860B5
:102B80007B68002B01D1012376E07B685B6A002B18
:102B900008D17B685B68B3F5827F09D07B6800222F
:102BA000DA6105E07B6800221A617B6800225A61C5
:102BB0007B6800229A627B6893F85130DBB2002B6D
:102BC00006D17B68002283F850207868FEF720FE4B
:102BD0007B68022283F851207B681B681A687B6837
:102BE0001B6822F040021A607B685B6803F4827203
:102BF0007B689B6803F404431A437B68DB6803F437
:102C000000631A437B681B6903F002031A437B6865
:102C10005B6903F001031A437B689B6903F400734B
:102C20001A437B68DB6903F038031A437B681B6A2D
:102C300003F0800342EA03017B689B6A03F40052BD
:102C40007B681B680A431A607B689B691A0C7B6867
:102C50001B6802F004025A607B681B68DA697B68B3
:102C60001B6822F40062DA617B6800225A657B6887
:102C7000012283F85120002318460837BD4680BD45
:102C800080B582B000AF78607B68002B01D1012352
:102C900041E07B6893F83D30DBB2002B06D17B68C6
:102CA000002283F83C207868FEF7FCFD7B68022256
:102CB00083F83D207B681A687B6804331946104608
:102CC00000F022FB7B68012283F846207B6801220A
:102CD00083F83E207B68012283F83F207B68012235
:102CE00083F840207B68012283F841207B68012221
:102CF00083F842207B68012283F843207B6801220D
:102D000083F844207B68012283F845207B680122F8
:102D100083F83D20002318460837BD4680BD0000DB
:102D200080B485B000AF78607B6893F83D30DBB24B
:102D3000012B01D0012332E07B68022283F83D2081
:102D40007B681B68184A93420ED07B681B68B3F1FE
:102D5000804F09D07B681B68144A934204D07B687B
:102D60001B68134A934211D17B681B689B6803F070
:102D70000703FB60FB68062B10D07B681B681A6892
:102D80007B681B6842F001021A6007E07B681B68E1
:102D90001A687B681B6842F001021A60002318461B
:102DA0001437BD4680BC7047002C01400004004031
:102DB0000008004080B483B000AF78607B681B6877
:102DC0001A6A41F211131340002B0FD17B681B6864
:102DD0001A6A40F244431340002B07D17B681B68FA
:102DE0001A687B681B6822F001021A607B68012266
:102DF00083F83D20002318460C37BD4680BC704741
:102E000080B582B000AF78607B68002B01D10123D0
:102E100041E07B6893F83D30DBB2002B06D17B6844
:102E2000002283F83C20786800F039F87B680222A1
:102E300083F83D207B681A687B6804331946104686
:102E400000F062FA7B68012283F846207B68012249
:102E500083F83E207B68012283F83F207B680122B3
:102E600083F840207B68012283F841207B6801229F
:102E700083F842207B68012283F843207B6801228B
:102E800083F844207B68012283F845207B68012277
:102E900083F83D20002318460837BD4680BD80B426
:102EA00083B000AF786000BF0C37BD4680BC704770
:102EB00080B584B000AF786039603B68002B09D1E1
:102EC0007B6893F83E30DBB2012B14BF0123002353
:102ED000DBB222E03B68042B09D17B6893F83F30DA
:102EE000DBB2012B14BF01230023DBB215E03B68EA
:102EF000082B09D17B6893F84030DBB2012B14BF5B
:102F000001230023DBB208E07B6893F84130DBB299
:102F1000012B14BF01230023DBB2002B01D00123BE
:102F20005EE03B68002B04D17B68022283F83E20E0
:102F300013E03B68042B04D17B68022283F83F2016
:102F40000BE03B68082B04D17B68022283F8402009
:102F500003E07B68022283F841207B681B68012222
:102F60003968184600F050FC7B681B681E4A934283
:102F700007D17B681B685A6C7B681B6842F400426F
:102F80005A647B681B68184A93420ED07B681B68A2
:102F9000B3F1804F09D07B681B68144A934204D078
:102FA0007B681B68124A934211D17B681B689B683F
:102FB00003F00703FB60FB68062B10D07B681B68DF
:102FC0001A687B681B6842F001021A6007E07B68A0
:102FD0001B681A687B681B6842F001021A600023B4
:102FE00018461037BD4680BD002C0140000400404B
:102FF0000008004080B586B000AFF860B9607A6024
:103000000023FB75FB6893F83C30012B01D10223B0
:10301000AEE0FB68012283F83C207B680C2B00F2B9
:103020009F8001A252F823F05D3000086131000852
:1030300061310008613100089D30000861310008ED
:103040006131000861310008DF300008613100089B
:1030500061310008613100081F310008FB681B68FE
:10306000B968184600F0B2F9FB681B689A69FB68FA
:103070001B6842F008029A61FB681B689A69FB684A
:103080001B6822F004029A61FB681B689969BB689F
:103090001A69FB681B680A439A6164E0FB681B6855
:1030A000B968184600F0F8F9FB681B689A69FB6874
:1030B0001B6842F400629A61FB681B689A69FB68AE
:1030C0001B6822F480629A61FB681B689969BB687F
:1030D0001B691A02FB681B680A439A6143E0FB689C
:1030E0001B68B968184600F041FAFB681B68DA698A
:1030F000FB681B6842F00802DA61FB681B68DA694A
:10310000FB681B6822F00402DA61FB681B68D9695E
:10311000BB681A69FB681B680A43DA6123E0FB6835
:103120001B68B968184600F08BFAFB681B68DA69FF
:10313000FB681B6842F40062DA61FB681B68DA69AD
:10314000FB681B6822F48062DA61FB681B68D9693E
:10315000BB681B691A02FB681B680A43DA6102E05C
:103160000123FB7500BFFB68002283F83C20FB7D38
:1031700018461837BD4680BD80B584B000AF786072
:1031800039600023FB737B6893F83C30012B01D13D
:103190000223B4E07B68012283F83C207B68022292
:1031A00083F83D207B681B689B68BB60BB6823F08D
:1031B0007703BB60BB6823F47F43BB607B681B68FD
:1031C000BA689A603B681B68B3F5005F3ED0B3F500
:1031D000005F00F28780B3F5805F00F08680B3F572
:1031E000805F7FD8702B1AD0702B7BD8602B50D08B
:1031F000602B77D8502B3CD0502B73D8402B58D015
:10320000402B6FD8302B64D0302B6BD8202B60D064
:10321000202B67D8002B5CD0102B5AD062E07B6843
:1032200018683B6899683B685A683B68DB6800F03F
:10323000CCFA7B681B689B68BB60BB6843F0770374
:10324000BB607B681B68BA689A604FE07B6818684F
:103250003B6899683B685A683B68DB6800F0B5FAE0
:103260007B681B689A687B681B6842F480429A609E
:103270003CE07B6818683B6859683B68DB681A4625
:1032800000F02CFA7B681B685021184600F083FA86
:103290002CE07B6818683B6859683B68DB681A4615
:1032A00000F04AFA7B681B686021184600F073FA48
:1032B0001CE07B6818683B6859683B68DB681A4605
:1032C00000F00CFA7B681B684021184600F063FA96
:1032D0000CE07B681A683B681B681946104600F0D2
:1032E0005AFA03E00123FB7300E000BF7B68012270
:1032F00083F83D207B68002283F83C20FB7B184646
:103300001037BD4680BD000080B485B000AF786046
:1033100039607B681B68FB607B68294A93420BD04D
:103320007B68B3F1804F07D07B68264A934203D075
:103330007B68254A934208D1FB6823F07003FB6049
:103340003B685B68FA681343FB607B681C4A9342E6
:103350000BD07B68B3F1804F07D07B68194A93424A
:1033600003D07B68184A934208D1FB6823F440736A
:10337000FB603B68DB68FA681343FB60FB6823F083
:1033800080023B685B691343FB607B68FA681A60E4
:103390003B689A687B68DA623B681A687B689A6265
:1033A0007B68074A934203D13B681A697B681A63BA
:1033B0007B6801225A6100BF1437BD4680BC70474C
:1033C000002C0140000400400008004080B487B099
:1033D00000AF786039607B681B6A7B617B681B6A21
:1033E00023F001027B681A627B685B683B617B6843
:1033F0009B69FB60FB6823F07003FB60FB6823F0B4
:103400000303FB603B681B68FA681343FB607B693E
:1034100023F002037B613B689B687A6913437B61FD
:103420007B681C4A93420CD17B6923F008037B61C3
:103430003B68DB687A6913437B617B6923F0040393
:103440007B617B68134A934211D13B6923F48073FB
:103450003B613B6923F400733B613B685B693A69FC
:1034600013433B613B689B693A6913433B617B684B
:103470003A695A607B68FA689A613B685A687B6867
:103480005A637B687A691A6200BF1C37BD4680BCEC
:10349000704700BF002C014080B487B000AF786057
:1034A00039607B681B6A7B617B681B6A23F01002B2
:1034B0007B681A627B685B683B617B689B69FB6029
:1034C000FB6823F4E043FB60FB6823F44073FB607C
:1034D0003B681B681B02FA681343FB607B6923F09F
:1034E00020037B613B689B681B017A6913437B6106
:1034F0007B681D4A93420DD17B6923F080037B6179
:103500003B68DB681B017A6913437B617B6923F0AD
:1035100040037B617B68144A934213D13B6923F4D7
:1035200080633B613B6923F400633B613B685B69FB
:103530009B003A6913433B613B689B699B003A6976
:1035400013433B617B683A695A607B68FA689A6109
:103550003B685A687B689A637B687A691A6200BF25
:103560001C37BD4680BC7047002C014080B487B03A
:1035700000AF786039607B681B6A7B617B681B6A7F
:1035800023F480727B681A627B685B683B617B68AE
:10359000DB69FB60FB6823F07003FB60FB6823F0D2
:1035A0000303FB603B681B68FA681343FB607B699D
:1035B00023F400737B613B689B681B027A691343A9
:1035C0007B617B681D4A93420DD17B6923F40063C4
:1035D0007B613B68DB681B027A6913437B617B6913
:1035E00023F480637B617B68144A934213D13B6967
:1035F00023F480533B613B6923F400533B613B68F8
:103600005B691B013A6913433B613B689B691B0182
:103610003A6913433B617B683A695A607B68FA6890
:10362000DA613B685A687B68DA637B687A691A6298
:1036300000BF1C37BD4680BC704700BF002C014056
:1036400080B487B000AF786039607B681B6A3B61EB
:103650007B681B6A23F480527B681A627B685B6814
:103660007B617B68DB69FB60FB6823F4E043FB6004
:10367000FB6823F44073FB603B681B681B02FA681D
:103680001343FB603B6923F400533B613B689B6839
:103690001B033A6913433B617B680F4A934209D18C
:1036A0007B6923F480437B613B685B699B017A699A
:1036B00013437B617B687A695A607B68FA68DA61D8
:1036C0003B685A687B681A647B683A691A6200BF73
:1036D0001C37BD4680BC7047002C014080B487B0C9
:1036E00000AFF860B9607A60FB681B6A7B61FB68B9
:1036F0001B6A23F00102FB681A62FB689B693B614D
:103700003B6923F0F0033B617B681B013A6913437B
:103710003B617B6923F00A037B617A69BB681343D1
:103720007B61FB683A699A61FB687A691A6200BF3B
:103730001C37BD4680BC704780B487B000AFF860CE
:10374000B9607A60FB681B6A7B61FB681B6A23F0C7
:103750001002FB681A62FB689B693B613B6923F4BA
:1037600070433B617B681B033A6913433B617B6990
:1037700023F0A0037B61BB681B017A6913437B6163
:10378000FB683A699A61FB687A691A6200BF1C3764
:10379000BD4680BC704780B485B000AF78603960AA
:1037A0007B689B68FB60FB6823F07003FB603A68F2
:1037B000FB68134343F00703FB607B68FA689A6079
:1037C00000BF1437BD4680BC704780B487B000AFDF
:1037D000F860B9607A603B60FB689B687B617B69DD
:1037E00023F47F437B613B681A027B681A43BB6802
:1037F00013437A6913437B61FB687A699A6000BF5F
:103800001C37BD4680BC704780B487B000AFF860FD
:10381000B9607A60BB6803F01F03012202FA03F368
:103820007B61FB681A6A7B69DB431A40FB681A629A
:10383000FB681A6ABB6803F01F03796801FA03F397
:103840001A43FB681A6200BF1C37BD4680BC704734
:1038500080B485B000AF786039607B6893F83C3005
:10386000012B01D1022346E07B68012283F83C2032
:103870007B68022283F83D207B681B685B68FB60E5
:103880007B681B689B68BB60FB6823F07003FB6070
:103890003B681B68FA681343FB607B681B68FA6827
:1038A0005A607B681B68164A93420ED07B681B687F
:1038B000B3F1804F09D07B681B68124A934204D051
:1038C0007B681B68104A93420CD1BB6823F08003CD
:1038D000BB603B685B68BA681343BB607B681B686E
:1038E000BA689A607B68012283F83D207B680022D9
:1038F00083F83C20002318461437BD4680BC70472F
:10390000002C0140000400400008004080B485B055
:1039100000AF786039600023FB607B6893F83C302F
:10392000012B01D102233DE07B68012283F83C207A
:10393000FB6823F0FF023B68DB681343FB60FB6816
:1039400023F440723B689B681343FB60FB6823F4DD
:1039500080623B685B681343FB60FB6823F4006292
:103960003B681B681343FB60FB6823F480523B6891
:103970001B691343FB60FB6823F400523B685B69DF
:103980001343FB60FB6823F480423B68DB6913430D
:10399000FB607B681B68FA685A647B68002283F8C6
:1039A0003C20002318461437BD4680BC704780B5C4
:1039B00082B000AF78607B68002B01D1012342E028
:1039C0007B6893F84130DBB2002B06D17B68002284
:1039D00083F840207868FEF713F87B68242283F888
:1039E00041207B681B68DA687B681B6822F4005200
:1039F000DA60786800F01CF97B681B681A697B68DC
:103A00001B6822F490421A617B681B685A697B68C4
:103A10001B6822F02A025A617B681B68DA687B689F
:103A20001B6842F40052DA607B6800225A647B68AB
:103A3000202283F841207B68202283F842207B6883
:103A400000225A63002318460837BD4680BD80B562
:103A50008AB002AFF860B9603B601346FB80002378
:103A60007B61FB6893F84130DBB2202B6DD1BB68E2
:103A7000002B02D0FB88002B01D1012366E0FB68FC
:103A800000225A64FB68212283F84120FEF768F97E
:103A90007861FB68FA889A84FB68FA88DA84FB68A4
:103AA0009B68B3F5805F08D1FB681B69002B04D1CC
:103AB0000023FB61BB68BB6103E0BB68FB610023C3
:103AC000BB612AE03B6800937B6900228021F86893
:103AD00000F040F80346002B01D0032336E0FB69D9
:103AE000002B0BD1BB691B881A46FB681B68C2F30D
:103AF00008025A60BB690233BB6107E0FB691A78B0
:103B0000FB681B685A60FB690133FB61FB68DB8C57
:103B10009BB2013B9AB2FB68DA84FB68DB8C9BB2F8
:103B2000002BCFD13B6800937B6900224021F868CD
:103B300000F010F80346002B01D0032306E0FB68D9
:103B4000202283F84120002300E00223184620377A
:103B5000BD4680BD80B590B000AFF860B9603B60F5
:103B60001346FB7150E0BB6CB3F1FF3F4CD0BB6C14
:103B7000002B07D0FEF7F4F802463B68D31ABA6C64
:103B80009A4241D2FB681B680C33BB62BB6A53E8A4
:103B9000003F7B627B6A23F4D073FB63FB681B6886
:103BA0000C33FA6B7A633B63396B7A6B41E8002321
:103BB000FB62FB6A002BE5D1FB681B6814337B6159
:103BC0007B6953E8003F3B613B6923F00103BB6322
:103BD000FB681B681433BA6B3A62FB61F9693A6A95
:103BE00041E80023BB61BB69002BE5D1FB682022C3
:103BF00083F84120FB68202283F84220FB680022E2
:103C000083F8402003230FE0FB681B681A68BB6839
:103C10001340BA689A420CBF01230023DBB21A4654
:103C2000FB799A429FD0002318464037BD4680BD9D
:103C300080B584B000AF78607B681B681B6923F493
:103C400040517B68DA687B681B680A431A617B68AD
:103C50009A687B681B691A437B685B691343BB6086
:103C60007B681B68DB6823F4B05323F00C037A688D
:103C70001268B9680B43D3607B681B685B6923F4E7
:103C800040717B689A697B681B680A435A617B684C
:103C90001B682C4A934203D1FEF73CFFF86002E018
:103CA000FEF724FFF860FA6813469B0013449A005D
:103CB0001A447B685B689B00B2FBF3F3224AA2FBC9
:103CC00003235B091901FA6813469B0013449A0009
:103CD0001A447B685B689B00B2FBF3F21A4BA3FBB0
:103CE00002035B09642000FB03F3D31A1B01323388
:103CF000154AA2FB03235B0903F0F0031944FA6899
:103D000013469B0013449A001A447B685B689B002F
:103D1000B2FBF3F20C4BA3FB02035B09642000FB34
:103D200003F3D31A1B013233074AA2FB03235B09B7
:103D300003F00F027B681B680A449A6000BF1037CB
:103D4000BD4680BD003801401F85EB51002B2DE999
:103D5000F0471F46BBBF03F100431F4600232D233E
:103D600088B01446129A109D1370149BDDF84CA075
:103D700023F02008B8F1460F05D0B8F1450F00D167
:103D80000135022300E0032307AA049206AACDE925
:103D900002A2CDE9003522463B4601F075F9B8F1A3
:103DA000470F064602D1119BDB0722D5B8F1460F1B
:103DB00006EB050910D13378302B0AD100220023FD
:103DC00020463946FCF7F0FD18B9C5F10105CAF8DF
:103DD0000050DAF80030994400220023204639468A
:103DE000FCF7E2FD08B1CDF81C903022079B4B4553
:103DF00007D33046079B159A9B1B136008B0BDE89C
:103E0000F087591C07911A70F0E70346F7B50029AF
:103E100003F8022BB6BF2D222B22494209294270FA
:103E20002ADD0DF1070217460A2691FBF6F59446A6
:103E300006FB151430340CF8014C0C46632C294653
:103E400002F1FF32F1DC3031ACF1020402F8011C66
:103E50002246411CBA420AD30DF10902A2EB0C0220
:103E6000BC4288BF00221344181A03B0F0BD12F8F8
:103E7000015B01F8015FEDE7302330318370C170E1
:103E8000031DF1E72DE9F04F91B00C46DDF8688095
:103E900016461F46054600F0E3FF036818460993DF
:103EA000FCF756F900230E93D8F800300A90073338
:103EB00023F0070303F1080294F81890D4F800B037
:103EC000C8F80020D3E900A852464346C4E91223AB
:103ED00028F000430B934FF0FF3250469C4B0B9958
:103EE000FCF794FD70BB4FF0FF325046984B0B9996
:103EF000FCF76EFD30BB0022002350464146FCF724
:103F00005DFD10B12D2384F84330924A924BB9F1F4
:103F1000470F94BF9046984603234FF0000A236151
:103F20002BF00403236033462146284600970FAA4E
:103F300000F0D6F9013040F090804FF0FF3011B022
:103F4000BDE8F08F5246434650464146FCF75EFDC1
:103F500048B1B8F1000FB8BF2D23804AB8BF84F82C
:103F600043307F4BD3E7636809F0DF015A1C42D12D
:103F700006236360002206920EAACDE904920DAAE0
:103F80004BF4806303920DF13302CDE901322360DB
:103F9000636852460093284643460B91FFF7D6FECE
:103FA0000B99804647290D9908D1C81C02DB63682C
:103FB000994240DDA9F102095FFA89F9B9F1650F6B
:103FC0001FD84A46013904F150000D91FFF71DFF3B
:103FD0000E9A82461318012A236102DC2268D20756
:103FE00001D5013323619DF83330002B9BD02D2365
:103FF00084F8433097E74729BCD1002BBAD101237D
:10400000B7E7B9F1660F18D1002963680BDD2161AC
:1040100013B92268D00702D501330B4423614FF056
:10402000000AA165DFE713B92268D20701D5023380
:10403000F4E70123F2E74FF067090E9B994205DB95
:1040400023682161D807EAD54B1CE7E70029CCBFDC
:104050000122C1F102021344E0E723685A0507D4A4
:104060002369424631462846B84701302BD164E7E0
:10407000B9F1650F40F2DD80D4E91201002200237E
:10408000FCF792FC002833D0012331462846354AFC
:10409000B84701303FF451AFDDE90D239A4202DB0E
:1040A0002368D8070FD5DDE9092331462846B847EC
:1040B00001303FF442AF4FF0000804F11A090E9BA3
:1040C000013B434509DC23689B0700F10481E0685C
:1040D0000F9B9842B8BF184631E701234A46314644
:1040E0002846B84701303FF428AF08F10108E6E759
:1040F0000D9B002B38DC012331462846194AB8476E
:1041000001303FF41AAFDDE90D32134302D12368C9
:10411000D907D8D5DDE9092331462846B84701300B
:104120003FF40BAF4FF0000904F11A0A0D9B5B42FC
:104130004B4501DC0E9B94E701235246314628464D
:10414000B84701303FF4F9AE09F10109EEE700BFCD
:10415000FFFFEF7FF2850008F6850008FA8500086A
:10416000FE850008028600080E9AA36D9A42A8BF39
:104170001A46002A914637DC4FF0000B29EAE9790C
:1041800004F11A02D4F858A0AAEB09035B4533DC0A
:10419000DDE90D239A423BDB2368DA0738D4DDE9F9
:1041A0000D32A2EB0309A2EB0A029145A8BF91468A
:1041B000B9F1000F34DC4FF0000829EAE97904F185
:1041C0001A0ADDE90D239B1AA3EB090343457FF788
:1041D0007AAF0123524631462846B84701303FF4B2
:1041E000ACAE08F10108ECE71346314642462846DA
:1041F000B8470130C0D1A0E60123314628460B92D2
:10420000B84701303FF499AE0B9A0BF1010BB9E7B7
:104210003146DDE909232846B8470130BFD18CE695
:104220004B463146284608EB0A02B8470130C2D156
:1042300083E60E9A012A01DCDB0739D501234246C9
:1042400031462846B84701303FF477AEDDE909230F
:1042500031462846B84701303FF46FAED4E9120129
:1042600000220023DDF83890FCF79EFBD8B909F155
:10427000FF3308F1010231462846B84701300ED11C
:104280005BE601234A4631462846B84701303FF4F1
:1042900054AE08F101080E9B013B4345F1DC534647
:1042A00004F15002DEE64FF0000804F11A09F2E7CB
:1042B00001234246DFE701234A4631462846B847F4
:1042C00001303FF43AAE08F10108E3680F995B1A38
:1042D0004345F0DCFBE64FF0000804F11909F4E770
:1042E0002DE9F047164699468A680B6907469342BE
:1042F000B8BF1346336091F843200C46DDF82080A8
:104300000AB1013333602368990642BF3368023330
:104310003360256815F0060506D104F1190AE36833
:1043200032689B1AAB422BDC94F84320131E2268A0
:1043300018BF0123920630D44946384604F143029F
:10434000C047013023D02368226903F00603042B01
:1043500014BF002533684FF0000608BFE56804F17C
:104360001A0408BFED1A54F8123C08BF25EAE57597
:104370009342C4BF9B1AED18B5421AD1002008E041
:104380000123524649463846C047013003D14FF019
:10439000FF30BDE8F0870135C1E73020E11881F832
:1043A00043005A1C94F845102244023382F843100B
:1043B000C2E70123224649463846C0470130E6D0CD
:1043C0000136D9E72DE9FF470F7E9146782F8046C9
:1043D0000C469A460C9D01F1430207D8622F0AD879
:1043E000002F00F0D580582F00F0C18004F1420565
:1043F00084F842703AE0A7F16303152BF6D801A1C7
:1044000051F823F05D44000871440008ED430008B2
:10441000ED430008ED430008ED4300087144000837
:10442000ED430008ED430008ED430008ED430008AC
:10443000774500089D44000831450008ED43000819
:10444000ED43000899450008ED4300089D4400082D
:10445000ED430008ED430008394500082B681A1D9C
:104460001B682A6004F1420584F842300123A0E071
:1044700020682B68070603F10401296001D51E6836
:1044800003E04606FBD5B3F90060002E03DA2D23C6
:10449000764284F843300A23594812E02B6820689A
:1044A000191D2960050601D51E6802E04106FBD5ED
:1044B0001E886F2F0CBF08230A235148002184F85F
:1044C00043106568002DA8BF2168A560A4BF21F036
:1044D000040121600EB9002D4BD01546B6FBF3F157
:1044E00003FB1167C75D05F8017D3746BB420E46E9
:1044F000F4D9082B0BD12368DE0708D5236961683E
:104500009942DEBF302305F8013C05F1FF35521B0F
:1045100022614B4621464046CDF800A003AAFFF792
:10452000DFFE01304AD14FF0FF3004B0BDE8F08724
:10453000236843F0200323607827324884F84570CD
:10454000236829681F0651F8046B02D45F0648BF30
:10455000B6B2DF0748BF43F02003296048BF23609D
:104560001EB9236823F0200323601023A6E7244804
:10457000E4E71546BDE72B682668181D61692860C9
:1045800035061B6801D5196002E07006FBD519805D
:10459000002315462361BCE72B6800211A1D2A6001
:1045A0001D686268284600F0D1FC08B1401B6060BD
:1045B00063682361002384F84330AAE72A4649460A
:1045C00040462369D0470130ADD023689B0713D400
:1045D000E068039B9842B8BF1846A6E7012332461D
:1045E00049464046D04701309DD00135E3680399E4
:1045F0005B1AAB42F2DCEBE7002504F11906F5E7A4
:1046000004860008158600082DE9F04F87B0039353
:104610008B6817465A1EB2F5AE7F85BF6FF4AE7534
:104620005B190023029388BF40F25D138B464FF065
:1046300000058CBF8B6002930B68804643F4F063E7
:104640004BF81C3B0C465E46AA46A946CDE90455EC
:104650000195A26852B13B681B784E2B64D8402B61
:104660003CD8A3F12B01C8B20E283AD9B9F1000FFA
:1046700003D0236823F4807323600AF1FF3ABAF170
:10468000010F00F213815E4500F2058101252846E5
:1046900007B0BDE8F08FA3F161020D2AE6D801A1B1
:1046A00051F822F0E34700086D4600086D46000807
:1046B0006D460008434800081B4800086D46000886
:1046C0006D460008F14700086D4600086D46000879
:1046D0006D4600086D460008A9470008A3F1410295
:1046E000DBE70E29C2D801A050F821F09B47000853
:1046F0006D4600089B4700082F4800086D460008DB
:104700004947000885470008854700088547000895
:104710008547000885470008854700088547000849
:1047200085470008854700086E2B09D8602BB2D852
:10473000542B77D0592B99D1072D97D1082529E0F3
:10474000742B6FD0792BF6E72168C8051AD5029B28
:1047500021F08001216009F101091BB1013B013207
:104760000293A260A368013BA36023690133236124
:104770007B68013B002B7B6040F384803B68013306
:104780003B6066E71AEB050F7FF470AF226822F4F6
:10479000C072226006F8013BE4E7226810067FF54C
:1047A00065AF22F08002F4E7BAF1000F0ED1B9F143
:1047B000000F0ED1226802F4E061B1F5E06F08D17C
:1047C00022F4F0624FF0010A2260E3E7BAF1020F2F
:1047D00055D0012D02D0042D7FF448AF0135EDB244
:1047E000D8E7BAF1010F7FF441AF4FF0020AD1E7E9
:1047F0007DB9B9F1000F7FF43CAF226802F4E061AB
:10480000B1F5E06F7FF439AF22F4F0620125226048
:10481000C0E7032DE2D0052DDEE7022D7FF426AFA1
:104820000325B7E7062D7FF421AF0725B2E72268FD
:1048300091057FF51BAF22F420722260CDF8049021
:10484000A8E7226802F4A061B1F5806F06D0500598
:104850007FF50CAFB9F1000F3FF40FAF910558BFD2
:10486000019922F4F06258BFA9EB010142F4C07231
:104870004FF0000958BFCDE9041622608AE74FF0D7
:10488000030A87E739464046D4F880319847002824
:104890003FF4DFAEEAE6D4F87C313A46404616F8FB
:1048A000011D98472369013B2361ECE66B1E062B33
:1048B00025D8022D36D85E457FF6E8AED4F87C3197
:1048C0003A46404616F8011D98472369013B23618B
:1048D000F1E70298D4F87C3110F8011D3A460290B5
:1048E000404698472369013B23610AF1FF3A5FFA8A
:1048F0008AFABAF1020FECD1033DEDB2761B2368C0
:10490000DA052FD55B0510D55E457FF6BFAED4F82E
:104910007C313A46404616F8011D98472369013B11
:104920002361F1E7AA460296DFE716F8011C236926
:10493000652903F1FF3306F1FF3523610CD04529CA
:104940000AD0D4F87C313A4640469847236916F895
:10495000021C013BB51E23613A464046D4F87C3127
:1049600098472E46256815F0100555D135702368F7
:1049700003F4C063B3F5806F1DD1019B4B45A3EBDE
:10498000090225D100225946404602F011FD039B41
:10499000D4F800C01B681CF0020F06460F4603F156
:1049A000040220D003990A601B68C3E90067E3682A
:1049B0000133E3606BE6049B002BE3D005990A23E7
:1049C0002A464046013102F077FD049B059EC21A3B
:1049D00004F26F139E4228BF04F5B77630460F49A4
:1049E00000F03EF9CEE71CF0040FDBD1DDF80CC07F
:1049F000CCF80020D3F8008002460B46FCF706F8FE
:104A000028B1074800F0B0FAC8F80000CFE73046F8
:104A10003946FCF759F8F7E7002538E626860008FE
:104A2000BD890008002310B50446C0E90033C0E981
:104A30000433836081814366C28183611946082201
:104A40005C3000F005FA054B24626362044BA362FC
:104A5000044BE362044B236310BD00BFA14C00086C
:104A6000C34C0008FB4C00081F4D0008024A0349D4
:104A7000034800F069B800BF0C000020F57A000878
:104A80001800002041680C4B10B59942044601D033
:104A900003F030F8A168094B994202D0204603F098
:104AA00029F8E168064B994204D02046BDE8104041
:104AB00003F020B810BD00BFB80300202004002080
:104AC0008804002010B50B4B0B4C0C4A20461A6092
:104AD00004210022FFF7A6FF04F16800012209214A
:104AE000FFF7A0FF04F1D0000222BDE81040122120
:104AF000FFF798BFF0040020B80300206D4A0008BB
:104B0000014800F021BA00BFF9040020014800F07C
:104B10001CBA00BFF904002010B50446FFF7F0FFEF
:104B2000236A1BB1BDE81040FFF7F0BF044B2362BE
:104B3000044B1B68002BF5D1FFF7C4FFF2E700BF61
:104B4000854A0008F00400202DE9F843074688460E
:104B500014460026D4E90195B9F1010905D5246868
:104B6000002CF7D13046BDE8F883AB89012B07D97B
:104B7000B5F90E30013303D029463846C047064305
:104B80006835E9E70FB407B5064904AB086853F880
:104B9000042B8168019302F011FE03B05DF804EB71
:104BA00004B0704764000020036A70B505460E46E5
:104BB00084680BB9FFF7B0FF636EDB0705D4A389E8
:104BC000980502D4A06D00F0BFF9A389190713D589
:104BD00023698BB1013EA36816F8011F013BA36056
:104BE000E9B9002B2EDA22460A21284600F09BF86C
:104BF000013007D00A2507E02146284600F0D0F80A
:104C00000028E7D04FF0FF35636EDA0705D4A3899B
:104C10009B0502D4A06D00F098F9284670BD002BCA
:104C200004DAA2699A4206DC0A2904D023685A1CD5
:104C300022601970CFE72246284600F074F8013050
:104C4000C9D1DFE70A2523685A1C22601D70DBE703
:104C5000024B01461868FFF7A7BF00BF64000020A1
:104C60000EB46FF0004100B59CB01DAB02900690F1
:104C7000079104910848094953F8042B05910068ED
:104C800002A9019302F074FC0022029B1A701CB06E
:104C90005DF804EB03B07047640000200802FFFFDA
:104CA00010B50C46B1F90E1000F000F90028ABBFAA
:104CB000636DA3891B1823F48053ACBF6365A38184
:104CC00010BD2DE9F0411F468B890546DB050C46DA
:104CD000164605D502230022B1F90E1000F0D4F8D3
:104CE000A389324623F48053A38128463B46B4F976
:104CF0000E10BDE8F04100F0EBB810B50C46B1F96C
:104D00000E1000F0C1F8431CA38915BF606523F4A1
:104D1000805343F48053A38118BFA38110BDB1F920
:104D20000E1000F0A1B8F8B50E461446054618B1AD
:104D3000036A0BB9FFF7F0FEA369A360A3891A0702
:104D400025D523691BB323682269F6B2981A6369D3
:104D50003746834204DC2146284602F0CBFEE0B908
:104D6000A368013BA36023685A1C22601E7062691D
:104D7000431C9A4204D0A389DB0706D50A2E04D12E
:104D80002146284602F0B6FE38B93846F8BD21461D
:104D9000284600F005F80028D5D04FF0FF37F4E79B
:104DA00038B52A4B054618680C4618B1036A0BB98A
:104DB000FFF7B2FEA389B4F90C20180722D4D90654
:104DC00007D409232B6042F040034FF0FF30A3814A
:104DD00034E0580712D5616B41B104F144039942A4
:104DE00002D0284600F034FF00236363A38923F038
:104DF0002403A3810023636023692360A38943F014
:104E00000803A38123694BB9A38903F42073B3F585
:104E1000007F03D02146284602F0B9FEA089B4F9EC
:104E20000C2010F001030AD00023A36063695B42E9
:104E3000A361236943B910F08000C4D138BD810754
:104E400058BF6369A360F4E70020F7E7640000201F
:104E500003460244934200D1704703F8011BF9E76F
:104E6000004870475801002038B50023054D04461E
:104E700008462B60FCF78AFE431C02D12B6803B165
:104E8000236038BDF404002038B5044608461146B6
:104E90000022054D2A601A46FCF79CFE431C02D1F5
:104EA0002B6803B1236038BDF404002038B50446F4
:104EB000084611460022054D2A601A46FCF749FEB5
:104EC000431C02D12B6803B1236038BDF4040020D9
:104ED00038B50446084611460022054D2A601A4698
:104EE000FCF764F8431C02D12B6803B1236038BD82
:104EF000F4040020014B1868704700BF64000020D4
:104F000070B500260C4D0D4C641BA410A64209D1AF
:104F100003F02CFB00260A4D0A4C641BA410A64289
:104F200005D170BD55F8043B98470136EEE755F8BA
:104F3000043B98470136F2E7208A0008208A0008DF
:104F4000208A0008248A000870477047034610B57D
:104F5000C9B202449342184601D1002003E004780C
:104F600001338C42F6D110BD004870470000C07F6D
:104F70002DE9F74F03690C690746A3427FDB013C2B
:104F800000F1140501F1140805EB8403019358F8AE
:104F9000243055F8242001339A42B2FBF3F64FEA4D
:104FA000840B08EB840931D34FF0000E4046AC4629
:104FB000F24650F8042B93B206FB03E34FEA124E7D
:104FC0001A0C9BB206FB0E22AAEB0303DCF800A02E
:104FD0004FEA124E1FFA8AFA5344DCF800A092B24C
:104FE000C2EB1A4202EB23429BB243EA02438145E1
:104FF0004FEA224A4CF8043BDBD255F80B302BB970
:10500000019B043B9D421A462DD33C61384601F07A
:10501000DFF9002823DB29460020013658F8042B4D
:10502000D1F800C093B2C31A120C1FFA8CF00344DB
:10503000C2EB1C4202EB23429BB243EA0243C1454E
:105040004FEA224041F8043BE8D255F8242005EB12
:10505000840322B9043B9D421A460AD33C61304680
:1050600003B0BDE8F08F1268043B002ACDD1013CAB
:10507000C8E71268043B002AF0D1013CEBE70020AE
:10508000EEE70000000000002DE9F04F16461F4635
:10509000C46999B00546CDE90467DDF8948074B918
:1050A000102000F01DFE0246E86120B9EF21AC4B54
:1050B000AC4802F01BFEC0E901440460C460EB6927
:1050C000196851B15A68012393404A608B602846A1
:1050D00000F0FAFE0022EB691A603B1EAFBF00230E
:1050E000012223F000430593A8BFC8F80030DDF883
:1050F00014909D4BB8BFC8F8002033EA090319D1BA
:1051000042F20F73249A1360C9F31303334300F080
:105110008985269B53B9954B23E0954B0393083320
:10512000269A1360039819B0BDE8F08F8F4B039354
:105130000333F5E7DDE90434CDE90C34DDE90C0196
:1051400000220023FBF730FC804660B10123249A43
:105150001360269B002B00F06285864B269A136015
:10516000013B0393DEE716AB019317AB0093284690
:10517000DDE90C2301F03CFAC9F30A548246002C05
:105180007ED0DDE90C010D9BA4F2FF34C3F31303C1
:1051900043F07F5343F44013CDF84C80194600226E
:1051A000754BFAF7E1FF68A3D3E90023FBF794F905
:1051B00067A3D3E90023FAF7D9FF064620460F4636
:1051C000FBF720F964A3D3E90023FBF785F9024636
:1051D0000B4630463946FAF7C9FF06460F46FBF73D
:1051E0002BFC00228346002330463946FBF7E6FBC2
:1051F00048B15846FBF706F932463B46FBF7D4FB6D
:1052000008B90BF1FF3BBBF1160F57D8DDE90C01D4
:105210005A4B03EBCB03D3E90023FBF7CFFB00286A
:105220004ED000230BF1FF3B0F93169B1B1B5A1E06
:1052300046BFC3F1010900234FF00009099248BF9E
:105240000993BBF1000F3DDB099BCDF838B05B44FF
:10525000099300230A93229B092B67D8052BC4BF0F
:10526000043B2293229BC8BF0024A3F10203D8BFB2
:105270000124032B00F28680DFE803F02C39375637
:10528000DDE916431C4404F23243202BC1BFC3F1B5
:10529000400309FA03F904F2124326FA03F3D6BFD6
:1052A000C3F1200349EA030006FA03F0FBF79AF87A
:1052B0000122A1F1F873013C13926FE70123B3E7D8
:1052C0000F90B2E7CBF100030A930023A9EB0B097F
:1052D0000E93C0E700230B93239B002B55DC012387
:1052E0001A460693089323920BE00123F3E7002369
:1052F0000B93239B5B4406930133012B0893B8BFA8
:10530000012300210422E86902F114069E4240D9DB
:105310004160284600F098FD039000283CD10246E9
:1053200040F2AF11164BC3E60123E1E7012400234D
:105330000B9422934FF0FF3300220693089312231D
:10534000D1E700BFAFF3008061436F63A787D23F0F
:10535000B3C8608B288AC63FFB799F501344D33F64
:10536000388600084F8600080000F07F3486000869
:105370002B860008038600080000F83F40870008DD
:10538000A786000801230B93D4E7239B0693089379
:10539000B7E701315200B7E7EB69039A1A60089B3F
:1053A0000E2B00F2A880002C00F0A580BBF1000FAE
:1053B00034DD9A4B0BF00F0203EBC2031BF4807F2A
:1053C000D3E90034CDE910344FEA2B1416D0DDE9CF
:1053D0000C01934B0327D3E90823FBF7A7F9CDE989
:1053E000040104F00F048E4E54B9DDE91023DDE909
:1053F0000401FBF79BF9CDE9040129E00227F2E75C
:10540000E10708D5DDE91001D6E90023FBF764F8D0
:10541000CDE91001013764100836E5E700F0A580FA
:10542000DDE90C01CBF100047C4B04F00F0203EB2F
:10543000C203D3E90023FBF74FF802270023CDE98D
:105440000401774E2411002C40F08480002BD2D12F
:10545000DDE90434CDE910340F9B002B00F0878088
:10546000DDE9100100226F4BFBF7A8FA00287ED07F
:10547000089B002B7BD0069B002B38DDDDE910015B
:105480000022694BFBF728F8CDE90401069C0BF1DB
:10549000FF3801373846FAF7B5FFDDE90423FBF79B
:1054A0001BF80022614BFAF761FEA1F15076CDE9BD
:1054B00010011196002C5DD1DDE9040100225C4B46
:1054C000FAF752FE02460B46CDE904233346109A02
:1054D000FBF792FA002840F09582DDE90401109A6A
:1054E00006F10043FBF76AFA002840F08982DDE903
:1054F0000C34CDE90434179B002BC0F25181BBF171
:105500000E0F00F34D81454B03EBCB03D3E9003481
:10551000CDE90634239B002B80F2DA80089B002B18
:1055200000F3D68040F06B82DDE906010022404B9B
:10553000FAF7D2FFDDE90423FBF754FA089C26466C
:10554000002840F041823123039F0BF1010B07F843
:10555000013B3DE2E20705D5D6E90023FAF7BCFF9F
:1055600001230137641008366DE7022770E7D8463B
:10557000089C8FE70399294B214412910B9903EB67
:10558000C403DDE9106753E90223002954D0002049
:105590002849FBF7CBF83B463246FAF7E5FDCDE963
:1055A0001001039FDDE90401FBF746FA0446FAF710
:1055B00029FF02460B46DDE90401FAF7D5FD024654
:1055C0000B463034CDE90423DDE9102307F8014B05
:1055D000FBF7F4F9002873D1DDE904230020114919
:1055E000FAF7C2FDDDE91023FBF7E8F9002840F0E7
:1055F000B680129B9F423FF47AAFDDE91001002292
:10560000094BFAF769FF0022CDE91001DDE9040139
:10561000054BFAF761FFCDE90401C3E740870008B5
:10562000188700080000F03F0000244000001C40E4
:10563000000014400000E03F30463946FAF74CFFC6
:10564000129BCDE91001039C1493DDE90401FBF7E3
:10565000F3F91590FAF7D6FE02460B46DDE9040190
:10566000FAF782FD159B0646303304F8013B129B86
:105670000F469C424FF0000224D1DDE91001AF4BF0
:10568000FAF774FD02460B4630463946FBF7B4F98B
:10569000002863D1DDE910230020A849FAF764FD52
:1056A00002460B4630463946FBF788F900283FF49E
:1056B0001EAF149F7B1E149317F8013C302BF8D0BB
:1056C000C3463BE09E4BFAF707FFCDE90401BCE778
:1056D000039FDDE90489DDE9062340464946FBF7DF
:1056E00025F8FBF7A9F90446FAF78CFEDDE9062355
:1056F000FAF7F2FE02460B4640464946FAF734FDF9
:1057000004F1300607F8016B039EDDF820C0BE1BD4
:10571000B44502460B4636D1FAF728FDDDE90623EB
:1057200080468946FBF768F958BBDDE90623404609
:105730004946FBF739F908B1E30722D45146284618
:1057400000F0C2FB0023249A3B700BF101031360AD
:10575000269B002B3FF4E6AC1F60E3E427463B4664
:105760001F4613F8012D392A07D1039A9A42F7D11F
:105770003022039908F101080A701A7801321A7070
:105780009EE7D846EBE700226D4BFAF7A5FE002214
:10579000002380468946FBF707F900289BD0CDE718
:1057A0000B9A002A00F0C480229A012A00F3A880F4
:1057B000139A002A00F0A08003F233434F460A9C5C
:1057C000099A01211A4428469944099200F07CFC68
:1057D00006465FB1099B002B08DDBB42A8BF3B46D4
:1057E000099AA9EB0309FF1AD31A09930A9BF3B18B
:1057F0000B9B002B00F0A080002C10DD31462246D0
:10580000284600F01FFD524601460646284600F095
:1058100071FC80465146284600F056FBC2460A9B62
:105820001A1B04D05146284600F00CFD8246012187
:10583000284600F049FC0E9B0446002B40F3828072
:105840001A460146284600F0FDFC229B0446012B27
:105850007BDD4FF00008236904EB8303186900F037
:10586000E5FBC0F12000099B184410F01F0000F078
:105870009280C0F12003042B40F38580099BC0F186
:105880001C000344814407440993B9F1000F05DD6E
:1058900051464A46284600F02FFD8246099B002BC0
:1058A00005DD21461A46284600F026FD04460F9BDA
:1058B000002B72D02146504600F08AFD00286CDA99
:1058C000002351460A22284600F020FB0B9B82460B
:1058D0000BF1FF3B002B00F0AC81002331460A2284
:1058E000284600F013FB069B0646002B00F393802E
:1058F000229B022B59DC8EE0169BC3F136035DE739
:10590000089B5C1E0A9BA342BFBF0A9B0E9AE31A28
:10591000D218A8BF1C1B089BBEBF0A940E9200247D
:10592000002BB5BFA9EB03074F460023089B47E7B1
:105930004F460A9C0B9E4CE70A9A73E70000E03F33
:1059400000002440229B012B18DC049BB3B9059B6B
:10595000C3F3130393B9059B23F000431B0D1B05F1
:105960007BB14FF00108099B09F10109013309934B
:105970000E9B002B7FF46FAF012074E74FF00008FF
:10598000F6E79846F4E780D0099A1C331A44994404
:105990001F44099279E70346F6E7089B002B34DCA5
:1059A000229B022B31DD089B0693069B63B921469F
:1059B0000522284600F0AAFA01460446504600F0A7
:1059C00007FD00283FF7BFAD239B039F6FEA030B42
:1059D0004FF000082146284600F076FA002E3FF4EA
:1059E000ADAEB8F1000F05D0B04503D04146284612
:1059F00000F06AFA3146284600F066FA9EE6002476
:105A00002646E1E7C34626469DE50B9B002B00F0AA
:105A1000C880089B0693002F05DD31463A4628468C
:105A200000F06AFC0646B8F1000F5BD028467168AA
:105A300000F00AFA074628B9024640F2EF21814BEE
:105A4000FFF736BB326906F10C01023292000C30CE
:105A500002F038F901223946284600F04DFCB046E4
:105A60000646039B039A01330893069B13440B934A
:105A7000049B03F001030A93089B2146013B504617
:105A80000493FFF775FA4146069000F1300950463D
:105A900000F09EFC324609902146284600F0B4FCF6
:105AA000C268074602BB0146504600F091FC024620
:105AB000394628460C9200F007FA229B0C9A089F60
:105AC00043EA02010A9B194310D1B9F1390F29D0D9
:105AD000099B002B02DD069B03F13109049B83F82F
