:020000040800F2
:100000000050002025150008B5130008BB13000898
:10001000C1130008C7130008CD130008000000003A
:10002000000000000000000000000000D3130008E2
:10003000DF13000800000000EB130008F7130008AE
:100040006D1500086D1500086D1500086D15000888
:100050006D1500086D1500086D1500086D15000878
:10006000031400086D1500086D1500086D150008D3
:100070006D1500086D1500086D1500086D15000858
:100080006D1500086D1500086D1500086D15000848
:100090006D1500086D1500086D1500086D15000838
:1000A0006D1500086D1500086D1500086D15000828
:1000B0006D1500086D1500086D1500086D15000818
:1000C0006D1500086D1500086D1500086D15000808
:1000D0006D1500086D1500086D1500086D150008F8
:1000E0006D1500086D1500086D1500080000000072
:1000F0000000000000000000000000000000000000
:0C01000000000000000000005FF808F1A3
:1001100010B5054C237833B9044B13B10448AFF341
:1001200000800123237010BD680000200000000043
:100130001845000808B5034B1BB103490348AFF34A
:10014000008008BD000000006C0000201845000879
:1001500070B54FF0FF0C4CF4E06C1CEA11541DBF5D
:100160001CEA135594EA0C0F95EA0C0F00F0DEF828
:100170002C4481EA030621EA4C5123EA4C5350EA0D
:10018000013518BF52EA033541F4801143F480135E
:1001900038D0A0FB02CE4FF00005E1FB02E506F0EF
:1001A0000042E0FB03E54FF00006E1FB03569CF044
:1001B000000F18BF4EF0010EA4F1FF04B6F5007F4A
:1001C00064F5407404D25FEA4E0E6D4146EB0606BC
:1001D00042EAC62141EA55514FEAC52040EA5E5045
:1001E0004FEACE2EB4F1FD0C88BFBCF5E06F1ED8EF
:1001F000BEF1004F08BF5FEA500E50F1000041EB26
:10020000045170BD06F0004646EA010140EA0200D2
:1002100081EA0301B4EB5C04C2BFD4EB0C0541EAF4
:10022000045170BD41F480114FF0000E013C00F309
:10023000AB8014F1360FDEBF002001F0004170BD2D
:10024000C4F10004203C35DA0C341BDC04F1140446
:10025000C4F1200500FA05F320FA04F001FA05F2D2
:1002600040EA020001F0004221F0004110EBD3709F
:1002700021FA04F642EB06015EEA430E08BF20EACB
:10028000D37070BDC4F10C04C4F1200500FA04F36E
:1002900020FA05F001FA04F240EA020001F0004100
:1002A00010EBD37041F100015EEA430E08BF20EA73
:1002B000D37070BDC4F1200500FA05F24EEA020EBB
:1002C00020FA04F301FA05F243EA020321FA04F0EA
:1002D00001F0004121FA04F220EA020000EBD370A1
:1002E0005EEA430E08BF20EAD37070BD94F0000FA1
:1002F0000FD101F00046400041EB010111F4801FD5
:1003000008BF013CF7D041EA060195F0000F18BF85
:10031000704703F00046520043EB030313F4801FC1
:1003200008BF013DF7D043EA0603704794EA0C0F7B
:100330000CEA135518BF95EA0C0F0CD050EA410691
:1003400018BF52EA4306D1D181EA030101F000410E
:100350004FF0000070BD50EA410606BF1046194636
:1003600052EA430619D094EA0C0F02D150EA013642
:1003700013D195EA0C0F05D152EA03361CBF104683
:1003800019460AD181EA030101F0004141F0FE4122
:1003900041F470014FF0000070BD41F0FE4141F4A6
:1003A000780170BD81F0004102E000BF83F000439E
:1003B00030B54FEA41044FEA430594EA050F08BF00
:1003C00090EA020F1FBF54EA000C55EA020C7FEAC4
:1003D000645C7FEA655C00F0E2804FEA5454D4EB41
:1003E0005555B8BF6D420CDD2C4480EA020281EA0B
:1003F000030382EA000083EA010180EA020281EA43
:100400000303362D88BF30BD11F0004F4FEA013194
:100410004FF4801C4CEA113102D0404261EB4101A3
:1004200013F0004F4FEA03334CEA133302D0524229
:1004300063EB430394EA050F00F0A780A4F10104E5
:10044000D5F1200E0DDB02FA0EFC22FA05F280181F
:1004500041F1000103FA0EF2801843FA05F3594105
:100460000EE0A5F120050EF1200E012A03FA0EFC84
:1004700028BF4CF0020C43FA05F3C01851EBE371AE
:1004800001F0004507D54FF0000EDCF1000C7EEBCB
:1004900000006EEB0101B1F5801F1BD3B1F5001F09
:1004A0000CD349085FEA30004FEA3C0C04F1010428
:1004B0004FEA445212F5800F80F09A80BCF1004F51
:1004C00008BF5FEA500C50F1000041EB045141EAD3
:1004D000050130BD5FEA4C0C404141EB0101013C9C
:1004E00028BFB1F5801FE9D291F0000F04BF01468B
:1004F0000020B1FA81F308BF2033A3F10B03B3F15D
:1005000020020CDA0C3208DD02F1140CC2F10C02EC
:1005100001FA0CF021FA02F10CE002F11402D8BF4A
:10052000C2F1200C01FA02F120FA0CFCDCBF41EA16
:100530000C019040E41AA2BF01EB0451294330BDE5
:100540006FEA04041F3C1CDA0C340EDC04F11404C2
:10055000C4F1200220FA04F001FA02F340EA030099
:1005600021FA04F345EA030130BDC4F10C04C4F1DF
:10057000200220FA02F001FA04F340EA03002946BF
:1005800030BD21FA04F0294630BD94F0000F83F409
:10059000801306BF81F480110134013D4EE77FEAEC
:1005A000645C18BF7FEA655C29D094EA050F08BF38
:1005B00090EA020F05D054EA000C04BF1946104619
:1005C00030BD91EA030F1EBF0021002030BD5FEA5D
:1005D000545C05D14000494128BF41F0004130BD85
:1005E00014F580043CBF01F5801130BD01F00045D9
:1005F00045F0FE4141F470014FF0000030BD7FEA4C
:10060000645C1ABF194610467FEA655C1CBF0B4646
:10061000024650EA013406BF52EA033591EA030F5D
:1006200041F4002130BD00BF90F0000F04BF002155
:10063000704730B54FF4806404F132044FF0000588
:100640004FF0000150E700BF90F0000F04BF002101
:10065000704730B54FF4806404F1320410F0004567
:1006600048BF40424FF000013EE700BF42004FEA62
:10067000E2014FEA31014FEA02701FBF12F07F43DF
:1006800093F07F4F81F06051704732F07F4208BF96
:10069000704793F07F4F04BF41F40021704730B59D
:1006A0004FF4607401F0004521F000411CE700BFE9
:1006B00050EA010208BF704730B54FF000050AE06C
:1006C00050EA010208BF704730B511F0004502D56D
:1006D000404261EB41014FF4806404F132045FEA6F
:1006E000915C3FF4D8AE4FF003025FEADC0C18BF18
:1006F00003325FEADC0C18BF033202EBDC02C2F10A
:10070000200300FA03FC20FA02F001FA03FE40EA9B
:100710000E0021FA02F11444BDE600BF4FEA410287
:10072000B2F1E04324BFB3F5001CDCF1FE5C0DD94F
:1007300001F0004C4FEAC0024CEA5070B2F1004F99
:1007400040EB830008BF20F00100704711F0804F9C
:1007500021D113F13872BCBF01F00040704741F461
:1007600080114FEA5252C2F11802C2F1200C10FA65
:100770000CF320FA02F018BF40F001004FEAC12349
:100780004FEAD32303FA0CFC40EA0C0023FA02F3ED
:100790004FEA4303CCE77FEA625307D150EA0133C3
:1007A0001EBF4FF0FE4040F44000704701F0004093
:1007B00040F0FE4040F40000704700BF80B582B0BA
:1007C00002AF4FF480630093084B002208490948A8
:1007D00000F07EF94FF400630093044B04220449B7
:1007E000054800F075F900BFBD4680BD0008014016
:1007F000FC000020840000209400002080B582B01E
:1008000000AF03460A46FB711346BB71FB79013BFF
:10081000032B3DD801A252F823F000BF2D08000899
:10082000470800086108000879080008BB791A46E3
:1008300001211A4800F06EF9BB791A4601211848C7
:1008400000F068F925E0BB791A460221134800F050
:1008500061F9BB791A460221114800F05BF918E0F2
:10086000BB791A4601210D4800F054F900220121FC
:100870000B4800F04FF90CE000220121074800F07E
:1008800049F9BB791A460121054800F043F900E017
:1008900000BF00BF0837BD4680BD00BF84000020F8
:1008A0009400002080B582B000AF78607B681B7E2A
:1008B000002B0FD17B6858687B681B890122194681
:1008C00001F061F97B6801221A7600F0A9FE024668
:1008D0007B68DA6100BF0837BD4680BD00000000BC
:1008E00080B582B000AF78600B467B807B681B7E52
:1008F000022B3AD17B681B8A7A889A4235D17B6871
:10090000DA687B681B8A1946104601F025F9034610
:10091000012B0AD17B681B681B6800225A627B6826
:100920001B68184601F05CFE1FE07B681B681B68B3
:100930005B6A1846FFF778FE0FA3D3E90023FFF7A1
:1009400007FC02460B4610461946FFF7E7FE024633
:100950007B685A617B681B68184601F08BFE7B68D8
:1009600003221A76786800F071F900BF0837BD4697
:1009700080BD00BFAFF300809CC420B07268913F7F
:1009800080B582B000AF78607B681B7E032B4FD8A8
:1009900001A252F823F000BFA9090008CB09000802
:1009A000FD090008230A000800F03AFE02467B68B1
:1009B0001B6AD31A632B3DD97868FFF773FF00F0E9
:1009C0002FFE02467B681A6234E000F029FE0246E0
:1009D0007B68DB69D31A012B2ED97B6858687B684A
:1009E0001B890022194601F0CEF800F019FE0246DC
:1009F0007B68DA617B6802221A761DE000F010FE47
:100A000002467B68DB69D31AB3F57A7F16D90E48A4
:100A100002F012FF7B6800221A767B6801225A7668
:100A20000CE07B6800225A767B6800221A7606E08A
:100A300000BF04E000BF02E000BF00E000BF00BF55
:100A40000837BD4680BD00BF3045000880B485B082
:100A500000AFF860B9607A607B80FB68BA681A60A2
:100A6000FB687A685A60FB687A881A81FB68BA6901
:100A7000DA60FB68BA8B1A82FB684FF000025A6199
:100A8000FB680022DA61FB6800221A62FB68002220
:100A90001A76FB6800225A7600BF1437BD4680BC28
:100AA0007047000080B584B000AFF860B9607A602C
:100AB0007B689AB24FF0FF33B968044802F027FC14
:100AC0007B6818461037BD4680BD00BF8C010020F2
:100AD00080B584B000AFF860B9607A603B60FB68B5
:100AE000BA681A60FB687A685A60FB683A8B9A8128
:100AF000FB683A689A60FB6800229A73FB680122DF
:100B0000DA737968B86801F033FE00BF1037BD466C
:100B100080BD000080B584B000AF78600B46FB70EC
:100B20001346BB707B681B681B68DB6A1946454827
:100B300002F01CFE7B68BA789A737B68FA78DA73E5
:100B4000BB787A6812681268D26A02FB03F33E4AE5
:100B5000A2FB03235B09FB81FB78012B02D0022B54
:100B60002CD06BE07B685B68002B05D17B681B6831
:100B70001B68FA895A6318E07B685B68042B05D10F
:100B80007B681B681A68FB8993630EE07B685B686F
:100B9000082B05D17B681B681A68FB89D36304E0C6
:100BA0007B681B681A68FB8913647B6898687B689C
:100BB0009B890022194600F0E6FF3FE07B685B68F6
:100BC000002B0AD17B681B681B68D96AFA897B688D
:100BD0001B681B688A1A5A6327E07B685B68042BD2
:100BE0000AD17B681B681B68D96AFB897A6812681E
:100BF0001268CB1A936318E07B685B68082B0AD1F4
:100C00007B681B681B68D96AFB897A68126812685E
:100C1000CB1AD36309E07B681B681B68D96AFB8920
:100C20007A6812681268CB1A13647B6898687B68CC
:100C30009B890122194600F0A6FF00BF00BF1037B4
:100C4000BD4680BD4C4500081F85EB5180B582B084
:100C500000AF78607B681B8A042B09D17B685B69D5
:100C60001846FFF703FD02460B46034802F07EFDDF
:100C700000BF0837BD4680BD6845000880B582B01A
:100C800000AF0346FB80074B1B8AFA889A4204D1C7
:100C9000FB8819460348FFF723FE00BF0837BD460F
:100CA00080BD00BFD401002080B582B002AF00F04B
:100CB0005FFC00F03FF800F0DBF900F081F800F095
:100CC000B5F800F0ABF900F05DF9FFF777FD6421AE
:100CD0000120FFF793FD04230193114B009302239E
:100CE0000F4A10491048FFF7B1FE0F48FFF748FEC2
:100CF0000D4B5B7E002BF8D000F092FC02460B4BB4
:100D00001B68D31AB3F5FA7FEFD34FF400510848AC
:100D100000F051FF00F084FC0346044A1360E4E74E
:100D200000080140FC000020D4010020F801002050
:100D30000010014080B590B000AF07F118032822E1
:100D40000021184602F058FE3B1D00221A605A602E
:100D50009A60DA601A610123BB614FF48033FB6152
:100D600000233B620123BB6202237B634FF4803389
:100D7000BB634FF4E013FB6307F11803184600F060
:100D80004BFF0346002B01D000F0D4F90F237B600A
:100D90000223BB600023FB604FF480633B610023B0
:100DA0007B613B1D0221184601F0B8F90346002B78
:100DB00001D000F0BFF900BF4037BD4680BD000044
:100DC00080B500AF174B184A1A60164B4FF4827269
:100DD0005A60144B00229A60124B0022DA60114BC9
:100DE00000221A610F4B00225A610E4B4FF4007221
:100DF0009A610C4B2022DA610A4B00221A62094BDD
:100E000000225A62074B00229A62064B0A22DA62DB
:100E1000044801F011FB0346002B01D000F08AF9D1
:100E200000BF80BDA40000200030014080B596B016
:100E300000AF07F1480300221A605A609A60DA6036
:100E400007F1400300221A605A6007F124030022D0
:100E50001A605A609A60DA601A615A619A613B1DA1
:100E600020220021184602F0C7FD444B444A1A6074
:100E7000424B47225A60414B00229A603F4B40F25E
:100E8000E732DA603D4B00221A613C4B00225A6186
:100E90003A4B00229A61394801F052FB0346002B7D
:100EA00001D000F047F94FF48053BB6407F14803C9
:100EB0001946324801F0C0FD0346002B01D000F076
:100EC00039F92E4801F0FCFB0346002B01D000F05D
:100ED00031F900233B6400237B6407F1400319468A
:100EE000264802F015F90346002B01D000F022F944
:100EF00060237B620023BB620023FB6200233B6311
:100F000000237B630023BB630023FB6307F12403FF
:100F100000221946194801F0CDFC0346002B01D0F0
:100F200000F008F907F1240304221946134801F0E0
:100F3000C1FC0346002B01D000F0FCF800237B60CD
:100F40000023BB600023FB6000233B6100237B6127
:100F50004FF40053BB6100233B623B1D1946074819
:100F600002F034F90346002B01D000F0E3F8034807
:100F700000F092F900BF5837BD4680BDFC0000204C
:100F8000002C014080B586B000AF07F108030022B5
:100F90001A605A609A60DA603B4600221A605A6012
:100FA0001D4B4FF080421A601B4B47225A601A4B70
:100FB00000229A60184B4FF6FF72DA60164B00223F
:100FC0001A61154B00229A61134801F0B9FA0346E1
:100FD000002B01D000F0AEF84FF48053BB6007F156
:100FE000080319460C4801F027FD0346002B01D0E9
:100FF00000F0A0F800233B6000237B603B461946CD
:10100000054802F085F80346002B01D000F092F865
:1010100000BF1837BD4680BD4401002080B500AF39
:10102000114B124A1A60104B4FF4E1325A600E4BCA
:1010300000229A600C4B0022DA600B4B00221A61EE
:10104000094B0C225A61084B00229A61064B002280
:10105000DA61054802F00BF90346002B01D000F0DD
:1010600069F800BF80BD00BF8C010020003801403E
:1010700080B588B000AF07F1100300221A605A60F3
:101080009A60DA60284B9B69274A43F020039361FA
:10109000254B9B6903F02003FB60FB68224B9B6997
:1010A000214A43F0040393611F4B9B6903F004033F
:1010B000BB60BB681C4B9B691B4A43F008039361F0
:1010C000194B9B6903F008037B607B68002240F6A4
:1010D0001A41164800F057FD40F61A433B610123C0
:1010E0007B610023BB610223FB6107F110031946FA
:1010F0000E4800F0ADFB04233B610D4B7B610023E8
:10110000BB6107F110031946084800F0A1FB00225B
:101110000121082000F065FB082000F07EFB00BFE5
:101120002037BD4680BD00BF0010024000080140CE
:101130000000311080B400AF72B600BFFEE70000BF
:1011400080B485B000AF154B9B69144A43F001038E
:101150009361124B9B6903F00103BB60BB680F4BAB
:10116000DB690E4A43F08053D3610C4BDB6903F01B
:1011700080537B607B680A4B5B68FB60FB6823F0F5
:10118000E063FB60FB6843F00073FB60044AFB68AC
:10119000536000BF1437BD4680BC7047001002404A
:1011A0000000014080B588B000AF786007F11003FF
:1011B00000221A605A609A60DA607B681B681B4ADA
:1011C00093422FD11A4B9B69194A43F48053936180
:1011D000174B9B6903F48053FB60FB68144B9B69BE
:1011E000134A43F004039361114B9B6903F004031A
:1011F000BB60BB68A0233B6102237B610323FB61CF
:1012000007F1100319460B4800F022FB40233B6115
:1012100000237B610023BB6107F1100319460548D9
:1012200000F016FB00BF2037BD4680BD00300140F6
:10123000001002400008014080B485B000AF786023
:101240007B681B68124A93420CD1124B9B69114A6E
:1012500043F4006393610F4B9B6903F40063FB60ED
:10126000FB6810E07B681B68B3F1804F0BD1094B22
:10127000DB69084A43F00103D361064BDB6903F0E5
:101280000103BB60BB6800BF1437BD4680BC70471C
:10129000002C01400010024080B588B000AF78609B
:1012A00007F1100300221A605A609A60DA607B68C6
:1012B0001B68104A934218D10F4B9B690E4A43F0AA
:1012C000040393610C4B9B6903F00403FB60FB6810
:1012D0004FF440733B6102237B610223FB6107F102
:1012E00010031946054800F0B3FA00BF2037BD4689
:1012F00080BD00BF002C01400010024000080140EA
:1013000080B58AB000AF786007F1140300221A603C
:101310005A609A60DA607B681B68224A93423DD12A
:10132000214B9B69204A43F4804393611E4B9B6988
:1013300003F480433B613B691B4B9B691A4A43F0B2
:1013400008039361184B9B6903F00803FB60FB687B
:1013500040237B610223BB6103233B6207F114033B
:101360001946124800F074FA80237B610023BB61A8
:101370000023FB6107F1140319460C4800F068FADA
:101380000B4B5B687B627B6A43F0E0637B627B6A4A
:1013900043F004037B62064A7B6A536000BF283730
:1013A000BD4680BD0038014000100240000C0140E5
:1013B0000000014080B400AFFEE780B400AFFEE75C
:1013C00080B400AFFEE780B400AFFEE780B400AFAA
:1013D000FEE780B400AF00BFBD4680BC704780B45C
:1013E00000AF00BFBD4680BC704780B400AF00BFF7
:1013F000BD4680BC704780B500AF00F0FFF800BF6D
:1014000080BD80B500AF042000F0EEFB00BF80BDC2
:1014100080B586B000AFF860B9607A6000237B6168
:101420000AE0AFF300800146BB685A1CBA60CAB23A
:101430001A707B6901337B617A697B689A42F0DBC1
:101440007B6818461837BD4680BD80B483B000AFB6
:1014500078604FF0FF3318460C37BD4680BC7047AC
:1014600080B483B000AF786039603B684FF40052BD
:101470005A60002318460C37BD4680BC704780B4C4
:1014800083B000AF7860012318460C37BD4680BC9E
:10149000704780B485B000AFF860B9607A6000230F
:1014A00018461437BD4680BC7047000080B586B032
:1014B00000AF7860144A154BD31A7B617B693B619E
:1014C000134B1B68002B02D1114B124A1A60104BB0
:1014D0001A687B6813443A699A4207D202F0DAFA32
:1014E00003460C221A604FF0FF3309E0084B1B68DB
:1014F000FB60074B1A687B681344054A1360FB685E
:1015000018461837BD4680BD00500020000400007A
:10151000FC0100205003002080B400AF00BFBD4696
:1015200080BC7047FFF7F8FF0B480C490C4A0023BA
:1015300002E0D458C4500433C4188C42F9D3094A89
:10154000094C002301E013600432A242FBD302F0F5
:10155000A7FAFFF7A9FB70470000002068000020F1
:10156000F44500086800002050030020FEE700005A
:1015700080B500AF084B1B68074A43F010031360A7
:10158000032000F023F90F2000F008F8FFF7D8FD42
:101590000023184680BD00BF0020024080B582B005
:1015A00000AF7860124B1A68124B1B7819464FF443
:1015B0007A73B3FBF1F3B2FBF3F3184600F03BF997
:1015C0000346002B01D001230EE07B680F2B0AD8C5
:1015D000002279684FF0FF3000F003F9064A7B687B
:1015E0001360002300E0012318460837BD4680BD84
:1015F00000000020080000200400002080B400AF9C
:10160000054B1B781A46054B1B681344034A1360AD
:1016100000BFBD4680BC70470800002000020020CB
:1016200080B400AF024B1B681846BD4680BC7047B3
:101630000002002080B485B000AF78607B6803F0C2
:101640000703FB600C4BDB68BB60BA684FF6FF0317
:101650001340BB60FB681A02BB68134343F0BF63CF
:1016600043F40033BB60044ABB68D36000BF143747
:10167000BD4680BC704700BF00ED00E080B400AF05
:10168000044BDB681B0A03F007031846BD4680BC09
:10169000704700BF00ED00E080B483B000AF0346A8
:1016A000FB7197F90730002B0BDBFB7903F01F026E
:1016B000064997F907305B09012000FA02F241F868
:1016C000232000BF0C37BD4680BC704700E100E01E
:1016D00080B483B000AF03463960FB7197F90730DF
:1016E000002B0ADB3B68DAB20C4997F9073012018C
:1016F000D2B20B4483F800230AE03B68DAB208490F
:10170000FB7903F00F03043B1201D2B20B441A76AB
:1017100000BF0C37BD4680BC704700BF00E100E051
:1017200000ED00E080B489B000AFF860B9607A6085
:10173000FB6803F00703FB61FB69C3F10703042B9C
:1017400028BF0423BB61FB690433062B02D9FB6964
:10175000033B00E000237B614FF0FF32BB6902FADC
:1017600003F3DA43BB681A407B699A404FF0FF31BC
:101770007B6901FA03F3D9437B680B401343184696
:101780002437BD4680BC704780B582B000AF78601A
:101790007B68013BB3F1807F01D301230FE00A4A4C
:1017A0007B68013B53600F214FF0FF30FFF790FF44
:1017B000054B00229A60044B07221A60002318464A
:1017C0000837BD4680BD00BF10E000E080B582B0A4
:1017D00000AF78607868FFF72DFF00BF0837BD467F
:1017E00080BD80B586B000AF0346B9607A60FB73F8
:1017F00000237B61FFF742FF78617A68B9687869F6
:10180000FFF790FF024697F90F3011461846FFF791
:101810005FFF00BF1837BD4680BD80B582B000AF06
:101820000346FB7197F907301846FFF735FF00BFF5
:101830000837BD4680BD80B582B000AF786078685B
:10184000FFF7A2FF034618460837BD4680BD0000DB
:1018500080B48BB000AF7860396000237B620023D6
:101860003B6269E101227B6A02FA03F3FB613B6898
:101870001B68FA691340BB61BA69FB699A4240F080
:1018800058813B685B689A4A93425ED0984A93427B
:1018900075D8984A934258D0964A93426FD8964A40
:1018A000934252D0944A934269D8944A93424CD07E
:1018B000924A934263D8924A934246D0904A9342C6
:1018C0005DD8122B2AD8122B59D801A252F823F036
:1018D0004B19000825190008371900087919000864
:1018E0007F1900087F1900087F1900087F19000878
:1018F0007F1900087F1900087F1900087F19000868
:101900007F1900087F1900087F1900087F19000857
:101910007F1900082D19000841190008794A9342DF
:1019200013D02CE03B68DB683B6229E03B68DB6856
:1019300004333B6224E03B68DB6808333B621FE012
:101940003B68DB680C333B621AE03B689B68002B0A
:1019500002D104233B6213E03B689B68012B05D155
:1019600008233B627B68FA691A6109E008233B623D
:101970007B68FA695A6103E000233B6200E000BF24
:10198000BB69FF2B01D87B6801E07B6804337B6176
:10199000BB69FF2B02D87B6A9B0002E07B6A083B95
:1019A0009B003B617B691A680F213B6901FA03F3D5
:1019B000DB431A40396A3B6901FA03F31A437B6936
:1019C0001A603B685B6803F08053002B00F0B18025
:1019D0004D4B9B694C4A43F0010393614A4B9B6911
:1019E00003F00103BB60BB68484A7B6A9B08023373
:1019F00052F82330FB607B6A03F003039B000F2245
:101A000002FA03F3DB43FA681340FB607B68404A49
:101A1000934213D07B683F4A93420DD07B683E4A85
:101A2000934207D07B683D4A934201D1032306E0ED
:101A3000042304E0022302E0012300E000237A6A89
:101A400002F0030292009340FA681343FB602F49AF
:101A50007B6A9B080233FA6841F823203B685B6885
:101A600003F48013002B06D02D4B9A682C49BB69D8
:101A700013438B6006E02A4B9A68BB69DB43284915
:101A800013408B603B685B6803F40013002B06D0A7
:101A9000234BDA682249BB691343CB6006E0204B35
:101AA000DA68BB69DB431E491340CB603B685B6867
:101AB00003F40033002B06D0194B5A681849BB6950
:101AC00013434B6006E0164B5A68BB69DB4314496D
:101AD00013404B603B685B6803F48033002B21D0DC
:101AE0000F4B1A680E49BB6913430B6021E000BF1E
:101AF0000000321000003110000022100000211000
:101B000000001210000011100010024000000140FF
:101B100000080140000C0140001001400014014089
:101B2000000401400B4B1A68BB69DB4309491340B1
:101B30000B607B6A01337B623B681A687B6A22FA1E
:101B400003F3002B7FF48EAE00BF00BF2C37BD46E1
:101B500080BC70470004014080B485B000AF78605D
:101B60000B467B807B689A687B881340002B02D0F1
:101B70000123FB7301E00023FB73FB7B1846143742
:101B8000BD4680BC704780B483B000AF78600B4620
:101B90007B8013467B707B78002B03D07A887B6830
:101BA0001A6103E07B881A047B681A6100BF0C3756
:101BB000BD4680BC704780B485B000AF78600B46EE
:101BC0007B807B68DB68FB607A88FB6813401A04C3
:101BD000FB68D9437B880B401A437B681A6100BFBE
:101BE0001437BD4680BC704780B582B000AF034655
:101BF000FB80084B5A69FB881340002B06D0054A2E
:101C0000FB885361FB881846FFF738F800BF083798
:101C1000BD4680BD0004014080B586B000AF78604D
:101C20007B68002B01D1012372E27B681B6803F003
:101C30000103002B00F08780924B5B6803F00C03DC
:101C4000042B0CD08F4B5B6803F00C03082B12D1D4
:101C50008C4B5B6803F48033B3F5803F0BD1894B29
:101C60001B6803F40033002B6CD07B685B68002B8F
:101C700068D101234CE27B685B68B3F5803F06D1F5
:101C8000804B1B687F4A43F4803313602EE07B68EF
:101C90005B68002B0CD17B4B1B687A4A23F48033A2
:101CA0001360784B1B68774A23F4802313601DE090
:101CB0007B685B68B3F5A02F0CD1724B1B68714A2F
:101CC00043F4802313606F4B1B686E4A43F48033E8
:101CD00013600BE06B4B1B686A4A23F4803313607C
:101CE000684B1B68674A23F4802313607B685B683A
:101CF000002B13D0FFF794FC386108E0FFF790FC4D
:101D000002463B69D31A642B01D9032300E25D4BE1
:101D10001B6803F40033002BF0D014E0FFF780FCC5
:101D2000386108E0FFF77CFC02463B69D31A642B5C
:101D300001D90323ECE1534B1B6803F40033002B60
:101D4000F0D100E000BF7B681B6803F00203002BAA
:101D500063D04C4B5B6803F00C03002B0BD0494B5A
:101D60005B6803F00C03082B1CD1464B5B6803F443
:101D70008033002B16D1434B1B6803F00203002B6A
:101D800005D07B681B69012B01D00123C0E13D4BCD
:101D90001B6823F0F8027B685B69DB003949134359
:101DA0000B603AE07B681B69002B20D0364B012288
:101DB0001A60FFF735FC386108E0FFF731FC024696
:101DC0003B69D31A022B01D90323A1E12D4B1B68D8
:101DD00003F00203002BF0D02A4B1B6823F0F8021B
:101DE0007B685B69DB00274913430B6015E0264BDA
:101DF00000221A60FFF714FC386108E0FFF710FCBE
:101E000002463B69D31A022B01D9032380E11D4B03
:101E10001B6803F00203002BF0D17B681B6803F002
:101E20000803002B3AD07B689B69002B19D0174B15
:101E300001221A60FFF7F4FB386108E0FFF7F0FBBE
:101E400002463B69D31A022B01D9032360E10D4BF3
:101E50005B6A03F00203002BF0D0012000F0CEFA01
:101E60001CE00A4B00221A60FFF7DAFB38610FE032
:101E7000FFF7D6FB02463B69D31A022B08D903238E
:101E800046E100BF0010024000004242800442428E
:101E9000924B5B6A03F00203002BE9D17B681B685D
:101EA00003F00403002B00F0A6800023FB758B4B8E
:101EB000DB6903F08053002B0DD1884BDB69874A27
:101EC00043F08053D361854BDB6903F08053BB60E3
:101ED000BB680123FB75824B1B6803F48073002BE6
:101EE00018D17F4B1B687E4A43F480731360FFF761
:101EF00097FB386108E0FFF793FB02463B69D31A72
:101F0000642B01D9032303E1754B1B6803F4807331
:101F1000002BF0D07B68DB68012B06D16F4B1B6A6E
:101F20006E4A43F0010313622DE07B68DB68002BEF
:101F30000CD16A4B1B6A694A23F001031362674B99
:101F40001B6A664A23F0040313621CE07B68DB68AB
:101F5000052B0CD1614B1B6A604A43F004031362EA
:101F60005E4B1B6A5D4A43F0010313620BE05B4B5F
:101F70001B6A5A4A23F001031362584B1B6A574AE3
:101F800023F0040313627B68DB68002B15D0FFF796
:101F900047FB38610AE0FFF743FB02463B69D31A6F
:101FA00041F28832934201D90323B1E04B4B1B6AC3
:101FB00003F00203002BEED014E0FFF731FB386191
:101FC0000AE0FFF72DFB02463B69D31A41F2883243
:101FD000934201D903239BE0404B1B6A03F00203A9
:101FE000002BEED1FB7D012B05D13C4BDB693B4A3D
:101FF00023F08053D3617B68DB69002B00F087807E
:10200000364B5B6803F00C03082B61D07B68DB69FF
:10201000022B46D1334B00221A60FFF701FB3861D7
:1020200008E0FFF7FDFA02463B69D31A022B01D9FB
:1020300003236DE0294B1B6803F00073002BF0D1E4
:102040007B681B6AB3F5803F08D1244B5B6823F49F
:1020500000327B689B68214913434B601F4B5B68D0
:1020600023F474127B68196A7B685B6A0B431B4913
:1020700013434B601B4B01221A60FFF7D1FA386102
:1020800008E0FFF7CDFA02463B69D31A022B01D9CB
:1020900003233DE0114B1B6803F00073002BF0D0CD
:1020A00035E0104B00221A60FFF7BAFA386108E0F9
:1020B000FFF7B6FA02463B69D31A022B01D9032374
:1020C00026E0064B1B6803F00073002BF0D11EE0E6
:1020D0007B68DB69012B07D1012319E00010024066
:1020E00000700040600042420B4B5B68FB60FB6885
:1020F00003F480327B681B6A9A4206D1FB6803F4C2
:1021000070127B685B6A9A4201D0012300E00023D1
:1021100018461837BD4680BD0010024080B584B017
:1021200000AF786039607B68002B01D10123D0E0DB
:102130006A4B1B6803F007033A689A4210D9674B51
:102140001B6823F0070265493B6813430B60634B30
:102150001B6803F007033A689A4201D00123B8E0F4
:102160007B681B6803F00203002B20D07B681B6890
:1021700003F00403002B05D0594B5B68584A43F425
:10218000E06353607B681B6803F00803002B05D0F5
:10219000534B5B68524A43F460535360504B5B6847
:1021A00023F0F0027B689B684D4913434B607B68CA
:1021B0001B6803F00103002B40D07B685B68012B98
:1021C00007D1474B1B6803F40033002B15D10123C3
:1021D0007FE07B685B68022B07D1414B1B6803F0F3
:1021E0000073002B09D1012373E03D4B1B6803F002
:1021F0000203002B01D101236BE0394B5B6823F014
:1022000003027B685B68364913434B60FFF708FAAB
:10221000F8600AE0FFF704FA0246FB68D31A41F2BD
:102220008832934201D9032353E02D4B5B6803F0BE
:102230000C027B685B689B009A42EBD1274B1B68C2
:1022400003F007033A689A4210D2244B1B6823F02C
:10225000070222493B6813430B60204B1B6803F0C5
:1022600007033A689A4201D0012332E07B681B6879
:1022700003F00403002B08D0194B5B6823F4E062E1
:102280007B68DB68164913434B607B681B6803F06F
:102290000803002B09D0124B5B6823F460527B6863
:1022A0001B69DB000E4913434B6000F021F8024626
:1022B0000B4B5B681B0903F00F030A49CB5C22FA46
:1022C00003F3094A1360094B1B681846FFF766F9C8
:1022D000002318461037BD4680BD00BF00200240D5
:1022E000001002408C45000800000020040000207F
:1022F00080B487B000AF0023FB600023BB600023E5
:102300007B6100237B6000233B611E4B5B68FB60AD
:10231000FB6803F00C03042B02D0082B03D027E04A
:10232000194B3B6127E0FB689B0C03F00F03174A36
:10233000D35C7B60FB6803F48033002B10D0114B1F
:102340005B685B0C03F00103114AD35CBB607B68E4
:102350000D4A03FB02F2BB68B2FBF3F37B6104E0BE
:102360007B680C4A02FB03F37B617B693B6102E003
:10237000054B3B6100BF3B6918461C37BD4680BC1E
:10238000704700BF0010024000127A00A445000808
:10239000B445000800093D0080B400AF024B1B6843
:1023A0001846BD4680BC70470000002080B500AFD5
:1023B000FFF7F2FF0246054B5B681B0A03F00703B9
:1023C0000349CB5C22FA03F3184680BD001002409B
:1023D0009C45000880B500AFFFF7DEFF0246054BC5
:1023E0005B68DB0A03F007030349CB5C22FA03F3C3
:1023F000184680BD001002409C45000880B485B09E
:1024000000AF78600A4B1B680A4AA2FB03235B0AF1
:102410007A6802FB03F3FB6000BFFB685A1EFA6098
:10242000002BF9D100BF00BF1437BD4680BC7047F8
:1024300000000020D34D621080B582B000AF7860FC
:102440007B68002B01D1012376E07B685B6A002B5F
:1024500008D17B685B68B3F5827F09D07B68002276
:10246000DA6105E07B6800221A617B6800225A610C
:102470007B6800229A627B6893F85130DBB2002BB4
:1024800006D17B68002283F850207868FEF78AFE28
:102490007B68022283F851207B681B681A687B687E
:1024A0001B6822F040021A607B685B6803F482724A
:1024B0007B689B6803F404431A437B68DB6803F47E
:1024C00000631A437B681B6903F002031A437B68AD
:1024D0005B6903F001031A437B689B6903F4007393
:1024E0001A437B68DB6903F038031A437B681B6A75
:1024F00003F0800342EA03017B689B6A03F4005205
:102500007B681B680A431A607B689B691A0C7B68AE
:102510001B6802F004025A607B681B68DA697B68FA
:102520001B6822F40062DA617B6800225A657B68CE
:10253000012283F85120002318460837BD4680BD8C
:1025400080B582B000AF78607B68002B01D1012399
:1025500041E07B6893F83D30DBB2002B06D17B680D
:10256000002283F83C207868FEF766FE7B68022232
:1025700083F83D207B681A687B680433194610464F
:1025800000F022FB7B68012283F846207B68012251
:1025900083F83E207B68012283F83F207B6801227C
:1025A00083F840207B68012283F841207B68012268
:1025B00083F842207B68012283F843207B68012254
:1025C00083F844207B68012283F845207B68012240
:1025D00083F83D20002318460837BD4680BD000023
:1025E00080B485B000AF78607B6893F83D30DBB293
:1025F000012B01D0012332E07B68022283F83D20C9
:102600007B681B68184A93420ED07B681B68B3F145
:10261000804F09D07B681B68144A934204D07B68C2
:102620001B68134A934211D17B681B689B6803F0B7
:102630000703FB60FB68062B10D07B681B681A68D9
:102640007B681B6842F001021A6007E07B681B6828
:102650001A687B681B6842F001021A600023184662
:102660001437BD4680BC7047002C01400004004078
:102670000008004080B483B000AF78607B681B68BE
:102680001A6A41F211131340002B0FD17B681B68AB
:102690001A6A40F244431340002B07D17B681B6841
:1026A0001A687B681B6822F001021A607B680122AD
:1026B00083F83D20002318460C37BD4680BC704788
:1026C00080B582B000AF78607B68002B01D1012318
:1026D00041E07B6893F83D30DBB2002B06D17B688C
:1026E000002283F83C20786800F039F87B680222E9
:1026F00083F83D207B681A687B68043319461046CE
:1027000000F062FA7B68012283F846207B68012290
:1027100083F83E207B68012283F83F207B680122FA
:1027200083F840207B68012283F841207B680122E6
:1027300083F842207B68012283F843207B680122D2
:1027400083F844207B68012283F845207B680122BE
:1027500083F83D20002318460837BD4680BD80B46D
:1027600083B000AF786000BF0C37BD4680BC7047B7
:1027700080B584B000AF786039603B68002B09D128
:102780007B6893F83E30DBB2012B14BF012300239A
:10279000DBB222E03B68042B09D17B6893F83F3021
:1027A000DBB2012B14BF01230023DBB215E03B6831
:1027B000082B09D17B6893F84030DBB2012B14BFA2
:1027C00001230023DBB208E07B6893F84130DBB2E1
:1027D000012B14BF01230023DBB2002B01D0012306
:1027E0005EE03B68002B04D17B68022283F83E2028
:1027F00013E03B68042B04D17B68022283F83F205E
:102800000BE03B68082B04D17B68022283F8402050
:1028100003E07B68022283F841207B681B68012269
:102820003968184600F050FC7B681B681E4A9342CA
:1028300007D17B681B685A6C7B681B6842F40042B6
:102840005A647B681B68184A93420ED07B681B68E9
:10285000B3F1804F09D07B681B68144A934204D0BF
:102860007B681B68124A934211D17B681B689B6886
:1028700003F00703FB60FB68062B10D07B681B6826
:102880001A687B681B6842F001021A6007E07B68E7
:102890001B681A687B681B6842F001021A600023FB
:1028A00018461037BD4680BD002C01400004004092
:1028B0000008004080B586B000AFF860B9607A606B
:1028C0000023FB75FB6893F83C30012B01D10223F8
:1028D000AEE0FB68012283F83C207B680C2B00F201
:1028E0009F8001A252F823F01D290008212A000828
:1028F000212A0008212A00085D290008212A000851
:10290000212A0008212A00089F290008212A0008FE
:10291000212A0008212A0008DF290008FB681B681B
:10292000B968184600F0B2F9FB681B689A69FB6841
:102930001B6842F008029A61FB681B689A69FB6891
:102940001B6822F004029A61FB681B689969BB68E6
:102950001A69FB681B680A439A6164E0FB681B689C
:10296000B968184600F0F8F9FB681B689A69FB68BB
:102970001B6842F400629A61FB681B689A69FB68F5
:102980001B6822F480629A61FB681B689969BB68C6
:102990001B691A02FB681B680A439A6143E0FB68E3
:1029A0001B68B968184600F041FAFB681B68DA69D1
:1029B000FB681B6842F00802DA61FB681B68DA6991
:1029C000FB681B6822F00402DA61FB681B68D969A6
:1029D000BB681A69FB681B680A43DA6123E0FB687D
:1029E0001B68B968184600F08BFAFB681B68DA6947
:1029F000FB681B6842F40062DA61FB681B68DA69F5
:102A0000FB681B6822F48062DA61FB681B68D96985
:102A1000BB681B691A02FB681B680A43DA6102E0A3
:102A20000123FB7500BFFB68002283F83C20FB7D7F
:102A300018461837BD4680BD80B584B000AF7860B9
:102A400039600023FB737B6893F83C30012B01D184
:102A50000223B4E07B68012283F83C207B680222D9
:102A600083F83D207B681B689B68BB60BB6823F0D4
:102A70007703BB60BB6823F47F43BB607B681B6844
:102A8000BA689A603B681B68B3F5005F3ED0B3F547
:102A9000005F00F28780B3F5805F00F08680B3F5B9
:102AA000805F7FD8702B1AD0702B7BD8602B50D0D2
:102AB000602B77D8502B3CD0502B73D8402B58D05C
:102AC000402B6FD8302B64D0302B6BD8202B60D0AC
:102AD000202B67D8002B5CD0102B5AD062E07B688B
:102AE00018683B6899683B685A683B68DB6800F087
:102AF000CCFA7B681B689B68BB60BB6843F07703BC
:102B0000BB607B681B68BA689A604FE07B68186896
:102B10003B6899683B685A683B68DB6800F0B5FA27
:102B20007B681B689A687B681B6842F480429A60E5
:102B30003CE07B6818683B6859683B68DB681A466C
:102B400000F02CFA7B681B685021184600F083FACD
:102B50002CE07B6818683B6859683B68DB681A465C
:102B600000F04AFA7B681B686021184600F073FA8F
:102B70001CE07B6818683B6859683B68DB681A464C
:102B800000F00CFA7B681B684021184600F063FADD
:102B90000CE07B681A683B681B681946104600F019
:102BA0005AFA03E00123FB7300E000BF7B680122B7
:102BB00083F83D207B68002283F83C20FB7B18468D
:102BC0001037BD4680BD000080B485B000AF78608E
:102BD00039607B681B68FB607B68294A93420BD095
:102BE0007B68B3F1804F07D07B68264A934203D0BD
:102BF0007B68254A934208D1FB6823F07003FB6091
:102C00003B685B68FA681343FB607B681C4A93422D
:102C10000BD07B68B3F1804F07D07B68194A934291
:102C200003D07B68184A934208D1FB6823F44073B1
:102C3000FB603B68DB68FA681343FB60FB6823F0CA
:102C400080023B685B691343FB607B68FA681A602B
:102C50003B689A687B68DA623B681A687B689A62AC
:102C60007B68074A934203D13B681A697B681A6301
:102C70007B6801225A6100BF1437BD4680BC704793
:102C8000002C0140000400400008004080B487B0E0
:102C900000AF786039607B681B6A7B617B681B6A68
:102CA00023F001027B681A627B685B683B617B688A
:102CB0009B69FB60FB6823F07003FB60FB6823F0FB
:102CC0000303FB603B681B68FA681343FB607B6986
:102CD00023F002037B613B689B687A6913437B6145
:102CE0007B681C4A93420CD17B6923F008037B610B
:102CF0003B68DB687A6913437B617B6923F00403DB
:102D00007B617B68134A934211D13B6923F4807342
:102D10003B613B6923F400733B613B685B693A6943
:102D200013433B613B689B693A6913433B617B6892
:102D30003A695A607B68FA689A613B685A687B68AE
:102D40005A637B687A691A6200BF1C37BD4680BC33
:102D5000704700BF002C014080B487B000AF78609E
:102D600039607B681B6A7B617B681B6A23F01002F9
:102D70007B681A627B685B683B617B689B69FB6070
:102D8000FB6823F4E043FB60FB6823F44073FB60C3
:102D90003B681B681B02FA681343FB607B6923F0E6
:102DA00020037B613B689B681B017A6913437B614D
:102DB0007B681D4A93420DD17B6923F080037B61C0
:102DC0003B68DB681B017A6913437B617B6923F0F5
:102DD00040037B617B68144A934213D13B6923F41F
:102DE00080633B613B6923F400633B613B685B6943
:102DF0009B003A6913433B613B689B699B003A69BE
:102E000013433B617B683A695A607B68FA689A6150
:102E10003B685A687B689A637B687A691A6200BF6C
:102E20001C37BD4680BC7047002C014080B487B081
:102E300000AF786039607B681B6A7B617B681B6AC6
:102E400023F480727B681A627B685B683B617B68F5
:102E5000DB69FB60FB6823F07003FB60FB6823F019
:102E60000303FB603B681B68FA681343FB607B69E4
:102E700023F400737B613B689B681B027A691343F0
:102E80007B617B681D4A93420DD17B6923F400630B
:102E90007B613B68DB681B027A6913437B617B695A
:102EA00023F480637B617B68144A934213D13B69AE
:102EB00023F480533B613B6923F400533B613B683F
:102EC0005B691B013A6913433B613B689B691B01CA
:102ED0003A6913433B617B683A695A607B68FA68D8
:102EE000DA613B685A687B68DA637B687A691A62E0
:102EF00000BF1C37BD4680BC704700BF002C01409E
:102F000080B487B000AF786039607B681B6A3B6132
:102F10007B681B6A23F480527B681A627B685B685B
:102F20007B617B68DB69FB60FB6823F4E043FB604B
:102F3000FB6823F44073FB603B681B681B02FA6864
:102F40001343FB603B6923F400533B613B689B6880
:102F50001B033A6913433B617B680F4A934209D1D3
:102F60007B6923F480437B613B685B699B017A69E1
:102F700013437B617B687A695A607B68FA68DA611F
:102F80003B685A687B681A647B683A691A6200BFBA
:102F90001C37BD4680BC7047002C014080B487B010
:102FA00000AFF860B9607A60FB681B6A7B61FB6800
:102FB0001B6A23F00102FB681A62FB689B693B6194
:102FC0003B6923F0F0033B617B681B013A691343C3
:102FD0003B617B6923F00A037B617A69BB68134319
:102FE0007B61FB683A699A61FB687A691A6200BF83
:102FF0001C37BD4680BC704780B487B000AFF86016
:10300000B9607A60FB681B6A7B61FB681B6A23F00E
:103010001002FB681A62FB689B693B613B6923F401
:1030200070433B617B681B033A6913433B617B69D7
:1030300023F0A0037B61BB681B017A6913437B61AA
:10304000FB683A699A61FB687A691A6200BF1C37AB
:10305000BD4680BC704780B485B000AF78603960F1
:103060007B689B68FB60FB6823F07003FB603A6839
:10307000FB68134343F00703FB607B68FA689A60C0
:1030800000BF1437BD4680BC704780B487B000AF26
:10309000F860B9607A603B60FB689B687B617B6924
:1030A00023F47F437B613B681A027B681A43BB6849
:1030B00013437A6913437B61FB687A699A6000BFA6
:1030C0001C37BD4680BC704780B487B000AFF86045
:1030D000B9607A60BB6803F01F03012202FA03F3B0
:1030E0007B61FB681A6A7B69DB431A40FB681A62E2
:1030F000FB681A6ABB6803F01F03796801FA03F3DF
:103100001A43FB681A6200BF1C37BD4680BC70477B
:1031100080B485B000AF786039607B6893F83C304C
:10312000012B01D1022346E07B68012283F83C2079
:103130007B68022283F83D207B681B685B68FB602C
:103140007B681B689B68BB60FB6823F07003FB60B7
:103150003B681B68FA681343FB607B681B68FA686E
:103160005A607B681B68164A93420ED07B681B68C6
:10317000B3F1804F09D07B681B68124A934204D098
:103180007B681B68104A93420CD1BB6823F0800314
:10319000BB603B685B68BA681343BB607B681B68B5
:1031A000BA689A607B68012283F83D207B68002220
:1031B00083F83C20002318461437BD4680BC704776
:1031C000002C0140000400400008004080B485B09D
:1031D00000AF786039600023FB607B6893F83C3077
:1031E000012B01D102233DE07B68012283F83C20C2
:1031F000FB6823F0FF023B68DB681343FB60FB685E
:1032000023F440723B689B681343FB60FB6823F424
:1032100080623B685B681343FB60FB6823F40062D9
:103220003B681B681343FB60FB6823F480523B68D8
:103230001B691343FB60FB6823F400523B685B6926
:103240001343FB60FB6823F480423B68DB69134354
:10325000FB607B681B68FA685A647B68002283F80D
:103260003C20002318461437BD4680BC704780B50B
:1032700082B000AF78607B68002B01D1012342E06F
:103280007B6893F84130DBB2002B06D17B680022CB
:1032900083F840207868FEF733F87B68242283F8AF
:1032A00041207B681B68DA687B681B6822F4005247
:1032B000DA60786800F01CF97B681B681A697B6823
:1032C0001B6822F490421A617B681B685A697B680C
:1032D0001B6822F02A025A617B681B68DA687B68E7
:1032E0001B6842F40052DA607B6800225A647B68F3
:1032F000202283F841207B68202283F842207B68CB
:1033000000225A63002318460837BD4680BD80B5A9
:103310008AB002AFF860B9603B601346FB800023BF
:103320007B61FB6893F84130DBB2202B6DD1BB6829
:10333000002B02D0FB88002B01D1012366E0FB6843
:1033400000225A64FB68212283F84120FEF768F9C5
:103350007861FB68FA889A84FB68FA88DA84FB68EB
:103360009B68B3F5805F08D1FB681B69002B04D113
:103370000023FB61BB68BB6103E0BB68FB6100230A
:10338000BB612AE03B6800937B6900228021F868DA
:1033900000F040F80346002B01D0032336E0FB6920
:1033A000002B0BD1BB691B881A46FB681B68C2F354
:1033B00008025A60BB690233BB6107E0FB691A78F7
:1033C000FB681B685A60FB690133FB61FB68DB8C9F
:1033D0009BB2013B9AB2FB68DA84FB68DB8C9BB240
:1033E000002BCFD13B6800937B6900224021F86815
:1033F00000F010F80346002B01D0032306E0FB6821
:10340000202283F84120002300E0022318462037C1
:10341000BD4680BD80B590B000AFF860B9603B603C
:103420001346FB7150E0BB6CB3F1FF3F4CD0BB6C5B
:10343000002B07D0FEF7F4F802463B68D31ABA6CAB
:103440009A4241D2FB681B680C33BB62BB6A53E8EB
:10345000003F7B627B6A23F4D073FB63FB681B68CD
:103460000C33FA6B7A633B63396B7A6B41E8002368
:10347000FB62FB6A002BE5D1FB681B6814337B61A0
:103480007B6953E8003F3B613B6923F00103BB6369
:10349000FB681B681433BA6B3A62FB61F9693A6ADC
:1034A00041E80023BB61BB69002BE5D1FB6820220A
:1034B00083F84120FB68202283F84220FB68002229
:1034C00083F8402003230FE0FB681B681A68BB6881
:1034D0001340BA689A420CBF01230023DBB21A469C
:1034E000FB799A429FD0002318464037BD4680BDE5
:1034F00080B584B000AF78607B681B681B6923F4DB
:1035000040517B68DA687B681B680A431A617B68F4
:103510009A687B681B691A437B685B691343BB60CD
:103520007B681B68DB6823F4B05323F00C037A68D4
:103530001268B9680B43D3607B681B685B6923F42E
:1035400040717B689A697B681B680A435A617B6893
:103550001B682C4A934203D1FEF73CFFF86002E05F
:10356000FEF724FFF860FA6813469B0013449A00A4
:103570001A447B685B689B00B2FBF3F3224AA2FB10
:1035800003235B091901FA6813469B0013449A0050
:103590001A447B685B689B00B2FBF3F21A4BA3FBF7
:1035A00002035B09642000FB03F3D31A1B013233CF
:1035B000154AA2FB03235B0903F0F0031944FA68E0
:1035C00013469B0013449A001A447B685B689B0077
:1035D000B2FBF3F20C4BA3FB02035B09642000FB7C
:1035E00003F3D31A1B013233074AA2FB03235B09FF
:1035F00003F00F027B681B680A449A6000BF103713
:10360000BD4680BD003801401F85EB51002310B539
:103610000446C0E90033C0E9043383608181436616
:10362000C2818361194608225C3000F0E5F9054B40
:1036300024626362044BA362044BE362044B236382
:1036400010BD00BF493800086B380008A3380008D7
:10365000C7380008024A0349034800F069B800BFB0
:103660000C000020854300081800002041680C4B26
:1036700010B59942044601D000F084FEA168094BC0
:10368000994202D0204600F07DFEE168064B994247
:1036900004D02046BDE8104000F074BE10BD00BF4D
:1036A000040200206C020020D402002010B50B4B55
:1036B0000B4C0C4A20461A6004210022FFF7A6FF9B
:1036C00004F1680001220921FFF7A0FF04F1D000F6
:1036D0000222BDE810401221FFF798BF3C030020F2
:1036E0000402002055360008014800F0FDB900BF73
:1036F00045030020014800F0F8B900BF4503002051
:1037000010B50446FFF7F0FF236A1BB1BDE8104077
:10371000FFF7F0BF044B2362044B1B68002BF5D16D
:10372000FFF7C4FFF2E700BF6D3600083C0300203E
:103730002DE9F8430746884614460026D4E901954A
:10374000B9F1010905D52468002CF7D13046BDE850
:10375000F883AB89012B07D9B5F90E30013303D0BB
:1037600029463846C04706436835E9E70FB407B530
:10377000064904AB086853F8042B8168019300F0F4
:10378000D1FA03B05DF804EB04B070476400002088
:10379000036A70B505460E4684680BB9FFF7B0FFA3
:1037A000636EDB0705D4A389980502D4A06D00F0F1
:1037B0009BF9A389190713D523698BB1013EA3682F
:1037C00016F8011F013BA360E9B9002B2EDA22464F
:1037D0000A21284600F07BF8013007D00A2507E0CF
:1037E0002146284600F0B0F80028E7D04FF0FF351A
:1037F000636EDA0705D4A3899B0502D4A06D00F09F
:1038000074F9284670BD002B04DAA2699A4206DCDE
:103810000A2904D023685A1C22601970CFE7224677
:10382000284600F054F80130C9D1DFE70A252368A3
:103830005A1C22601D70DBE7024B01461868FFF737
:10384000A7BF00BF6400002010B50C46B1F90E10F0
:1038500000F0FCF80028ABBF636DA3891B1823F4AC
:103860008053ACBF6365A38110BD2DE9F0411F46B5
:103870008B890546DB050C46164605D5022300223A
:10388000B1F90E1000F0D0F8A389324623F480532A
:10389000A38128463B46B4F90E10BDE8F04100F084
:1038A000E7B810B50C46B1F90E1000F0BDF8431C96
:1038B000A38915BF606523F4805343F48053A3812B
:1038C00018BFA38110BDB1F90E1000F09DB8F8B576
:1038D0000E461446054618B1036A0BB9FFF710FFF0
:1038E000A369A360A3891A0725D523691BB323689D
:1038F0002269F6B2981A63693746834204DC21468E
:10390000284600F03FFDE0B9A368013BA3602368AF
:103910005A1C22601E706269431C9A4204D0A3891B
:10392000DB0706D50A2E04D12146284600F02AFDE1
:1039300038B93846F8BD2146284600F005F8002879
:10394000D5D04FF0FF37F4E738B52A4B0546186855
:103950000C4618B1036A0BB9FFF7D2FEA389B4F97C
:103960000C20180722D4D90607D409232B6042F073
:1039700040034FF0FF30A38134E0580712D5616B4C
:1039800041B104F14403994202D0284600F0AEF858
:1039900000236363A38923F02403A38100236360CE
:1039A00023692360A38943F00803A38123694BB9EA
:1039B000A38903F42073B3F5007F03D02146284682
:1039C00000F02DFDA089B4F90C2010F001030AD0FD
:1039D0000023A36063695B42A361236943B910F0CC
:1039E0008000C4D138BD810758BF6369A360F4E784
:1039F0000020F7E76400002003460244934200D110
:103A0000704703F8011BF9E738B50023054D04465C
:103A100008462B60FDF719FD431C02D12B6803B14A
:103A2000236038BD4003002038B5044608461146DF
:103A30000022054D2A601A46FDF72BFD431C02D1DA
:103A40002B6803B1236038BD4003002038B504461D
:103A5000084611460022054D2A601A46FDF7D8FC9B
:103A6000431C02D12B6803B1236038BD4003002002
:103A700038B50446084611460022054D2A601A460C
:103A8000FDF710F8431C02D12B6803B1236038BD49
:103A900040030020014B1868704700BF64000020FD
:103AA00070B500260C4D0D4C641BA410A64209D124
:103AB00000F032FD00260A4D0A4C641BA410A642F9
:103AC00005D170BD55F8043B98470136EEE755F82F
:103AD000043B98470136F2E7EC450008EC45000846
:103AE000EC450008F04500087047704738B50546BA
:103AF000002940D051F8043C0C1F002BB8BFE4183B
:103B000000F0DCF81C4A136833B96360146028467F
:103B1000BDE8384000F0D8B8A34208D92068211881
:103B20008B4201BF19685B6809182160EDE71A46EE
:103B30005B680BB1A342FAD911685018A0420BD1AF
:103B400020680144501883421160E0D118685B6816
:103B5000084410605360DAE702D90C232B60D6E7E3
:103B6000206821188B4201BF19685B680918216021
:103B700063605460CBE738BD4803002070B50E4E3B
:103B80000C463168054611B900F0A8FC30602146AA
:103B9000284600F0A3FC431C0AD0C41C24F00304F4
:103BA000A04207D0211A284600F098FC013001D12C
:103BB0004FF0FF34204670BD4C0300202DE9F84340
:103BC000CD1C25F0030508350C2D38BF0C25002D24
:103BD000074601DBA94205D90C2300263B6030468D
:103BE000BDE8F883DFF8D08000F068F8D8F800303E
:103BF0001C465CBB29463846FFF7C0FF431C044601
:103C000055D1D8F800402646002E45D1002C48D08A
:103C100023683146384604EB030900F05FFC814518
:103C20003FD1216838466D1A2946FFF7A7FF0130BA
:103C300037D023682B442360D8F80030002B38D0CD
:103C40005A68A2422BD100225A600FE02268521B10
:103C50001FD40B2A17D96119A342256018BF5960D8
:103C6000636808BFC8F8001062514B60384604F121
:103C70000B0600F029F826F00706231DF21AAED035
:103C80009B1BA350ABE7A3426268DDD1C8F80020BC
:103C9000ECE723466468ACE734467668B4E713463D
:103CA000CCE70C2338463B6000F00EF897E7256020
:103CB000DCE75B60FFDE00BF480300200148FFF740
:103CC00013BF00BF440300200148FFF70EBF00BF31
:103CD00044030020936810B4013B002B936007DA83
:103CE0009469A34201DB0A2902D110BCFFF7EFBDA2
:103CF0001368581C10601970084610BC7047F8B55E
:103D000006460F461446D518AC4201D1002007E004
:103D10003A46304614F8011BFFF7DCFF431CF3D191
:103D2000F8BD00002DE9F04F0D46144698460646B2
:103D30009DB018B1036A0BB9FFF7E2FC6B6ED907AF
:103D400005D4AB899A0502D4A86DFFF7CDFEAB89E7
:103D50001B0701D52B699BB929463046FFF7F4FDB7
:103D600070B16B6EDC0704D54FF0FF301DB0BDE8BD
:103D7000F08FAB899805F7D4A86DFFF7B6FEF3E78F
:103D80000023099320238DF8293030234FF00109B7
:103D9000CDF80C80DFF8AC818DF82A3023469A46A6
:103DA00013F8012B0AB1252AF9D1BAEB040B0BD079
:103DB0005B46224629463046FFF7A1FF013000F05E
:103DC000A980099A5A4409929AF80030002B00F011
:103DD000A18000234FF0FF32CDE905230AF1010A4B
:103DE000049307938DF853301A935446052214F820
:103DF000011B544800F082FB049AD8B9D10644BF95
:103E000020238DF85330130744BF2B238DF85330F4
:103E10009AF800302A2B15D0544600204FF00A0C97
:103E2000079A214611F8013B303B092B4DD9B0B11F
:103E3000079214E0A0EB080309FA03F31343A24628
:103E40000493D2E7039B191D1B680391002BBBBF92
:103E50005B4242F0020207930793B8BF04922378B3
:103E60002E2B0CD163782A2B34D1039B02341A1DDC
:103E70001B680392002BB8BF4FF0FF330593DFF8A8
:103E8000C8A003225046217800F038FB38B1402208
:103E9000049BA0EB0A00824013430134049314F8FE
:103EA000011B062229488DF8281000F027FB002866
:103EB0003FD0274B1BBB039B073323F0070308337B
:103EC0000393099B3B44099368E70C4601200CFBD4
:103ED0000232A6E700234FF00A0C1946013405937D
:103EE000204610F8012B303A092A03D9002BC6D0FE
:103EF0000591C4E7044601230CFB0121F0E703AB65
:103F000000932A463046134B04A9AFF300800746BE
:103F1000781CD6D16B6ED90705D4AB899A0502D42B
:103F2000A86DFFF7E2FDAB895B063FF51DAF099871
:103F30001CE703AB00932A463046064B04A900F069
:103F40007DF8E4E7B6450008BC450008C045000818
:103F500000000000FF3C00082DE9F0471646994696
:103F60008A680B6907469342B8BF1346336091F8DD
:103F700043200C46DDF820800AB10133336023680A
:103F8000990642BF336802333360256815F0060591
:103F900006D104F1190AE36832689B1AAB422BDCA4
:103FA00094F84320131E226818BF0123920630D4D0
:103FB0004946384604F14302C047013023D0236804
:103FC000226903F00603042B14BF002533684FF069
:103FD000000608BFE56804F11A0408BFED1A54F89A
:103FE000123C08BF25EAE5759342C4BF9B1AED1841
:103FF000B5421AD1002008E001235246494638460E
:10400000C047013003D14FF0FF30BDE8F0870135E4
:10401000C1E73020E11881F843005A1C94F845109C
:104020002244023382F84310C2E701232246494664
:104030003846C0470130E6D00136D9E72DE9FF47C1
:104040000F7E9146782F80460C469A460C9D01F1D2
:10405000430207D8622F0AD8002F00F0D580582FCE
:1040600000F0C18004F1420584F842703AE0A7F103
:104070006303152BF6D801A151F823F0D5400008B1
:10408000E9400008654000086540000865400008F8
:1040900065400008E94000086540000865400008E8
:1040A0006540000865400008EF4100081541000820
:1040B000A941000865400008654000081142000859
:1040C000654000081541000865400008654000088B
:1040D000B14100082B681A1D1B682A6004F14205D3
:1040E00084F842300123A0E020682B68070603F122
:1040F0000401296001D51E6803E04606FBD5B3F92B
:104100000060002E03DA2D23764284F843300A2320
:10411000594812E02B682068191D2960050601D551
:104120001E6802E04106FBD51E886F2F0CBF0823D6
:104130000A235148002184F843106568002DA8BF68
:104140002168A560A4BF21F0040121600EB9002DF3
:104150004BD01546B6FBF3F103FB1167C75D05F8BD
:10416000017D3746BB420E46F4D9082B0BD123689C
:10417000DE0708D5236961689942DEBF302305F860
:10418000013C05F1FF35521B22614B46214640465A
:10419000CDF800A003AAFFF7DFFE01304AD14FF0AF
:1041A000FF3004B0BDE8F087236843F020032360AC
:1041B0007827324884F84570236829681F0651F82B
:1041C000046B02D45F0648BFB6B2DF0748BF43F0B6
:1041D0002003296048BF23601EB9236823F0200311
:1041E00023601023A6E72448E4E71546BDE72B68C3
:1041F0002668181D6169286035061B6801D519609D
:1042000002E07006FBD51980002315462361BCE748
:104210002B6800211A1D2A601D686268284600F07C
:104220006DF908B1401B606063682361002384F866
:104230004330AAE72A46494640462369D047013021
:10424000ADD023689B0713D4E068039B9842B8BFA6
:104250001846A6E70123324649464046D04701307A
:104260009DD00135E36803995B1AAB42F2DCEBE7C2
:10427000002504F11906F5E7C7450008D8450008F0
:104280008A89F8B5054610070C4657D44B68002BB1
:1042900004DC0B6C002B01DC0020F8BDE66A002E6C
:1042A000FAD0002312F480522F68216A2B6032D09A
:1042B000606DA3895A0705D56368C01A636B0BB19B
:1042C000236CC01A00230246E66A2846216AB047DA
:1042D000431CA38906D129681D292BD8284A0A41E5
:1042E000D60727D4002262602269D904226004D54F
:1042F000421C01D12B6803B96065616B2F600029F6
:10430000CAD004F14403994202D02846FFF7EEFBDD
:1043100000206063C1E701232846B047411CC8D193
:104320002B68002BC5D01D2B01D0162B01D12F607F
:10433000B2E7A38943F04003A381AEE70F69002FE2
:10434000AAD0930718BF00230E6808BF4B69F61B5D
:104350000F608B60002E9FDD33463A462846216A67
:10436000D4F828C0E047002806DCA3894FF0FF30CE
:1043700043F04003A38190E70744361AEAE700BF01
:10438000FEFFBFDF38B50B6905460C4613B90025A3
:10439000284638BD18B1036A0BB9FFF7B1F9B4F973
:1043A0000C30002BF3D0626ED00704D4990502D4F0
:1043B000A06DFFF799FB28462146FFF761FF636E6A
:1043C0000546DA07E4D4A3899B05E1D4A06DFFF785
:1043D0008CFBDDE770B50C46B1F90E1015460029CF
:1043E0001E4696B00CDAA389002113F0800F0CBF93
:1043F0004FF480634023002031602B6016B070BD05
:104400006A4600F049F80028EDDB019901F470419B
:10441000A1F50053594259414FF48063EBE78B8972
:1044200073B59D0706460C4607D504F14703236084
:1044300023610123636102B070BD6A4601ABFFF7DF
:10444000C9FF009905463046FFF7B8FB48B9B4F9F3
:104450000C309A05EFD423F0030343F00203A38149
:10446000E3E7A389206043F08003A381009B2061E0
:104470006361019B5BB13046B4F90E1000F01EF889
:1044800028B1A38923F0030343F00103A381A38987
:104490001D43A581CFE7000038B50023064D044633
:1044A000084611462B60FCF7DBFF431C02D12B684A
:1044B00003B1236038BD00BF4003002038B500239E
:1044C000054D044608462B60FCF7D9FF431C02D17A
:1044D0002B6803B1236038BD4003002038B50023AA
:1044E000054D044608462B60FCF7E0FF431C02D153
:1044F0002B6803B1236038BD40030020034610B58C
:10450000C9B202449342184601D1002003E0047866
:1045100001338C42F6D110BDF8B500BFF8BC08BC21
:104520009E467047F8B500BFF8BC08BC9E46704771
:10453000596F75722073656E736F72206973206294
:10454000726F6B656E2E2E2E2E200D006874696DB5
:10455000312E496E7374616E63652D3E4152522057
:104560003D2025750D0A00005B5455414E4E474FC6
:10457000435D20535230345F4563686F5F50696E0E
:10458000203D202566200D0A0000000000000000EC
:1045900000000000010203040607080900000000F3
:1045A0000102030402030405060708090A0B0C0DA7
:1045B0000E0F10100102232D302B2000686C4C00D0
:1045C0006566674546470030313233343536373813
:1045D0003941424344454600303132333435363771
:0C45E00038396162636465660000000009
:0445EC00350100088D
:0445F00011010008AD
:1045F4000024F4001000000001000000000000008E
:104604000300000004020020000000000402002057
:104614006C020020D4020020000000000000000012
:104624000000000000000000000000000000000086
:104634000000000000000000000000000000000076
:104644000000000000000000000000000000000066
:08465400000000001800002026
:0400000508001525B5
:00000001FF
